:03000000020D9D51
:0C0D9D00787FE4F6D8FD758123020DE498
:0C179C00759D60E4F5BDF5BE75BCA02293
:1013B800E4FDFC53BCF8EF1444A842BCE5BC30E49F
:1013C800FB53BCEFAFBEAD07AFBDEF75F004A4FF94
:0813D800E5F0FCED4FAE04FF4F
:0113E00022EA
:10150400D3EF9400EE9400401600000075080B75AC
:0F15140009BED509FDD508FAEF1F70E41E80E16E
:0115230022A5
:10175800D3EF9400EE9400400A000000EF1F70F0F1
:041768001E80ED22D0
:0D000E00E4F5C7F5C5F5C675C380F5C4223D
:1015810075C78375C5018FC4EEF5C375C65A75C697
:0D159100A57F0A7E00121504AFC202000EF5
:1015240075C78375C5028FC4EEF5C3AF058FC27549
:0F153400C65A75C6A57F0A7E0012150402000E66
:1015BB0075C78375C5038FC4EEF5C375C65A75C65B
:0B15CB00A57F0A7E0012150402000E2E
:1014C200E49000F8F0A3F0FFFE1215BB9000F8E0E4
:1014D200FEA3E0FF900159E0FD121524C203C2CC25
:0114E20022E7
:100E2900900149E0900153F0A21BE433A3F0900133
:100E39005BE0900155F090015AE0900156F0900165
:100E49005CE0900157F090014DE0900158F090015D
:100E590059E075F002A47F00FE9000FAF0A3EFF0CC
:100E69001215BBE49000F9F09000F9E0FDC3940677
:100E7900502BA3E0FEA3E0FF74532DF582E4340167
:100E8900F583E0FD1215249000FBE004F070069054
:100E990000FAE004F09000F9E004F080CBC203C24C
:010EA900CC7C
:010EAA002225
:1011F500E4FFFE121581900159EFF0120026A205B9
:1012050092101215F1D210121678A21B9210121616
:101215000C90015AE0FF120A30900149E0FF1210CC
:0C1225001590015BE0FF120FA20211B750
:10002600EF75F002A49000F9F0A3E4F09000F8F068
:100036009000F9E0FEA3E0FF1215819000F8E0249D
:1000460053F582E43401F583EFF09000FAE004F012
:1000560070069000F9E004F09000F8E004F0E0C3C8
:10006600940640CC900153E0900149F0900154E091
:1000760024FF921BA3E090015BF0900156E09001F3
:100086005AF0900157E090015CF0900158E0900121
:020096004DF02B
:010098002245
:10154300759420E4F593759280F59175967FF595E2
:0F155300F5B2F5B175B41CF5B375CA10F5C92220
:1004030060F20000011A0123012C0135013E01476E
:100413000151015A0164016E01770181018B01943D
:10042300019E01A801B201BC01C601CF01D901E3BC
:1004330001ED01F60200020A0213021D0226022F39
:1004430002380242024B0254025C0265026E0276DB
:10045300027F0287028F0297029F02A702AF02B6B2
:1004630002BE02C502CC02D302DA02E102E702EEC7
:1004730002F402FB03010307030D03120318031D18
:1004830003230328032D03320337033C03410345AE
:10049300034A034E03520356035A035E0362036681
:1004A300036A036D037103740378037B037E038183
:1004B30003840387038A038D038F039203950397B2
:1004C3000399039C039E03A003A303A503A703A906
:1004D30003AB03AD03AF03B103B203B403B603B875
:1004E30003B903BB03BC03BE03BF03C103C203C4FD
:0B04F30003C503C603C74200F200006F
:0E0EAB009000F9EBF0A3EAF0A3E9F0A3EDF05C
:100EB900E4900100F09000FFF09000FCE014FF9036
:100EC90000FFE0FEC39F50559000F9E0FBA3E0FA54
:100ED900A3E0F975F002EEA4F58285F083120644C9
:100EE900FF9000FDE0FCA3E0FDC39FEC95F04025D9
:100EF900A3E02401FFE433FEEF25E0FFEE33FE8F8C
:100F0900828E83120644FFC3ED9FEC95F050069044
:100F190000FFE0A3F09000FFE004F0809C90010046
:020F2900E0FFE7
:010F2B0022A3
:0510CD00900121EFF08D
:1010D200900123740AF0E4900122F0900123E0FFD2
:1010E200900122E0C39F501C900121E0FF1213B82F
:1010F2009000F3E02FF09000F2E03EF0900122E049
:1011020004F080D79000F2E0FEA3E0FF900123E01C
:0E111200FD7C001205D99000F2EEF0A3EFF084
:0111200022AC
:1014A00075F10890FFF2740BF090FFF07410F0A348
:1014B000E4F090FF30F0A3F0A3F0A3740AF0A3E4EB
:0214C000F02218
:1015D6009000F8EEF0A3EFF01200069000F8E0FF9E
:0B15E600A3E090FF32CFF0A3EFF02253
:0400060075F58822E2
:0617D500E4F5F5D2A322A9
:1011210030064AEFB407005044901131F828287373
:1011310002114602114902114F02115502115B02BF
:1011410011610211670217D57FD07E07801C7F6075
:101151007E0980167FF07E0A80107F807E0C800AD7
:0E1161007F107E0E80047FA07E0F1215D62216
:1004FE00C10EC10FC108C183C18DC107C10CC18519
:10050E00C100C186C101C109C10AC10BC104C1022A
:10051E0042014E0000420146000042014A000041E5
:10052E0001480041014901420150E42041014C00C3
:10053E004101520141014D0541013C0041013D0087
:10054E0041013E0041013F00410140004101410097
:0D055E004101420041014300420144000000
:10176C00538E7F5389F0758A9A758CF7C28DD28C03
:03177C00D2A922CD
:0A17B300538EBF53890F43891022A3
:10177F0053D1FDE4F5D575D4DC43D10843AF202216
:03000300021306DF
:10130600C0E0C083C082C0D075D000C006D2A1D2D2
:1013160097900150E0FEA3E0F58BEEF58DD208D252
:0E1326008ED2ABD006D0D0D082D083D0E032B1
:03000B00020CF5EF
:100CF500C0E0C0F0C083C082C0D075D000C000C0C5
:0D0D050001C002C003C004C005C006C00745
:100D120090013CE0703D7F071213B8900146EEF05F
:100D2200A3EFF0C394F4EE9401500EA3E004F0E0BC
:100D3200B46406E4F0C20CC201D3900147E09420EF
:100D4200900146E09403402E900148E4F0D20CD288
:100D5200018023200420900152E004F0E0D3941497
:100D620040147F061210CD90014AEEF0A3EFF0D2AC
:100D720004900152E4F090013CE0FFC374019FF043
:100D8200D007D006D005D004D003D002D001D000C5
:0B0D9200D0D0D082D083D0F0D0E0326F
:03001B0002116F60
:10116F00C0E0C083C082C0D030082C300529900168
:10117F0049E024FE600D14601024027010C297D253
:10118F00A1800AD297C2A18004C297C2A1C20875DA
:10119F008BF7758DFF8008D2A1D297C28EC2ABD0CC
:0811AF00D0D082D083D0E032E1
:03009B0002081E3A
:0F081E00C0E0C0F0C083C082C0D075D000C0075A
:10082D00300933300A30900145E004F07006900134
:10083D0044E004F090014DE075F064A4FF90014494
:10084D00E0B5F012A3E0B5070D900144E4F0A3F07C
:10085D00C209C20AD20BA20A82094007900144E4E0
:10086D00F0A3F0900142E004F0E0D3940F4004B205
:10087D000EE4F0900143E004F0E0D394324004B272
:10088D000FE4F090013FE004F0E0D39405400AE45A
:10089D00F0E580540F90015DF0301A10900140E0AA
:1008AD0004F0E0D394964004C21AE4F0301910908D
:1008BD000141E004F0E0D394964004C219E4F02025
:1008CD00031290013DE004F0E0D3940A4006E4F0F9
:1008DD00D203D2CC300D1290013EE004F0E0D3945F
:1008ED000A4006D207C20DE4F030022D90014FE010
:1008FD0004F0700690014EE004F090014EE0B40556
:10090D0018A3E0B4DC13C20290014EE4F0A3F0D2C0
:09091D00A6D2A5D2A4D2C4D2C313
:0D092600D007D0D0D082D083D0F0D0E03206
:10159E00300504D2AB8002C2ABEF75F040A424201C
:0D15AE00FEE5F034E4900150F0A3CEF022F1
:10172E00759850438E01438E0475D7E875D6FF43E6
:05173E008E10D2AC2268
:0300230002178F32
:0D178F00309904C299C21D309802C29832F0
:0817BD00201DFDD21D8F9922B1
:1012D30090015EEBF0A3EAF0A3E9F090015EE0FB7E
:1012E300A3E0FAA3E0F91205C0601790015EA3E43E
:1012F30075F00112062EA9F0FA1205C0FF1217BDF0
:0313030080D9226C
:0817C5008F993099FDC29922B1
:10056B0041012B0041012C0041012D0041013800BC
:10057B004101390041013A0041013B00470124C3CD
:10058B00C6C7CACBCECF4A012EF505D39727B6F6F1
:03059B0015F7B79A
:1016E400D2B6D2C1D2B7E4FF121362D2B67F44128B
:0A16F4001362D2B61213340217CDB0
:10133400E49000F8F09000F8E0FFC39407501E74A6
:10134400242FF582E43401F583E0FF121362E4FFF5
:0D135400121362D2B69000F8E004F080D8C9
:011361002269
:0817CD007F93121362D2B622D1
:0716FE00900128E0FFE4FD6C
:101705009000FAEDF01213629000FAE0FF121362F6
:03171500D2B62227
:051362009000FBEFF01C
:101367007F327E00121758C2B6E4FFC2C19000FB5D
:10137700E0FE1392B7D2C1EEC313F00FEFB408EB40
:071387007F327E00021758BF
:060A30009000F9EFF0F95F
:100A3600E0FF75F06484FDEF75F00A8475F00A84B2
:100A4600AFF0E975F00A84AEF0900139E4F0900158
:100A560038E4F090012DE4F090012CE4F090013997
:100A6600E0FC742E2DF582E43401F583E0FBC454DA
:100A76000FFAEC4A900139F0900138E04BF0900102
:100A86002DE0FD742E2FF582E43401F583E0FFEDB1
:100A96004F90012DF090012CE0FF742E2EF582E48C
:100AA6003401F583E0FEEF4E90012CF0E9C3940A81
:100AB600501A9000F9E0C3940040111216FE9001FE
:100AC60027121701900126E0FFE480479000F9E025
:100AD600FFC39464501AEFC3940A40141216FE9092
:100AE6000127121701900126E0FF90012DE08023D7
:100AF600900128E0FF900139E0FD121705900127CB
:100B0600E0FF900138E0FD121705900126E0FF9006
:100B1600012DE0FD121705900125E0FF90012CE064
:040B2600FD121705A0
:010B2A0022A8
:100FA200AD0790013BE05430F0EFB407005057908A
:100FB2000FB8F8282873020FCD020FD4020FDD02FA
:100FC2000FE6020FEF020FF802100190013BE0F072
:100FD200803490013BE04440F0802B90013BE044A0
:100FE200C0F0802290013BE044C8F0801990013BA0
:100FF200E044CCF0801090013BE044CEF0800790BA
:10100200013BE044CFF090012AE0FF90013BE0FD7C
:03101200021705BD
:10101500AD0790013AE05480F0900139E4F0ED24F9
:10102500FE60171460242402702E90013AE04404F7
:10103500F0900139E04440F0801E90013AE044020E
:10104500F0900139E04420F0800E90013AE044062A
:10105500F0900139E04460F0900129E0FF90013AF9
:10106500E0FD121705900128E0FF900139E0FD022F
:0210750017055D
:1015F10090013AE054F7F0301004E04408F0900113
:0B16010029E0FF90013AE0FD02170510
:10160C0090012BE054EFF0301004E04410F0900106
:0B161C0024E0FF90012BE0FD02170509
:1016270090012BE054DFF0301E04E04420F09001DD
:0B16370024E0FF90012BE0FD021705EE
:1016420090012BE054BFF0301004E04440F09001D0
:0B16520024E0FF90012BE0FD021705D3
:10165D0090012BE0547FF0301004E04480F09001B5
:0B166D0024E0FF90012BE0FD021705B8
:1016780090012CE054F7F0301004E04408F0900199
:0B16880025E0FF90012CE0FD0217059B
:1016930090013BE054DFF0301004E04420F090016F
:0B16A3002AE0FF90013BE0FD0217056C
:1016AE0090013AE054EFF0301004E04410F0900155
:0B16BE0029E0FF90013AE0FD02170553
:1016C90090013BE054EFF0301004E04410F0900139
:0B16D9002AE0FF90013BE0FD02170536
:10059E00C19CC11B41015B0041015A004101590040
:0C05AE0041015C2D41015D00C11AC11922
:10093300200703020A2F90015DE024FE602A146061
:100943005A1470030209D4147003020A0724FC70BA
:1009530003020A0C24FC7003020A11240C60030234
:100963000A2312126B020A149000F57464F09001CA
:100973005DE0B402159000F5E0D39400400CE01460
:10098300F07F0A7E0012150480E49000F5E0700306
:10099300120C152019031213E180769000F774648A
:1009A300F090015DE0B403159000F7E0D3940040AC
:1009B3000CE014F07F0A7E0012150480E49000F727
:1009C300E07003120B2BD202E490014EF0A3F080EF
:1009D3004F9000F67464F090015DE0B4041590004C
:1009E300F6E0D39400400CE014F07F0A7E00121569
:1009F3000480E49000F6E07003121743201A0312F8
:100A03000F2C800D12129F800812140A80031214F7
:100A130031D202E490014EF0A3F07F32FE121504AE
:0C0A2300300505D2101215F1D20DC207EB
:010A2F0022A4
:10140A0090015BE0FFC203C2CC0FD3EF64809486E5
:10141A0040027F0690015BEFF012112190015BE020
:07142A00FF120FA2020E29C0
:1014310090015BE0FFC203C2CC1FC3EF64809480C4
:101441005002E4FF90015BEFF012112190015BE08B
:07145100FF120FA2020E2999
:10126B0090015AE0C203C2CC2405FFD3648094E4FE
:10127B0040027F6490015AEFF012159E90015AE0E4
:10128B00FF120A30900149E0FF121015D21012160E
:04129B0078020E299E
:10129F0090015AE0C203C2CC24FBFFC36480948048
:1012AF005002E4FF90015AEFF012159E90015AE0A0
:1012BF00FF120A30900149E0FF121015D2101216DA
:0412CF0078020E296A
:1013E100C203C2CC900149E0B403057401F0800648
:1013F100900149E004F0900149E0FF121015300519
:0914010005D2101215F1020E29AA
:100C1500E49000F8F090014DE09000F8F0C203C2B6
:100C2500CC7FF47E0112150490015DE0640270032F
:100C3500020CCE300F0890014DE0FF120A30A20FD2
:100C4500B35028900128E0FFE4FD12170590012715
:100C5500E0FFE4FD121705900126E0FFE4FD121701
:100C650005900125E0FFE4FD12170590015DE0B454
:100C75000122C203C2CC9000F8E004F0E0D394C88E
:100C8500400374C8F09000F8E090014DF07F647E59
:100C95000012150490015DE0B40522C203C2CC9098
:100CA50000F8E014F0E0C3940250037401F09000E2
:100CB500F8E090014DF07F647E00121504D202E445
:100CC50090014EF0A3F0020C2DD21990015AE0FFCD
:100CD500120A30900149E0FF121015C21012164297
:100CE500D210121678300505D2101215F1020E2910
:100B2B00E49000F8F090015CE09000F8F0C203C292
:100B3B00CC7FF47E0112150490015DE06403700319
:100B4B00020BEE300F0D90015CE0FF120A30D21059
:100B5B00121642A20FB3502D900128E0FFE4FD12B4
:100B6B001705900127E0FFE4FD121705900126E021
:100B7B00FFE4FD121705900125E0FFE4FD121705B8
:100B8B00D21012164290015DE0B40122C203C2CC16
:100B9B009000F8E004F0E0D3947840037478F09080
:100BAB0000F8E090015CF07F647E00121504900168
:100BBB005DE0B40522C203C2CC9000F8E014F0E073
:100BCB00C3941450037414F09000F8E090015CF09F
:100BDB007F647E00121504D202E490014EF0A3F064
:100BEB00020B43D21990015AE0FF120A30900149CF
:100BFB00E0FF121015C210121642D21012167830E6
:0A0C0B000505D2101215F1020E29A2
:100F2C00C203C2CC900159E004F0E0B40603740192
:100F3C00F0121334C210121678D21012165D9001F2
:100F4C0059E0FF120A30900159E0FF1200267FF49D
:100F5C007E01121504121334C21012165DA21BB3BB
:100F6C0092101215F1A21B921012160C90015AE05D
:100F7C00FF120A30900149E0FF121015D210121620
:100F8C007890015BE0FF120FA2C209C20A1211B7DE
:060F9C001210770214C2DE
:10174300C203C2CCD21AB21BA21B921012160C12E5
:0517530011B7020E2990
:10138E00D21012169330061790015BE0D3940040F2
:10139E000EA20E92101216AEA20EB392108007D2AB
:0A13AE00101216AEC2101216C9226A
:1017180030071090015DE0700AD20290014EF0A3EC
:06172800F0FF227F012208
:101231003007369000F57464F090015DE070159010
:1012410000F5E0D39400400CE014F07F0A7E001218
:10125100150480E59000F5E0700F121334C205C249
:09126100101215F11217D5D21C70
:01126A002261
:10147C0068657265005448452076616C7565206F0F
:10148C0066206E7463365F76616C20697320256408
:04149C00200D0A0015
:0505BA00420161000098
:1011B700301B22300C0FD205D2101215F1D206D2F5
:1011C70009C20A8019D20AC205C2101215F1C20655
:1011D7001217D58009D205D2101215F1D206900147
:0E11E7005AE0FF12159E90015BE0FF021121FD
:1014580030090D300A0AD20690015BE0FF12112113
:10146800300B107BFF7A14797C120109C20612171F
:04147800D5C20B22AC
:0B17A800C2A6C2A5C2A4C2C4C2C322D4
:1014E300A201E433FF900161E07003A3E06F601099
:1014F3001211B7A201E4FF33900161CFF0A3EFF023
:0115030022C5
:101077003004527B017A00790090014AE0FFA3E037
:101087009000FDCFF0A3EFF07D79120EAB9000F842
:10109700EFF07BFF7A1479819000FCE4F0A3EFF086
:1010A70012010990015CE0FF9000F8E0FEC39F4049
:1010B70005300502D2A2EF14FFEEC39F500530059D
:0510C70002C2A2C204F8
:0110CC002201
:101562003D3D3D3D3D3D3D3D20636F6465207374CF
:0F157200617274203D3D3D3D3D3D3D3D0D0A0004
:1007010043BA8012154312179C12172E12176C123E
:1007110017B312177FD288D2A8D2AFC2C2C2A3D256
:10072100CC1214A0C2851217D57BFF7A15796212FB
:100731000109E4FFFE121581EF6401605BEF6402C1
:100741006056EF64036051EF6404604CEF64056030
:10075100479001597401F0900149F0D21B90015B5F
:100761007403F090015A7432F090015C742DF09092
:10077100014D740FF01214C29000F47401F0900056
:10078100F4E0FFC394065010900159EFF0120E29C6
:100791009000F4E004F080E67FE87E031215043057
:1007A1001C0A121718EF24FF921C80F3C2A0121723
:1007B100A81216E41211F5D210121678300505D2DE
:1007C100101215F1C203C2CC90015DE0700CC2039E
:1007D100C2CCD20290014EF0A3F030020D120933C7
:1007E100C2A6C2A5C2A4C2C4C2C312138E1214E30C
:1007F100121077121458121231301C18C203C2CCD5
:10080100D2A6D2A5D2A4D2C4D2C3D2A0D2A2D2A1FE
:0D081100D29780847F057E0012150480AB15
:100DA900020701E493A3F8E493A34003F68001F258
:100DB90008DFF48029E493A3F85407240CC8C3334B
:100DC900C4540F4420C8834004F456800146F6DF1A
:100DD900E4800B0102040810204080900403E47EA3
:100DE900019360BCA3FF543F30E509541FFEE4930F
:100DF900A360010ECF54C025E060A840B8E493A3D6
:100E0900FAE493A3F8E493A3C8C582C8CAC583CA00
:100E1900F0A3C8C582C8CAC583CADFE9DEE780BEB8
:0105BF00003B
:1005C000BB010689828A83E0225002E722BBFE0239
:0905D000E32289828A83E493226C
:1005D900BC000BBE0029EF8DF084FFADF022E4CC06
:1005E900F875F008EF2FFFEE33FEEC33FCEE9DECCF
:1005F900984005FCEE9DFE0FD5F0E9E4CEFD22ED15
:10060900F8F5F0EE8420D21CFEADF075F008EF2F5E
:10061900FFED33FD4007985006D5F0F222C398FD4F
:050629000FD5F0EA22EC
:10062E00A3F8E0C5F025F0F0E5821582700215837F
:06063E00E0C838F0E822DC
:10064400BB0110E58229F582E5833AF583E0F5F0F4
:10065400A3E0225009E92582F886F008E622BBFED1
:100664000AE92582F8E2F5F008E222E5832AF58317
:08067400E993F5F0A3E99322DC
:10009E00E50824FCF582E43400F583E0050822909F
:1000AE0000F93017039000FCE475F0011206BB0254
:1000BE0005C02010E97F2ED2108018EF540F249027
:1000CE00D43440D4FF30140BEF24BFB41A005003C5
:1000DE002461FFE50960021509050CE50C700205A7
:1000EE000B30170E9000F9E475F0011206BBEF020B
:1000FE0006A90217C57403D2178003E4C217F508C8
:10010E009000F91206D2E4F509F50BF50CE509603D
:10011E00077F201200E180F5750AFFC211C210C2DE
:10012E0012C213C215C216C2181200ADFF700D30E6
:10013E0017057F001200F2AF0CAE0B22B4255FC282
:10014E00D5C2141200ADFF24D0B40A00501A75F0B7
:10015E000A780930D50508B6FF0106C6A426F62092
:10016E00D5047002D21380D924CFB41A00EF5004F4
:10017E00C2E5D2140202F3D21180C6D21080C0D2D0
:10018E001280BCD2D580BAD21580B47F201200E185
:10019E002012077401B5090040F112009EFF1200F3
:1001AE00E102011BD218D216809512009EFB12009E
:1001BE009EFA12009EF94A4B700679C47A037BFFB1
:1001CE0020122EE509602A7E008E827583001206AB
:1001DE007C60060EEE650A70F0C2D5EBC0E0EAC098
:1001EE00E0E9C0E0EE12033AD0E0F9D0E0FAD0E058
:1001FE00FB1205C0FF60AAEBC0E0EAC0E0E9C0E078
:10020E001200E1D0E02401F9D0E03400FAD0E0FB96
:10021E00E50A0460DCD50AD980877BFF7A0379363C
:10022E00D212809C791080027908C216C2188008FA
:10023E00D2D5790A8004790AC2D5E50A047002F58E
:10024E000AE4FAFDFEFF12009EFC7B082011131239
:10025E00009EFD7B1030100A12009EFE12009EFFC3
:10026E007B20EC3382D592D55013C3E43010069F19
:10027E00FFE49EFEE42011039DFDE49CFCE4CBF81C
:10028E00C211EC700CCFCECDCCE824F8F870F38010
:10029E0017C3EF33FFEE33FEED33FDEC33FCEB33E0
:1002AE00FB994002FB0FD8E9EB301105F8D0E0C402
:1002BE0048B211C0E00AEC4D4E4F78207B0070C260
:1002CE00EAB50A0040BCC0E012033CD0F0D0E020FA
:1002DE001104C4C0E0C4B211C0F01200CAD0F0D5EF
:1002EE00F0EB02011B1206DB01B8530232580189F2
:1002FE004C01854202364F023E44023E49019E4366
:08030E000244550228460228B2
:100316004502284703E450018D2D01912E01B42B8F
:1003260001952301B22003CD2A014D48000001ACFE
:100336003F3F3F00790AA2D5201314301509B910A2
:10034600020404B9080104A2D520160250010420B3
:1003560012689212B509005034C0E07F203013199C
:100366007F30A21272167215500F120393C212C278
:1003760016C215C2187F30800F301503E9C0E0128F
:1003860000E1301503D0E0F9D0E0B509CC301517FF
:100396007F30B9100C1200E17F583014077F788047
:1003A60003B908031200E13012057F2D0200E17F38
:1003B600202018F87F2B2016F322921280CF286E69
:1003C600756C6C2900D21112009E3011F8C211789A
:1003D6000930D50108F602014D2D50434958120047
:1003E6009E2403B405004001E49003DF931200D27B
:0D03F600743A1200D2D213750904020232CB
:10067C00BB010CE58229F582E5833AF583E0225033
:10068C0006E92582F8E622BBFE06E92582F8E2227D
:0D069C00E58229F582E5833AF583E4932297
:1006A900BB010689828A83F0225002F722BBFE0130
:0206B900F3222A
:1006BB00F8E0FBA3A3E0F925F0F0E58215827002C8
:0706CB001583E0FA38F0226C
:0906D200EBF0A3EAF0A3E9F02229
:1006DB00D083D082F8E4937012740193700DA3A3AE
:1006EB0093F8740193F5828883E4737402936860C2
:0606FB00EFA3A3A380DFC2
:00000001FF
