:03000000020D19D5
:0C0D1900787FE4F6D8FD758123020D60A0
:0C170A00759D60E4F5BDF5BE75BCA02225
:10132E00E4FDFC53BCF8EF1444A842BCE5BC30E429
:10133E00FB53BCEFAFBEAD07AFBDEF75F004A4FF1E
:08134E00E5F0FCED4FAE04FFD9
:011356002274
:10147A00D3EF9400EE9400401600000075080B7537
:0F148A0009BED509FDD508FAEF1F70E41E80E1F9
:011499002230
:1016B800D3EF9400EE9400400A000000EF1F70F092
:0416C8001E80ED2271
:0D000E00E4F5C7F5C5F5C675C380F5C4223D
:1014F70075C78375C5018FC4EEF5C375C65A75C622
:0D150700A57F0A7E0012147AAFC202000E0A
:10149A0075C78375C5028FC4EEF5C3AF058FC275D4
:0F14AA00C65A75C6A57F0A7E0012147A02000E7C
:1015310075C78375C5038FC4EEF5C375C65A75C6E5
:0B154100A57F0A7E0012147A02000E43
:10143800E49000F8F0A3F0FFFE1215319000F8E0F8
:10144800FEA3E0FF900157E0FD12149AC202C2CC3D
:011458002271
:100DA500900149E0900151F0A21AE433A3F09001BB
:100DB50059E0900153F0900158E0900154F09001F2
:100DC5005AE0900155F090014DE0900156F09001E8
:100DD50057E075F002A47F00FE9000FAF0A3EFF053
:100DE500121531E49000F9F09000F9E0FDC3940686
:100DF500502BA3E0FEA3E0FF74512DF582E43401EE
:100E0500F583E0FD12149A9000FBE004F070069063
:100E150000FAE004F09000F9E004F080CBC202C2D1
:010E2500CC00
:010E260022A9
:10116B00E4FFFE1214F7900157EFF0120026A204D1
:10117B00920F121567D20F1215EEA21A920F1215BB
:10118B0082900158E0FF1206FA900149E0FF120F1E
:0C119B0091900159E0FF120F1E02112D6F
:10002600EF75F002A49000F9F0A3E4F09000F8F068
:100036009000F9E0FEA3E0FF1214F79000F8E02428
:1000460051F582E43401F583EFF09000FAE004F014
:1000560070069000F9E004F09000F8E004F0E0C3C8
:10006600940640CC900151E0900149F0900152E095
:1000760024FF921AA3E0900159F0900154E09001F8
:1000860058F0900155E090015AF0900156E0900129
:020096004DF02B
:010098002245
:1014B900759420E4F593759280F59175967FF5956D
:0F14C900F5B2F5B175B41CF5B375CA10F5C922AB
:1004030060F20000011A0123012C0135013E01476E
:100413000151015A0164016E01770181018B01943D
:10042300019E01A801B201BC01C601CF01D901E3BC
:1004330001ED01F60200020A0213021D0226022F39
:1004430002380242024B0254025C0265026E0276DB
:10045300027F0287028F0297029F02A702AF02B6B2
:1004630002BE02C502CC02D302DA02E102E702EEC7
:1004730002F402FB03010307030D03120318031D18
:1004830003230328032D03320337033C03410345AE
:10049300034A034E03520356035A035E0362036681
:1004A300036A036D037103740378037B037E038183
:1004B30003840387038A038D038F039203950397B2
:1004C3000399039C039E03A003A303A503A703A906
:1004D30003AB03AD03AF03B103B203B403B603B875
:1004E30003B903BB03BC03BE03BF03C103C203C4FD
:0B04F30003C503C603C74200F200006F
:0E0E27009000F9EBF0A3EAF0A3E9F0A3EDF0E0
:100E3500E4900100F09000FFF09000FCE014FF90BA
:100E450000FFE0FEC39F50559000F9E0FBA3E0FAD8
:100E5500A3E0F975F002EEA4F58285F08312063D54
:100E6500FF9000FDE0FCA3E0FDC39FEC95F040255D
:100E7500A3E02401FFE433FEEF25E0FFEE33FE8F10
:100E8500828E8312063DFFC3ED9FEC95F0500690D0
:100E950000FFE0A3F09000FFE004F0809C900100CB
:020EA500E0FF6C
:010EA7002228
:050FF300900121EFF068
:100FF800900123740AF0E4900122F0900123E0FFAD
:10100800900122E0C39F501C900121E0FF12132E93
:101018009000F3E02FF09000F2E03EF0900122E023
:1010280004F080D79000F2E0FEA3E0FF900123E0F7
:0E103800FD7C001205D29000F2EEF0A3EFF066
:011046002287
:1014160075F10890FFF2740BF090FFF07410F0A3D2
:10142600E4F090FF30F0A3F0A3F0A3740AF0A3E475
:02143600F022A2
:10154C009000F8EEF0A3EFF01200069000F8E0FF28
:0B155C00A3E090FF32CFF0A3EFF022DD
:0400060075F58822E2
:06174300E4F5F5D2A3223B
:1010970030054AEFB4070050449010A7F82828738A
:1010A7000210BC0210BF0210C50210CB0210D10201
:1010B70010D70210DD0217437FD07E07801C7F60A8
:1010C7007E0980167FF07E0A80107F807E0C800A62
:0E10D7007F107E0E80047FA07E0F12154C222B
:1004FE00C10DC10EC107C182C18CC106C10BC18421
:10050E00C100C185C101C108C109C10AC1034201AF
:10051E0046000042014A00004101480041014901E4
:10052E0042014EE42041014C004101500141014D78
:10053E000541013C0041013D0041013E0041013FAA
:10054E00004101400041014100410142004101438F
:06055E0000420144000010
:1016CC00538E7F5389F0758A9A758CF7C28DD28CA4
:0316DC00D2A9226E
:0A172100538EBF53890F4389102235
:1016DF0053D1FDE4F5D575D4DC43D10843AF2022B7
:0300030002127C6A
:10127C00C0E0C083C082C0D075D000C006D2A1D25D
:10128C009790014EE0FEA3E0F58BEEF58DD207D2E0
:0E129C008ED2ABD006D0D0D082D083D0E0323C
:03000B00020C7173
:100C7100C0E0C0F0C083C082C0D075D000C000C049
:0D0C810001C002C003C004C005C006C007CA
:100C8E0090013CE0703D7F0712132E900146EEF06E
:100C9E00A3EFF0C394F4EE9401500EA3E004F0E041
:100CAE00B46406E4F0C20BC201D3900147E0942075
:100CBE00900146E09403402E900148E4F0D20BD20E
:100CCE00018023200320900150E004F0E0D394141F
:100CDE0040147F06120FF390014AEEF0A3EFF0D20C
:100CEE0003900150E4F090013CE0FFC374019FF0CB
:100CFE00D007D006D005D004D003D002D001D0004A
:0B0D0E00D0D0D082D083D0F0D0E032F3
:03001B000210E5EB
:1010E500C0E0C083C082C0D030072C3004299001F5
:1010F50049E024FE600D14601024027010C297D2DE
:10110500A1800AD297C2A18004C297C2A1C2077565
:101115008BF7758DFF8008D2A1D297C28EC2ABD056
:08112500D0D082D083D0E0326B
:03009B000209D087
:0F09D000C0E0C0F0C083C082C0D075D000C007A7
:1009DF00300833300930900145E004F07006900183
:1009EF0044E004F090014DE075F064A4FF900144E1
:1009FF00E0B5F012A3E0B5070D900144E4F0A3F0C9
:100A0F00C208C209D20AA20982084007900144E431
:100A1F00F0A3F0900142E004F0E0D3940F4004B251
:100A2F000DE4F0900143E004F0E0D394324004B2BF
:100A3F000EE4F090013FE004F0E0D39405400AE4A7
:100A4F00F0E580540F90015BF0301910900140E0F9
:100A5F0004F0E0D394964004C219E4F030181090DB
:100A6F000141E004F0E0D394964004C218E4F02072
:100A7F00021290013DE004F0E0D3940A4006E4F046
:100A8F00D202D2CC300C1290013EE004F0E0D394AD
:090A9F000A4006D206C20CE4F084
:0D0AA800D007D0D0D082D083D0F0D0E03283
:10151400300404D2AB8002C2ABEF75F040A42420A7
:0D152400FEE5F034E490014EF0A3CEF0227D
:10168E00759850438E01438E0475D7E875D6FF4387
:05169E008E10D2AC2209
:030023000216FDC5
:0D16FD00309904C299C21C309802C2983284
:08172B00201CFDD21C8F992245
:1012490090015CEBF0A3EAF0A3E9F090015CE0FB0C
:10125900A3E0FAA3E0F91205B9601790015CA3E4D1
:1012690075F001120627A9F0FA1205B9FF12172B1A
:0312790080D922F7
:081733008F993099FDC2992243
:1005640041012B0041012C0041012D0041013800C3
:100574004101390041013A0041013B00470124C3D4
:10058400C6C7CACBCECF4A012EF505D39727B6F6F8
:0305940015F7B7A1
:10165A00D2B6D2C1D2B7E4FF1212D8D2B67F4412A0
:0A166A0012D8D2B61212AA02173BE2
:1012AA00E49000F8F09000F8E0FFC39407501E7431
:1012BA00242FF582E43401F583E0FF1212D8E4FF0B
:0D12CA001212D8D2B69000F8E004F080D8DF
:0112D70022F4
:08173B007F931212D8D2B622EE
:07167400900128E0FFE4FDF6
:10167B009000FAEDF01212D89000FAE0FF1212D897
:03168B00D2B622B2
:0512D8009000FBEFF0A7
:1012DD007F327E001216B8C2B6E4FFC2C19000FB89
:1012ED00E0FE1392B7D2C1EEC313F00FEFB408EBCB
:0712FD007F327E000216B8EB
:0606FA009000F9EFF0F999
:10070000E0FF75F06484FDEF75F00A8475F00A84EB
:10071000AFF0E975F00A84AEF0900139E4F0900191
:1007200038E4F090012DE4F090012CE4F0900139D0
:10073000E0FC742E2DF582E43401F583E0FBC45413
:100740000FFAEC4A900139F0900138E04BF090013B
:100750002DE0FD742E2FF582E43401F583E0FFEDEA
:100760004F90012DF090012CE0FF742E2EF582E4C5
:100770003401F583E0FEEF4E90012CF0E9C3940ABA
:10078000501A9000F9E0C3940040111216749001C1
:1007900027121677900126E0FFE480479000F9E0E9
:1007A000FFC39464501AEFC3940A40141216749055
:1007B0000127121677900126E0FF90012DE080239B
:1007C000900128E0FF900139E0FD12167B9001278F
:1007D000E0FF900138E0FD12167B900126E0FF90CB
:1007E000012DE0FD12167B900125E0FF90012CE029
:0407F000FD12167B65
:0107F40022E2
:100F1E00AD0790013BE05430F0EFB407005057900E
:100F2E000F34F8282873020F49020F50020F59028E
:100F3E000F62020F6B020F74020F7D90013BE0F007
:100F4E00803490013BE04440F0802B90013BE04424
:100F5E00C0F0802290013BE044C8F0801990013B24
:100F6E00E044CCF0801090013BE044CEF08007903E
:100F7E00013BE044CFF090012AE0FF90013BE0FD01
:030F8E0002167BCD
:100F9100AD0790013AE05480F0900139E4F0ED247E
:100FA100FE60171460242402702E90013AE044047C
:100FB100F0900139E04440F0801E90013AE0440293
:100FC100F0900139E04420F0800E90013AE04406AF
:100FD100F0900139E04460F0900129E0FF90013A7E
:100FE100E0FD12167B900128E0FF900139E0FD023F
:020FF100167B6D
:1015670090013AE054F7F0300F04E04408F090019E
:0B15770029E0FF90013AE0FD02167B26
:1015820090012BE054EFF0300F04E04410F0900192
:0B15920024E0FF90012BE0FD02167B1F
:10159D0090012BE054DFF0301D04E04420F0900169
:0B15AD0024E0FF90012BE0FD02167B04
:1015B80090012BE054BFF0300F04E04440F090015C
:0B15C80024E0FF90012BE0FD02167BE9
:1015D30090012BE0547FF0300F04E04480F0900141
:0B15E30024E0FF90012BE0FD02167BCE
:1015EE0090012CE054F7F0300F04E04408F0900125
:0B15FE0025E0FF90012CE0FD02167BB1
:1016090090013BE054DFF0300F04E04420F09001FA
:0B1619002AE0FF90013BE0FD02167B81
:1016240090013AE054EFF0300F04E04410F09001E0
:0B16340029E0FF90013AE0FD02167B68
:10163F0090013BE054EFF0300F04E04410F09001C4
:0B164F002AE0FF90013BE0FD02167B4B
:10059700C19BC11A4101590041015800410157004F
:0C05A70041015A5041015B00C119C1180C
:1008E4002006030209CF90015BE024FE602A146015
:1008F4005A14700302097C1470030209AF24FC70BB
:10090400030209B424FC70030209B9240C60030235
:1009140009C31211E10209BC9000F57464F090015E
:100924005BE0B402159000F5E0D39400400CE014B1
:10093400F07F0A7E0012147A80E49000F5E07003E0
:10094400120B99201803121357806D9000F77464EA
:10095400F090015BE0B403159000F7E0D3940040FD
:100964000CE014F07F0A7E0012147A80E49000F701
:10097400E0704C120AB580479000F67464F0900160
:100984005BE0B404159000F6E0D39400400CE0144E
:10099400F07F0A7E0012147A80E49000F6E070037F
:1009A4001216A3201903120EA8800D121215800826
:1009B40012138080031213A77F327E0012147A3040
:0B09C4000405D20F121567D20CC2060A
:0109CF002205
:10138000900159E0FFC202C2CC0FD3EF6480948673
:1013900040027F06900159EFF0121097900159E03A
:0713A000FF120F1E020DA554
:1013A700900159E0FFC202C2CC1FC3EF6480948052
:1013B7005002E4FF900159EFF0121097900159E0A5
:0713C700FF120F1E020DA52D
:1011E100900158E0C202C2CC2405FFD3648094E48C
:1011F10040027F64900158EFF0121514900158E0FD
:10120100FF1206FA900149E0FF120F91D20F121559
:04121100EE020DA537
:10121500900158E0C202C2CC24FBFFC364809480D5
:101225005002E4FF900158EFF0121514900158E0B8
:10123500FF1206FA900149E0FF120F91D20F121525
:04124500EE020DA503
:10135700C202C2CC900149E0B403057401F08006D3
:10136700900149E004F0900149E0FF120F91300429
:0913770005D20F121567020DA545
:100B9900E49000F8F090014DE09000F8F0C202C234
:100BA900CC7FF47E01020C4490015BE06402700387
:100BB900020C4A300E0890014DE0FF1206FAA20E0F
:100BC900B35028900128E0FFE4FD12167B9001271D
:100BD900E0FFE4FD12167B900126E0FFE4FD12160A
:100BE9007B900125E0FFE4FD12167B90015BE0B4E8
:100BF9000122C202C2CC9000F8E004F0E0D394C80C
:100C0900400374C8F09000F8E090014DF07F647ED5
:100C19000012147A90015BE06405708CC202C2CCA8
:100C29009000F8E014F0E0C3940250037401F090CE
:100C390000F8E090014DF07F647E0012147A020BF7
:100C4900B1D218900158E0FF1206FA900149E0FF6D
:100C5900120F91C20F1215B8D20F1215EE300405FA
:080C6900D20F121567020DA560
:100AB500E49000F8F090015AE09000F8F0C202C20C
:100AC500CC7FF47E01020B6C90015BE06403700344
:100AD500020B72300E0D90015AE0FF1206FAD20F8A
:100AE5001215B8A20EB3502D900128E0FFE4FD12B7
:100AF500167B900127E0FFE4FD12167B900126E0AE
:100B0500FFE4FD12167B900125E0FFE4FD12167B44
:100B1500D20F1215B890015BE0B40123C202C2CC1A
:100B25009000F8E02405F0E0D394C8400374C8F0C1
:100B35009000F8E090015AF07F647E0012147A90DC
:100B4500015BE064057081C202C2CC9000F8E0242C
:100B5500FBF0E0C3941450037414F09000F8E09097
:100B6500015AF07F647E0012147A020ACDD21890E1
:100B75000158E0FF1206FA900149E0FF120F91C2F9
:100B85000F1215B8D20F1215EE300405D20F12153B
:040B950067020DA541
:100EA800C202C2CC900157E004F0E0B4060374011A
:100EB800F01212AAC20F1215EED20F1215D390011A
:100EC80057E0FF1206FA900157E0FF1200267FF460
:100ED8007E0112147A1212AAC20F1215D3A21AB3E3
:100EE800920F121567A21A920F121582900158E0FC
:100EF800FF1206FA900149E0FF120F91D20F121566
:100F0800EE900159E0FF120F1EC208C20912112DFE
:060F18001210470214381C
:1016A300C202C2CCD219B21AA21A920F1215821216
:0516B300112D020DA540
:10130400D20F121609300517900159E0D39400400A
:101314000EA20D920F121624A20DB3920F8007D2C3
:0A1324000F121624C20F12163F220A
:0E16EF0030060890015BE07002FF227F0122AE
:1011A7003006369000F57464F090015BE07015909E
:1011B70000F5E0D39400400CE014F07F0A7E0012A3
:1011C700147A80E59000F5E0700F1212AAC204C2EB
:0911D7000F121567121743D21B19
:0111E00022EC
:1013F20068657265005448452076616C7565206F9A
:1014020066206E7463365F76616C20697320256492
:04141200200D0A009F
:0505B30042015F0000A1
:10112D00301A22300B0FD204D20F121567D205D20E
:10113D0008C2098019D209C204C20F121567C2056F
:10114D001217438009D204D20F121567D2059001F0
:0E115D0058E0FF121514900159E0FF021097A0
:1013CE0030080D30090AD205900159E0FF1210972E
:1013DE00300A107BFF7A1379F2120109C205121737
:0413EE0043C20A22CA
:0B171600C2A6C2A5C2A4C2C4C2C32266
:10145900A201E433FF90015FE07003A3E06F601025
:1014690012112DA201E4FF3390015FCFF0A3EFF039
:011479002250
:1010470030034C7B017A00790090014AE0FFA3E06E
:101057009000FDCFF0A3EFF07D79120E279000F8F6
:10106700EFF07BFF7A1379F79000FCE4F0A3EFF041
:1010770012010990015AE0FF9000F8E0FEC39F407B
:0F10870002D2A2EF14FFEEC39F5002C2A2C20317
:011096002237
:1014D8003D3D3D3D3D3D3D3D20636F64652073745A
:0F14E800617274203D3D3D3D3D3D3D3D0D0A008F
:1007F50043BA801214B912170A12168E1216CC12A9
:1008050017211216DFD288D2A8D2AFC2C2C2A3D294
:10081500CC121416C2851217437BFF7A1479D812AD
:100825000109E4FFFE1214F7EF6401605BEF640257
:100835006056EF64036051EF6404604CEF6405603B
:10084500479001577401F0900149F0D21A9001596F
:100855007403F09001587432F090015A7464F0906A
:10086500014D740FF01214389000F47401F09000EB
:10087500F4E0FFC394065010900157EFF0120DA558
:100885009000F4E004F080E67FE87E0312147A30ED
:100895001B0A1216EFEF24FF921B80F3C2A012175A
:1008A5001612165A12116BD20F1215EE300405D21C
:1008B5000F121567C202C2CC1208E41213041214F7
:1008C500591210471213CE1211A7301BEBC202C2E8
:0F08D500CCD2A6D2A5D2A4D2C4D2C3D2A080A91D
:100D25000207F5E493A3F8E493A34003F68001F2E8
:100D350008DFF48029E493A3F85407240CC8C333CF
:100D4500C4540F4420C8834004F456800146F6DF9E
:100D5500E4800B0102040810204080900403E47E27
:100D6500019360BCA3FF543F30E509541FFEE49393
:100D7500A360010ECF54C025E060A840B8E493A35A
:100D8500FAE493A3F8E493A3C8C582C8CAC583CA85
:100D9500F0A3C8C582C8CAC583CADFE9DEE780BE3D
:0105B8000042
:1005B900BB010689828A83E0225002E722BBFE0240
:0905C900E32289828A83E4932273
:1005D200BC000BBE0029EF8DF084FFADF022E4CC0D
:1005E200F875F008EF2FFFEE33FEEC33FCEE9DECD6
:1005F200984005FCEE9DFE0FD5F0E9E4CEFD22ED1C
:10060200F8F5F0EE8420D21CFEADF075F008EF2F65
:10061200FFED33FD4007985006D5F0F222C398FD56
:050622000FD5F0EA22F3
:10062700A3F8E0C5F025F0F0E58215827002158386
:06063700E0C838F0E822E3
:10063D00BB0110E58229F582E5833AF583E0F5F0FB
:10064D00A3E0225009E92582F886F008E622BBFED8
:10065D000AE92582F8E2F5F008E222E5832AF5831E
:08066D00E993F5F0A3E99322E3
:10009E00E50824FCF582E43400F583E0050822909F
:1000AE0000F93016039000FCE475F0011206B4025C
:1000BE0005B9200FE97F2ED20F8018EF540F249030
:1000CE00D43440D4FF30130BEF24BFB41A005003C6
:1000DE002461FFE50960021509050CE50C700205A7
:1000EE000B30160E9000F9E475F0011206B4EF0213
:1000FE0006A20217337403D2168003E4C216F50863
:10010E009000F91206CBE4F509F50BF50CE5096044
:10011E00077F201200E180F5750AFFC210C20FC2E0
:10012E0011C212C214C215C2171200ADFF700D30EB
:10013E0016057F001200F2AF0CAE0B22B4255FC283
:10014E00D5C2131200ADFF24D0B40A00501A75F0B8
:10015E000A780930D50508B6FF0106C6A426F62092
:10016E00D5047002D21280D924CFB41A00EF5004F5
:10017E00C2E5D2130202F3D21080C6D20F80C0D2D3
:10018E001180BCD2D580BAD21480B47F201200E187
:10019E002011077401B5090040F112009EFF1200F4
:1001AE00E102011BD217D215809512009EFB1200A0
:1001BE009EFA12009EF94A4B700679C47A037BFFB1
:1001CE0020112EE509602A7E008E827583001206AC
:1001DE007560060EEE650A70F0C2D5EBC0E0EAC09F
:1001EE00E0E9C0E0EE12033AD0E0F9D0E0FAD0E058
:1001FE00FB1205B9FF60AAEBC0E0EAC0E0E9C0E07F
:10020E001200E1D0E02401F9D0E03400FAD0E0FB96
:10021E00E50A0460DCD50AD980877BFF7A0379363C
:10022E00D211809C791080027908C215C2178008FD
:10023E00D2D5790A8004790AC2D5E50A047002F58E
:10024E000AE4FAFDFEFF12009EFC7B08201013123A
:10025E00009EFD7B10300F0A12009EFE12009EFFC4
:10026E007B20EC3382D592D55013C3E4300F069F1A
:10027E00FFE49EFEE42010039DFDE49CFCE4CBF81D
:10028E00C210EC700CCFCECDCCE824F8F870F38011
:10029E0017C3EF33FFEE33FEED33FDEC33FCEB33E0
:1002AE00FB994002FB0FD8E9EB301005F8D0E0C403
:1002BE0048B210C0E00AEC4D4E4F78207B0070C261
:1002CE00EAB50A0040BCC0E012033CD0F0D0E020FA
:1002DE001004C4C0E0C4B210C0F01200CAD0F0D5F1
:1002EE00F0EB02011B1206D401B8530232580189F9
:1002FE004C01854202364F023E44023E49019E4366
:08030E000244550228460228B2
:100316004502284703E450018D2D01912E01B42B8F
:1003260001952301B22003CD2A014D48000001ACFE
:100336003F3F3F00790AA2D5201214301409B910A4
:10034600020404B9080104A2D520150250010420B4
:1003560011689211B509005034C0E07F203012199F
:100366007F30A21172157214500F120393C211C27C
:1003760015C214C2177F30800F301403E9C0E01293
:1003860000E1301403D0E0F9D0E0B509CC30141701
:100396007F30B9100C1200E17F583013077F788048
:1003A60003B908031200E13011057F2D0200E17F39
:1003B600202017F87F2B2015F322921180CF286E6C
:1003C600756C6C2900D21012009E3010F8C210789D
:1003D6000930D50108F602014D2D50434958120047
:1003E6009E2403B405004001E49003DF931200D27B
:0D03F600743A1200D2D212750904020232CC
:10067500BB010CE58229F582E5833AF583E022503A
:1006850006E92582F8E622BBFE06E92582F8E22284
:0D069500E58229F582E5833AF583E493229E
:1006A200BB010689828A83F0225002F722BBFE0137
:0206B200F32231
:1006B400F8E0FBA3A3E0F925F0F0E58215827002CF
:0706C4001583E0FA38F02273
:0906CB00EBF0A3EAF0A3E9F02230
:1006D400D083D082F8E4937012740193700DA3A3B5
:1006E40093F8740193F5828883E4737402936860C9
:0606F400EFA3A3A380DFC9
:00000001FF
