:03000000020E1CD1
:0C0E1C00787FE4F6D8FD758123020E6398
:0C18AF00759D60E4F5BDF5BE75BCA0227F
:1014D400E4FDFC53BCF8EF1444A842BCE5BC30E482
:1014E400FB53BCEFAFBEAD07AFBDEF75F004A4FF77
:0814F400E5F0FCED4FAE04FF32
:0114FC0022CD
:10162000D3EF9400EE9400401600000075080B758F
:0F16300009BED509FDD508FAEF1F70E41E80E151
:01163F002288
:10185D00D3EF9400EE9400400A000000EF1F70F0EB
:04186D001E80ED22CA
:0D000E00E4F5C7F5C5F5C675C380F5C4223D
:10169C0075C78375C5018FC4EEF5C375C65A75C67B
:0D16AC00A57F0A7E00121620AFC202000EBC
:1016400075C78375C5028FC4EEF5C3AF058FC2752C
:0F165000C65A75C6A57F0A7E0012162002000E2C
:1016D60075C78375C5038FC4EEF5C375C65A75C63F
:0B16E600A57F0A7E0012162002000EF5
:1015DE00E49000F7F0A3F0FFFE1216D69000F7E0AD
:1015EE00FEA3E0FF900151E0FD121640C202C2CCF4
:0115FE0022CA
:100FB100900143E090014BF0A21AE433A3F09001B9
:100FC10053E090014DF0900152E090014EF09001FC
:100FD10054E090014FF0900147E0900150F09001F2
:100FE10051E075F002A47F00FE9000F9F0A3EFF04C
:100FF1001216D6E49000F8F09000F8E0FDC39406D4
:10100100502BA3E0FEA3E0FF744B2DF582E43401E5
:10101100F583E0FD1216409000FAE004F0700690AE
:1010210000F9E004F09000F8E004F080CBC202C2C5
:01103100CCF2
:01103200229B
:10130F00E4FFFE12169C900151EFF0120026A2048A
:10131F00920F12170CD20F121793A21A920F1217C5
:10132F0027900152E0FF120927900143E0FF120CB2
:0C133F00C1900153E0FF1211AC0212D16A
:10002600EF75F002A49000F8F0A3E4F09000F7F06A
:100036009000F8E0FEA3E0FF12169C9000F7E02483
:100046004BF582E43401F583EFF09000F9E004F01B
:1000560070069000F8E004F09000F7E004F0E0C3CA
:10006600940640CC90014BE0900143F090014CE0A7
:1000760024FF921AA3E0900153F090014EE0900104
:1000860052F090014FE0900154F0900150E0900141
:0200960047F031
:010098002245
:10165F00759420E4F593759280F59175967FF595C5
:0F166F00F5B2F5B175B41CF5B375CA10F5C92203
:10167E005448452076616C7565206F662061646301
:0E168E005F76616C206973202564200D0A00D0
:1004030060F20000011A0123012C0135013E01476E
:100413000151015A0164016E01770181018B01943D
:10042300019E01A801B201BC01C601CF01D901E3BC
:1004330001ED01F60200020A0213021D0226022F39
:1004430002380242024B0254025C0265026E0276DB
:10045300027F0287028F0297029F02A702AF02B6B2
:1004630002BE02C502CC02D302DA02E102E702EEC7
:1004730002F402FB03010307030D03120318031D18
:1004830003230328032D03320337033C03410345AE
:10049300034A034E03520356035A035E0362036681
:1004A300036A036D037103740378037B037E038183
:1004B30003840387038A038D038F039203950397B2
:1004C3000399039C039E03A003A303A503A703A906
:1004D30003AB03AD03AF03B103B203B403B603B875
:1004E30003B903BB03BC03BE03BF03C103C203C4FD
:0604F30003C503C603C7A8
:0E10B5009000F7EBF0A3EAF0A3E9F0A3EDF052
:1010C300E49000FEF09000FDF09000FAE014FF9031
:1010D30000FDE0FEC39F50559000F7E0FBA3E0FA4C
:1010E300A3E0F975F002EEA4F58285F083120646BB
:1010F300FF9000FBE0FCA3E0FDC39FEC95F04025CF
:10110300A3E02401FFE433FEEF25E0FFEE33FE8F7F
:10111300828E83120646FFC3ED9FEC95F050069036
:1011230000FDE0A3F09000FDE004F0809C9000FE41
:02113300E0FFDB
:011135002297
:050F2E0090015EEFF0F0
:100F3300900160740AF0E4A3F0A3F090015FF090D5
:100F43000160E0FF90015FE0C39F501C90015EE0F1
:100F5300FF1214D4900162E02FF0900161E03EF0A3
:100F630090015FE004F080D7900161E0FEA3E0FF11
:100F7300900160E0FD7C001205DBA3EEF0A3EFF02F
:100F83007BFF7A16797E9000FAEEF0A3EFF0120160
:100F9300097B017A007900900161E0FFA3E09000F2
:0D0FA300FBCFF0A3EFF07D791210B57E00BA
:010FB000221E
:1015BC0075F10890FFF2740BF090FFF07410F0A32B
:1015CC00E4F090FF30F0A3F0A3F0A3740AF0A3E4CE
:0215DC00F022FB
:1016F1009000F7EEF0A3EFF01200069000F7E0FF84
:0B170100A3E090FF32CFF0A3EFF02236
:0400060075F58822E2
:0618E800E4F5F5D2A32295
:1012830030054AEFB407005044901293F8282873AE
:101293000212A80212AB0212B10212B70212BD026D
:1012A30012C30212C90218E87FD07E07801C7F6038
:1012B3007E0980167FF07E0A80107F807E0C800A74
:0E12C3007F107E0E80047FA07E0F1216F12297
:1004F900C10DC10EC107C182C18CC106C10BC18426
:10050900C100C185C101C108C109C10AC1034201B4
:100519004000004201440000410142004101430101
:10052900420148E4204101460041014A0141014795
:100539000541013700410138004101390041013AC3
:100549000041013B0041013C0041013D0042013EA7
:020559000000A0
:10187100538E7F5389F0758A9A758CF7C28DD28CFD
:03188100D2A922C7
:0A18C600538EBF53890F438910228F
:1018840053D1FDE4F5D575D4DC43D10843AF202210
:03000300021420C4
:10142000C0E0C083C082C0D075D000C006D2A2D2B6
:10143000A1D297900148E0FEA3E0F58BEEF58DD2A6
:1014400007D28ED2ABD006D0D0D082D083D0E032BB
:03000B00021033AD
:10103300C0E0C0F0C083C082C0D075D000C000C083
:1010430001C002C003C004C005C006C0077F071269
:1010530014D4900140EEF0A3EFF07F061214D49065
:101063000144EEF0A3EFF0900140E0FEA3E0FFC3E4
:1010730094F4EE9401500EA3E004F0E0B46406E4AB
:10108300F0C20BC201D3EF9420EE94034009900108
:1010930042E4F0D20BD201D007D006D005D004D061
:1010A30003D002D001D000D0D0D082D083D0F0D0F2
:0210B300E03229
:03001B00020EA82A
:100EA800C0E0C0F0C083C082C0D0300764300461A5
:100EB800900143E014B40700504D900ED075F00334
:100EC800A4C58325F0C58373020EE5020EED020E5C
:100ED800F1020EF5020EFD020F01020F09C297D2B0
:100EE800A1D2A28022D2978006D297800EC297C242
:100EF800A1D2A28012D297800AC297D2A1C2A280A0
:100F080006C297C2A1C2A2C207758BF7758DFF8072
:100F18000AD2A2D2A1D297C28EC2ABD0D0D082D0F0
:060F280083D0F0D0E0329E
:03009B00020B064F
:0F0B0600C0E0C0F0C083C082C0D075D000C0076F
:100B150030083330093090013FE004F07006900151
:100B25003EE004F0900147E075F064A4FF90013EBB
:100B3500E0B5F012A3E0B5070D90013EE4F0A3F097
:100B4500C208C209D20AA2098208400790013EE400
:100B5500F0A3F090013CE004F0E0D3940F4004B220
:100B65000DE4F090013DE004F0E0D394324004B28E
:100B75000EE4F0900139E004F0E0D39405400AE476
:100B8500F0E580540F900155F030191090013AE0CE
:100B950004F0E0D394964004C219E4F030180E90A6
:100BA500013BE004F0E0D394964002E4F020021209
:100BB500900137E004F0E0D3940A4006E4F0D20255
:100BC500D2CC300C12900138E004F0E0D3940A4006
:070BD50006D206C20CE4F099
:0D0BDC00D007D0D0D082D083D0F0D0E0324E
:1016B900300404D2AB8002C2ABEF75F040A4242001
:0D16C900FEE5F034E4900148F0A3CEF022DD
:10183300759850438E01438E0475D7E875D6FF43E0
:051843008E10D2AC2262
:030023000218A21E
:0D18A200309904C299C21C309802C29832DD
:0818D000201CFDD21C8F99229F
:1013ED00900163EBF0A3EAF0A3E9F0900163E0FB59
:1013FD00A3E0FAA3E0F91205C26017900163A3E41C
:10140D0075F001120630A9F0FA1205C2FF1218D0BC
:03141D0080D92251
:0818D8008F993099FDC299229D
:10055B0041012600410127004101280041013300E0
:10056B0041013400410135004101360047011FC3F1
:10057B00C6C7CACBCECF4A0129F505D39727B6F606
:03058B0015F7B7AA
:1017FF00D2B6D2C1D2B7E4FF12147ED2B67F441252
:0A180F00147ED2B61214500218E045
:10145000E49000F7F09000F7E0FFC39407501E748B
:101460001F2FF582E43401F583E0FF12147EE4FFC0
:0D14700012147ED2B69000F7E004F080D890
:01147D00224C
:0818E0007F9312147ED2B622A0
:07181900900123E0FFE4FD54
:101820009000F9EDF012147E9000F9E0FF12147EA2
:03183000D2B6220B
:05147E009000FAEFF000
:101483007F327E0012185DC2B6E4FFC2C19000FA3B
:10149300E0FE1392B7D2C1EEC313F00FEFB408EB23
:0714A3007F327E0002185D9C
:060927009000F8EFF0F96A
:10092D00E0FF75F06484FDEF75F00A8475F00A84BC
:10093D00AFF0E975F00A84AEF0900134E4F0900167
:10094D0033E4F0900128E4F0900127E4F0900134B5
:10095D00E0FC74292DF582E43401F583E0FBC454E9
:10096D000FFAEC4A900134F0900133E04BF0900116
:10097D0028E0FD74292FF582E43401F583E0FFEDC5
:10098D004F900128F0900127E0FF74292EF582E4A5
:10099D003401F583E0FEEF4E900127F0E9C3940A90
:1009AD00501A9000F8E0C3940040111218199001EC
:1009BD002212181C900121E0FFE480479000F8E01E
:1009CD00FFC39464501AEFC3940A4014121819907F
:1009DD00012212181C900121E0FF900128E08023D4
:1009ED00900123E0FF900134E0FD121820900122C8
:1009FD00E0FF900133E0FD121820900121E0FF90FF
:100A0D000128E0FD121820900120E0FF900127E061
:040A1D00FD1218208E
:010A210022B2
:1011AC00AD07900136E05430F0EFB4070050579083
:1011BC0011C2F82828730211D70211DE0211E702BE
:1011CC0011F00211F902120202120B900136E0F03A
:1011DC008034900136E04440F0802B900136E0449E
:1011EC00C0F08022900136E044C8F080199001369E
:1011FC00E044CCF08010900136E044CEF0800790B3
:10120C000136E044CFF0900125E0FF900136E0FD7F
:03121C0002182095
:100CC100AD07900135E05480F0900134E4F0ED146B
:100CD100B407004003020D6A900CE775F003A4C548
:100CE1008325F0C58373020CFC020D0C020D1C025E
:100CF1000D2C020D3C020D4C020D5C900135E044BF
:100D010004F0900134E04440F0805E900135E0440D
:100D110002F0900134E04420F0804E900135E0442F
:100D210001F0900134E04410F0803E900135E04440
:100D310006F0900134E04460F0802E900135E044EB
:100D410003F0900134E04430F0801E900135E0441E
:100D510005F0900134E04450F0800E900135E044FC
:100D610007F0900134E04470F0900124E0FF90011D
:100D710035E0FD121820900123E0FF900134E0FDE1
:030D810002182035
:10170C00900135E054F7F0300F04E04408F09001FC
:0B171C0024E0FF900135E0FD021820E2
:10172700900126E054EFF0300F04E04410F09001F0
:0B1737001FE0FF900126E0FD021820DB
:10174200900126E054DFF0300F04E04420F09001D5
:0B1752001FE0FF900126E0FD021820C0
:10175D00900126E054BFF0300F04E04440F09001BA
:0B176D001FE0FF900126E0FD021820A5
:10177800900126E0547FF0300F04E04480F090019F
:0B1788001FE0FF900126E0FD0218208A
:10179300900127E054F7F0300F04E04408F0900183
:0B17A30020E0FF900127E0FD0218206D
:1017AE00900136E054DFF0300F04E04420F0900159
:0B17BE0025E0FF900136E0FD0218203E
:1017C900900135E054EFF0300F04E04410F090013F
:0B17D90024E0FF900135E0FD02182025
:1017E400900136E054EFF0300F04E04410F0900123
:0B17F40025E0FF900136E0FD02182008
:10058E00C19BC11A4101530041015200410151006A
:0C059E004101545041015500C119C11821
:10082300200603020926900155E024FE602A146085
:100833005B1470030208D314700302090624FC70CE
:100843000302090B24FC7003020910240C60030249
:10085300091A1213850209139000F37464F09001CE
:1008630055E0B402159000F3E0D39400400CE0147B
:10087300F07F0A7E0012162080E49000F3E07003FC
:10088300120A222018031214FD0209139000F574B2
:1008930001F0A3742CF0900155E0B40324D390002D
:1008A300F6E094009000F5E094004015A3E024FFE7
:1008B300F09000F5E034FFF07F0A7E0012162080EE
:1008C300D59000F5E07002A3E0704C120BE980476D
:1008D3009000F47464F0900155E0B404159000F4B2
:1008E300E0D39400400CE014F07F0A7E001216203F
:1008F30080E49000F4E070031218482019031211E9
:1009030036800D1213B98008121526800312154D77
:100913007F327E00121620300405D20F12170CD23C
:030923000CC206FD
:0109260022AE
:10152600900153E0FFC202C2CC0FD3EF64809486D1
:1015360040027F06900153EFF0121283900153E0B0
:07154600FF1211AC020FB10E
:10154D00900153E0FFC202C2CC1FC3EF64809480B0
:10155D005002E4FF900153EFF0121283900153E01B
:07156D00FF1211AC020FB1E7
:10138500900152E0C202C2CC2405FFD3648094E4EC
:1013950040027F64900152EFF01216B9900152E0BD
:1013A500FF120927900143E0FF120CC1D20F12175B
:0413B50093020FB1DF
:1013B900900152E0C202C2CC24FBFFC36480948036
:1013C9005002E4FF900152EFF01216B9900152E079
:1013D900FF120927900143E0FF120CC1D20F121727
:0413E90093020FB1AB
:1014FD00C202C2CC900143E0B407057401F080062E
:10150D00900143E004F0900143E0FF120CC1300460
:09151D0005D20F12170C020FB1E8
:100BE900E49000F7F0900147E09000F7F0C202C2EC
:100BF900CC7FF47E01020C94900155E064037003EC
:100C0900020C9A300E08900147E0FF120927A20E44
:100C1900B35028900123E0FFE4FD1218209001222F
:100C2900E0FFE4FD121820900121E0FFE4FD121815
:100C390020900120E0FFE4FD121820900155E0B456
:100C49000122C202C2CC9000F7E004F0E0D394C8BC
:100C5900400374C8F09000F7E0900147F07F647E8C
:100C690000121620900155E06405708CC202C2CCB6
:100C79009000F7E014F0E0C3940250037401F0907F
:100C890000F7E0900147F07F647E00121620020C05
:100C990001D218900152E0FF120927900143E0FFA9
:100CA900120CC1C20F12175DD20F1217933004052F
:080CB900D20F12170C020FB15B
:100A2200E49000F7F0900154E09000F7F0C202C2A7
:100A3200CC7FF47E01020AD9900155E06402700372
:100A4200020ADF300E0D900154E0FF120927D20F87
:100A520012175DA20EB3502D900123E0FFE4FD12A8
:100A62001820900122E0FFE4FD121820900121E0FD
:100A7200FFE4FD121820900120E0FFE4FD1218208F
:100A8200D20F12175D900155E0B40123C202C2CC0D
:100A92009000F7E02405F0E0D394C8400374C8F056
:100AA2009000F7E0900154F07F647E0012162090CF
:100AB2000155E064057081C202C2CC9000F7E024C7
:100AC200FBF0E0C3943250037432F09000F7E090F0
:100AD2000154F07F647E00121620020A3AD2189066
:100AE2000152E0FF120927900143E0FF120CC1C23C
:100AF2000F12175DD20F121793300405D20F12177F
:040B02000C020FB121
:10113600C202C2CC900151E004F0E0B4060374018F
:10114600F0121450C20F121793D20F121778900193
:1011560051E0FF120927900151E0FF1200267FF4AB
:101166007E01121620121450C20F121778A21AB35B
:10117600920F12170CA21A920F121727900152E023
:10118600FF120927900143E0FF120CC1D20F12177C
:1011960093900153E0FF1211ACC208C2091212D19A
:0611A600120D840215DEAB
:10184800C202C2CCD219B21AA21A920F12172712C8
:0518580012D1020FB1E6
:1014AA00D20F1217AE300517900153E0D3940040C3
:1014BA000EA20D920F1217C9A20DB3920F8007D276
:0A14CA000F1217C9C20F1217E42217
:0E189400300608900155E07002FF227F01220D
:10134B003006369000F37464F0900155E070159000
:10135B0000F3E0D39400400CE014F07F0A7E0012FF
:10136B00162080E59000F3E0700F121450C204C2F7
:09137B000F12170C1218E8D21B26
:011384002246
:1015980068657265005448452076616C7565206FF2
:1015A80066206E7463365F76616C206973202564EB
:0415B800200D0A00F8
:1005AA00420156000041015800420159000042012F
:0705BA005B000041015D0040
:1012D100301A22300B0FD204D20F12170CD205D2C2
:1012E10008C2098019D209C204C20F12170CC20523
:1012F1001218E88009D204D20F12170CD2059001FE
:0E13010052E0FF1216B9900153E0FF02128372
:1015740030080D30090AD205900153E0FF1212839E
:10158400300A107BFF7A157998120109C2051218E6
:04159400E8C20A227D
:0B18BB00C2A6C2A5C2A4C2C4C2C322C0
:1015FF00A201E433FF900156E07003A3E06F601087
:10160F001212D1A201E4FF33900156CFF0A3EFF0F5
:01161F0022A8
:100D8400900144E0FEA3E0FF90015AE02FF09001AF
:100D940059E03EF0900158E004F0E0B40A1BFD7CF9
:100DA40000A3E0FEA3E0FF1205DBA3EEF0A3EFF047
:100DB400E4900158F0A3F0A3F07B017A007900904D
:100DC400015BE0FFA3E09000FBCFF0A3EFF07D799F
:100DD4001210B590015DEFF07BFF7A15799D9000BC
:100DE400FAE4F0A3EFF0120109900154E0FF90013E
:100DF4005DE0C39F400BD20F121742D285A20E9220
:100E0400CC900154E0FF90015DE0C39F5009C20FF4
:070E1400121742C285D2CC87
:010E1B0022B4
:10121F003D3D3D3D3D3D3D3D20636F646520737415
:10122F00617274203D3D3D3D3D3D3D3D0D0A0054F5
:10123F0068652076616C7565206F662070776D5FCD
:10124F006164635F76616C206973202564200D0AE9
:10125F00005468652076616C7565206F66206E742A
:10126F0063365F6164635F76616C20697320256408
:04127F00200D0A0034
:1007030043BA8012165F1218AF12183312187112FF
:1007130018C6121884D288D2A8D2AFC2C2C2A3D23A
:10072300CC1215BCC2851218E87BFF7A12791F120E
:100733000109E4FFFE12169CEF6401605BEF6402A3
:100743006056EF64036051EF6404604CEF6405602E
:10075300479001517401F0900143F0D21A90015374
:100763007403F09001527432F09001547464F09069
:100773000147740FF01215DE9000F27401F090003F
:10078300F2E0FFC394065010900151EFF0120FB145
:100793009000F2E004F080E67FE87E03121620303A
:1007A3001B0A121894EF24FF921B80F3C2A01218A5
:1007B300BB1217FF12130FD20F121793300405D277
:1007C3000F12170CC202C2CC1208231214AA12155C
:1007D300FF120D847BFF7A12793E900140E0FFA364
:1007E300E09000FACFF0A3EFF01201097BFF7A1239
:1007F3007960900144E0FFA3E09000FACFF0A3EF0B
:10080300F012010912157412134B301BBBC202C242
:10081300CCD2A6D2A5D2A4D2C4D2C3D2A002079B63
:100E2800020703E493A3F8E493A34003F68001F2D6
:100E380008DFF48029E493A3F85407240CC8C333CB
:100E4800C4540F4420C8834004F456800146F6DF9A
:100E5800E4800B0102040810204080900403E47E23
:100E6800019360BCA3FF543F30E509541FFEE4938F
:100E7800A360010ECF54C025E060A840B8E493A356
:100E8800FAE493A3F8E493A3C8C582C8CAC583CA81
:100E9800F0A3C8C582C8CAC583CADFE9DEE780BE39
:0105C1000039
:1005C200BB010689828A83E0225002E722BBFE0237
:0905D200E32289828A83E493226A
:1005DB00BC000BBE0029EF8DF084FFADF022E4CC04
:1005EB00F875F008EF2FFFEE33FEEC33FCEE9DECCD
:1005FB00984005FCEE9DFE0FD5F0E9E4CEFD22ED13
:10060B00F8F5F0EE8420D21CFEADF075F008EF2F5C
:10061B00FFED33FD4007985006D5F0F222C398FD4D
:05062B000FD5F0EA22EA
:10063000A3F8E0C5F025F0F0E5821582700215837D
:06064000E0C838F0E822DA
:10064600BB0110E58229F582E5833AF583E0F5F0F2
:10065600A3E0225009E92582F886F008E622BBFECF
:100666000AE92582F8E2F5F008E222E5832AF58315
:08067600E993F5F0A3E99322DA
:10009E00E50824FAF582E43400F583E005082290A1
:1000AE0000F73016039000FAE475F0011206BD0257
:1000BE0005C2200FE97F2ED20F8018EF540F249027
:1000CE00D43440D4FF30130BEF24BFB41A005003C6
:1000DE002461FFE50960021509050CE50C700205A7
:1000EE000B30160E9000F7E475F0011206BDEF020C
:1000FE0006AB0218D87403D2168003E4C216F508B4
:10010E009000F71206D4E4F509F50BF50CE509603D
:10011E00077F201200E180F5750AFFC210C20FC2E0
:10012E0011C212C214C215C2171200ADFF700D30EB
:10013E0016057F001200F2AF0CAE0B22B4255FC283
:10014E00D5C2131200ADFF24D0B40A00501A75F0B8
:10015E000A780930D50508B6FF0106C6A426F62092
:10016E00D5047002D21280D924CFB41A00EF5004F5
:10017E00C2E5D2130202F3D21080C6D20F80C0D2D3
:10018E001180BCD2D580BAD21480B47F201200E187
:10019E002011077401B5090040F112009EFF1200F4
:1001AE00E102011BD217D215809512009EFB1200A0
:1001BE009EFA12009EF94A4B700679C47A037BFFB1
:1001CE0020112EE509602A7E008E827583001206AC
:1001DE007E60060EEE650A70F0C2D5EBC0E0EAC096
:1001EE00E0E9C0E0EE12033AD0E0F9D0E0FAD0E058
:1001FE00FB1205C2FF60AAEBC0E0EAC0E0E9C0E076
:10020E001200E1D0E02401F9D0E03400FAD0E0FB96
:10021E00E50A0460DCD50AD980877BFF7A0379363C
:10022E00D211809C791080027908C215C2178008FD
:10023E00D2D5790A8004790AC2D5E50A047002F58E
:10024E000AE4FAFDFEFF12009EFC7B08201013123A
:10025E00009EFD7B10300F0A12009EFE12009EFFC4
:10026E007B20EC3382D592D55013C3E4300F069F1A
:10027E00FFE49EFEE42010039DFDE49CFCE4CBF81D
:10028E00C210EC700CCFCECDCCE824F8F870F38011
:10029E0017C3EF33FFEE33FEED33FDEC33FCEB33E0
:1002AE00FB994002FB0FD8E9EB301005F8D0E0C403
:1002BE0048B210C0E00AEC4D4E4F78207B0070C261
:1002CE00EAB50A0040BCC0E012033CD0F0D0E020FA
:1002DE001004C4C0E0C4B210C0F01200CAD0F0D5F1
:1002EE00F0EB02011B1206DD01B8530232580189F0
:1002FE004C01854202364F023E44023E49019E4366
:08030E000244550228460228B2
:100316004502284703E450018D2D01912E01B42B8F
:1003260001952301B22003CD2A014D48000001ACFE
:100336003F3F3F00790AA2D5201214301409B910A4
:10034600020404B9080104A2D520150250010420B4
:1003560011689211B509005034C0E07F203012199F
:100366007F30A21172157214500F120393C211C27C
:1003760015C214C2177F30800F301403E9C0E01293
:1003860000E1301403D0E0F9D0E0B509CC30141701
:100396007F30B9100C1200E17F583013077F788048
:1003A60003B908031200E13011057F2D0200E17F39
:1003B600202017F87F2B2015F322921180CF286E6C
:1003C600756C6C2900D21012009E3010F8C210789D
:1003D6000930D50108F602014D2D50434958120047
:1003E6009E2403B405004001E49003DF931200D27B
:0D03F600743A1200D2D212750904020232CC
:10067E00BB010CE58229F582E5833AF583E0225031
:10068E0006E92582F8E622BBFE06E92582F8E2227B
:0D069E00E58229F582E5833AF583E4932295
:1006AB00BB010689828A83F0225002F722BBFE012E
:0206BB00F32228
:1006BD00F8E0FBA3A3E0F925F0F0E58215827002C6
:0706CD001583E0FA38F0226A
:0906D400EBF0A3EAF0A3E9F02227
:1006DD00D083D082F8E4937012740193700DA3A3AC
:1006ED0093F8740193F5828883E4737402936860C0
:0606FD00EFA3A3A380DFC0
:00000001FF
