:03000000020D9658
:0C0D9600787FE4F6D8FD758123020DDDA6
:0C17E400759D60E4F5BDF5BE75BCA0224B
:1013EA00E4FDFC53BCF8EF1444A842BCE5BC30E46D
:1013FA00FB53BCEFAFBEAD07AFBDEF75F004A4FF62
:08140A00E5F0FCED4FAE04FF1C
:0114120022B7
:10153600D3EF9400EE9400401600000075080B757A
:0F15460009BED509FDD508FAEF1F70E41E80E13C
:011555002273
:10179200D3EF9400EE9400400A000000EF1F70F0B7
:0417A2001E80ED2296
:0D000E00E4F5C7F5C5F5C675C380F5C4223D
:1015D10075C78375C5018FC4EEF5C375C65A75C647
:0D15E100A57F0A7E00121536AFC202000E73
:1015560075C78375C5028FC4EEF5C3AF058FC27517
:0F156600C65A75C6A57F0A7E0012153602000E02
:10160B0075C78375C5038FC4EEF5C375C65A75C60A
:0B161B00A57F0A7E0012153602000EAB
:1014F400E49000F5F0A3F0FFFE12160B9000F5E067
:10150400FEA3E0FF90014FE0FD121556C202C2CCCB
:0115140022B4
:100F2B00900141E0900149F0A21AE433A3F0900143
:100F3B0051E090014BF0900150E090014CF090018A
:100F4B0052E090014DF0900145E090014EF0900180
:100F5B004FE075F002A47F00FE9000F7F0A3EFF0D6
:100F6B0012160BE49000F6F09000F6E0FDC3940629
:100F7B00502BA3E0FEA3E0FF74492DF582E434016E
:100F8B00F583E0FD1215569000F8E004F070069022
:100F9B0000F7E004F09000F6E004F080CBC202C250
:010FAB00CC79
:010FAC002222
:10122500E4FFFE1215D190014FEFF0120026A20443
:10123500920F121641D20F1216C8A21A920F121649
:101245005C900150E0FF120703900141E0FF120B93
:0C1255008B900151E0FF1211260211E7FE
:10002600EF75F002A49000F6F0A3E4F09000F5F06E
:100036009000F6E0FEA3E0FF1215D19000F5E02453
:1000460049F582E43401F583EFF09000F7E004F01F
:1000560070069000F6E004F09000F5E004F0E0C3CE
:10006600940640CC900149E0900141F090014AE0AD
:1000760024FF921AA3E0900151F090014CE0900108
:1000860050F090014DE0900152F090014EE0900149
:0200960045F033
:010098002245
:10157500759420E4F593759280F59175967FF595B0
:0F158500F5B2F5B175B41CF5B375CA10F5C922EE
:1015B3005448452076616C7565206F6620616463CD
:0E15C3005F76616C206973202564200D0A009C
:1004030060F20000011A0123012C0135013E01476E
:100413000151015A0164016E01770181018B01943D
:10042300019E01A801B201BC01C601CF01D901E3BC
:1004330001ED01F60200020A0213021D0226022F39
:1004430002380242024B0254025C0265026E0276DB
:10045300027F0287028F0297029F02A702AF02B6B2
:1004630002BE02C502CC02D302DA02E102E702EEC7
:1004730002F402FB03010307030D03120318031D18
:1004830003230328032D03320337033C03410345AE
:10049300034A034E03520356035A035E0362036681
:1004A300036A036D037103740378037B037E038183
:1004B30003840387038A038D038F039203950397B2
:1004C3000399039C039E03A003A303A503A703A906
:1004D30003AB03AD03AF03B103B203B403B603B875
:1004E30003B903BB03BC03BE03BF03C103C203C4FD
:0604F30003C503C603C7A8
:0E102F009000F5EBF0A3EAF0A3E9F0A3EDF0DA
:10103D00E49000FCF09000FBF09000F8E014FF90BD
:10104D0000FBE0FEC39F50559000F5E0FBA3E0FAD6
:10105D00A3E0F975F002EEA4F58285F08312064641
:10106D00FF9000F9E0FCA3E0FDC39FEC95F0402557
:10107D00A3E02401FFE433FEEF25E0FFEE33FE8F06
:10108D00828E83120646FFC3ED9FEC95F0500690BD
:10109D0000FBE0A3F09000FBE004F0809C9000FCCE
:0210AD00E0FF62
:0110AF00221E
:050EA80090015CEFF079
:100EAD0090015E740AF0E4A3F0A3F090015DF09060
:100EBD00015EE0FF90015DE0C39F501C90015CE07E
:100ECD00FF1213EA900160E02FF090015FE03EF019
:100EDD0090015DE004F080D790015FE0FEA3E0FF9C
:100EED0090015EE0FD7C001205DBA3EEF0A3EFF0B8
:100EFD007BFF7A1579B39000F8EEF0A3EFF01201B5
:100F0D00097B017A00790090015FE0FFA3E090007A
:0D0F1D00F9CFF0A3EFF07D7912102F7E00C8
:010F2A0022A4
:1014D20075F10890FFF2740BF090FFF07410F0A316
:1014E200E4F090FF30F0A3F0A3F0A3740AF0A3E4B9
:0214F200F022E6
:101626009000F5EEF0A3EFF01200069000F5E0FF53
:0B163600A3E090FF32CFF0A3EFF02202
:0400060075F58822E2
:06181D00E4F5F5D2A32260
:1011990030054AEFB4070050449011A9F828287384
:1011A9000211BE0211C10211C70211CD0211D302EF
:1011B90011D90211DF02181D7FD07E07801C7F60C4
:1011C9007E0980167FF07E0A80107F807E0C800A5F
:0E11D9007F107E0E80047FA07E0F121626224D
:1004F900C10DC10EC107C182C18CC106C10BC18426
:10050900C100C185C101C108C109C10AC1034201B4
:100519003E00004201420000410140004101410109
:10052900420146E42041014400410148014101459D
:1005390005410135004101360041013700410138CB
:10054900004101390041013A0041013B0042013CAF
:020559000000A0
:1017A600538E7F5389F0758A9A758CF7C28DD28CC9
:0317B600D2A92293
:0A17FB00538EBF53890F438910225B
:1017B90053D1FDE4F5D575D4DC43D10843AF2022DC
:03000300021336AF
:10133600C0E0C083C082C0D075D000C006D2A2D2A1
:10134600A1D297900146E0FEA3E0F58BEEF58DD293
:1013560007D28ED2ABD006D0D0D082D083D0E032A6
:03000B00020FAD34
:100FAD00C0E0C0F0C083C082C0D075D000C000C00A
:100FBD0001C002C003C004C005C006C0077F0712F0
:100FCD0013EA90013EEEF0A3EFF07F061213EA90C4
:100FDD000142EEF0A3EFF090013EE0FEA3E0FFC36F
:100FED0094F4EE9401500EA3E004F0E0B46406E432
:100FFD00F0C20BC201D3EF9420EE9403400990018F
:10100D0040E4F0D20BD201D007D006D005D004D0E9
:10101D0003D002D001D000D0D0D082D083D0F0D078
:02102D00E032AF
:03001B00020E22B0
:100E2200C0E0C0F0C083C082C0D03007643004612B
:100E3200900141E014B40700504D900E4A75F00342
:100E4200A4C58325F0C58373020E5F020E67020EEE
:100E52006B020E6F020E77020E7B020E83C297D2D6
:100E6200A1D2A28022D2978006D297800EC297C2C8
:100E7200A1D2A28012D297800AC297D2A1C2A28026
:100E820006C297C2A1C2A2C207758BF7758DFF80F9
:100E92000AD2A2D2A1D297C28EC2ABD0D0D082D077
:060EA20083D0F0D0E03225
:03009B000208EA6E
:0F08EA00C0E0C0F0C083C082C0D075D000C0078E
:1008F90030083330093090013DE004F07006900172
:100909003CE004F0900145E075F064A4FF90013CDF
:10091900E0B5F012A3E0B5070D90013CE4F0A3F0B7
:10092900C208C209D20AA2098208400790013CE420
:10093900F0A3F090013AE004F0E0D3940F4004B240
:100949000DE4F090013BE004F0E0D394324004B2AE
:100959000EE4F0900137E004F0E0D39405400AE496
:10096900F0E580540F900153F0301910900138E0F0
:1009790004F0E0D394964004C219E4F030181090C2
:100989000139E004F0E0D394964004C218E4F02061
:100999000212900135E004F0E0D3940A4006E4F035
:1009A900D202D2CC300C12900136E004F0E0D3949C
:0909B9000A4006D206C20CE4F06B
:0D09C200D007D0D0D082D083D0F0D0E0326A
:1015EE00300404D2AB8002C2ABEF75F040A42420CD
:0D15FE00FEE5F034E4900146F0A3CEF022AB
:10176800759850438E01438E0475D7E875D6FF43AC
:051778008E10D2AC222E
:030023000217D7EA
:0D17D700309904C299C21C309802C29832A9
:08180500201CFDD21C8F99226A
:10130300900161EBF0A3EAF0A3E9F0900161E0FB47
:10131300A3E0FAA3E0F91205C26017900161A3E408
:1013230075F001120630A9F0FA1205C2FF12180572
:0313330080D9223C
:08180D008F993099FDC2992268
:10055B0041012400410125004101260041013100E8
:10056B0041013200410133004101340047011DC3F9
:10057B00C6C7CACBCECF4A0127F505D39727B6F608
:03058B0015F7B7AA
:10173400D2B6D2C1D2B7E4FF121394D2B67F441208
:0A1744001394D2B6121366021815B2
:10136600E49000F5F09000F5E0FFC39407501E747A
:101376001D2FF582E43401F583E0FF121394E4FF98
:0D138600121394D2B69000F5E004F080D868
:011393002237
:081815007F93121394D2B62256
:07174E00900121E0FFE4FD22
:101755009000F7EDF01213949000F7E0FF12139448
:03176500D2B622D7
:051394009000F8EFF0ED
:101399007F327E00121792C2B6E4FFC2C19000F8F4
:1013A900E0FE1392B7D2C1EEC313F00FEFB408EB0E
:0713B9007F327E0002179253
:060703009000F6EFF0F992
:10070900E0FF75F06484FDEF75F00A8475F00A84E2
:10071900AFF0E975F00A84AEF0900132E4F090018F
:1007290031E4F0900126E4F0900125E4F0900132E3
:10073900E0FC74272DF582E43401F583E0FBC45411
:100749000FFAEC4A900132F0900131E04BF0900140
:1007590026E0FD74272FF582E43401F583E0FFEDEF
:100769004F900126F0900125E0FF74272EF582E4D1
:100779003401F583E0FEEF4E900125F0E9C3940AB8
:10078900501A9000F6E0C39400401112174E9001E0
:100799002012175190011FE0FFE480479000F6E016
:1007A900FFC39464501AEFC3940A401412174E9071
:1007B900012012175190011FE0FF900126E08023CC
:1007C900900121E0FF900132E0FD121755900120C0
:1007D900E0FF900131E0FD12175590011FE0FF90F5
:1007E9000126E0FD12175590011EE0FF900125E05A
:0407F900FD12175581
:0107FD0022D9
:10112600AD07900134E05430F0EFB407005057900B
:10113600113CF8282873021151021158021161025C
:10114600116A02117302117C021185900134E0F0DC
:101156008034900134E04440F0802B900134E04428
:10116600C0F08022900134E044C8F0801990013428
:10117600E044CCF08010900134E044CEF08007903B
:101186000134E044CFF0900123E0FF900134E0FD0C
:03119600021755E8
:100B8B00AD07900133E05480F0900132E4F0ED14A6
:100B9B00B407004003020C34900BB175F003A4C5ED
:100BAB008325F0C58373020BC6020BD6020BE6023C
:100BBB000BF6020C06020C16020C26900133E044D5
:100BCB0004F0900132E04440F0805E900133E04449
:100BDB0002F0900132E04420F0804E900133E0446B
:100BEB0001F0900132E04410F0803E900133E0447C
:100BFB0006F0900132E04460F0802E900133E04427
:100C0B0003F0900132E04430F0801E900133E04459
:100C1B0005F0900132E04450F0800E900133E04437
:100C2B0007F0900132E04470F0900122E0FF900158
:100C3B0033E0FD121755900121E0FF900132E0FDEA
:030C4B0002175538
:10164100900133E054F7F0300F04E04408F09001CA
:0B16510022E0FF900133E0FD0217557E
:10165C00900124E054EFF0300F04E04410F09001BE
:0B166C001DE0FF900124E0FD02175577
:10167700900124E054DFF0300F04E04420F09001A3
:0B1687001DE0FF900124E0FD0217555C
:10169200900124E054BFF0300F04E04440F0900188
:0B16A2001DE0FF900124E0FD02175541
:1016AD00900124E0547FF0300F04E04480F090016D
:0B16BD001DE0FF900124E0FD02175526
:1016C800900125E054F7F0300F04E04408F0900151
:0B16D8001EE0FF900125E0FD02175509
:1016E300900134E054DFF0300F04E04420F0900127
:0B16F30023E0FF900134E0FD021755DA
:1016FE00900133E054EFF0300F04E04410F090010D
:0B170E0022E0FF900133E0FD021755C0
:10171900900134E054EFF0300F04E04410F09001F0
:0B17290023E0FF900134E0FD021755A3
:10058E00C19BC11A410151004101500041014F0070
:0C059E004101525041015300C119C11825
:100C4E00200603020CFD900153E024FE601B24FEDF
:100C5E00604A14607A24FC607B24FC607C240C6067
:100C6E0003020CF112129B80739000F37464F090E7
:100C7E000153E0B402159000F3E0D39400400CE071
:100C8E0014F07F0A7E0012153680E49000F3E070B7
:100C9E0003120AB320180312141380409000F47448
:100CAE0064F0900153E0B404159000F4E0D3940086
:100CBE00400CE014F07F0A7E0012153680E490009E
:100CCE00F4E0700312177D2019031210B0800D127C
:100CDE0012CF800812143C80031214637F327E0000
:0F0CEE00121536300405D20F121641D20CC20671
:010CFD0022D4
:10143C00900151E0FFC202C2CC0FD3EF64809486BE
:10144C0040027F06900151EFF0121199900151E08A
:07145C00FF121126020F2B05
:10146300900151E0FFC202C2CC1FC3EF648094809D
:101473005002E4FF900151EFF0121199900151E0F5
:07148300FF121126020F2BDE
:10129B00900150E0C202C2CC2405FFD3648094E4D9
:1012AB0040027F64900150EFF01215EE900150E078
:1012BB00FF120703900141E0FF120B8BD20F1216A6
:0412CB00C8020F2B1B
:1012CF00900150E0C202C2CC24FBFFC36480948023
:1012DF005002E4FF900150EFF01215EE900150E034
:1012EF00FF120703900141E0FF120B8BD20F121672
:0412FF00C8020F2BE7
:10141300C202C2CC900141E0B407057401F080061A
:10142300900141E004F0900141E0FF120B8B300486
:0914330005D20F121641020F2B25
:100AB300E49000F5F0900145E09000F5F0C202C229
:100AC300CC7FF47E01020B5E900153E0640270035D
:100AD300020B64300E08900145E0FF120703A20EDB
:100AE300B35028900121E0FFE4FD12175590012037
:100AF300E0FFE4FD12175590011FE0FFE4FD12171C
:100B03005590011EE0FFE4FD121755900153E0B428
:100B13000122C202C2CC9000F5E004F0E0D394C8F5
:100B2300400374C8F09000F5E0900145F07F647EC7
:100B330000121536900153E06405708CC202C2CCDA
:100B43009000F5E014F0E0C3940250037401F090B8
:100B530000F5E0900145F07F647E00121536020A2D
:100B6300CBD218900150E0FF120703900141E0FF40
:100B7300120B8BC20F121692D20F1216C830040535
:080B8300D20F121641020F2BE4
:1009CF00E4900164F0900152E0900164F0C202C221
:1009DF00CC7FF47E01020A86900153E0640270031B
:1009EF00020A8C300E0D900152E0FF120703D20F56
:1009FF00121692A20EB3502D900121E0FFE4FD12CA
:100A0F001755900120E0FFE4FD12175590011FE0EC
:100A1F00FFE4FD12175590011EE0FFE4FD1217557C
:100A2F00D20F121692900153E0B40123C202C2CC2E
:100A3F00900164E02405F0E0D394C8400374C8F03B
:100A4F00900164E0900152F07F647E0012153690A1
:100A5F000153E064057081C202C2CC900164E024AE
:100A6F00FBF0E0C3943250037432F0900164E090D5
:100A7F000152F07F647E001215360209E7D21890FA
:100A8F000150E0FF120703900141E0FF120B8BC2F0
:100A9F000F121692D20F1216C8300405D20F12166B
:040AAF0041020F2BC6
:1010B000C202C2CC90014FE004F0E0B40603740118
:1010C000F0121366C20F1216C8D20F1216AD90019D
:1010D0004FE0FF12070390014FE0FF1200267FF45C
:1010E0007E01121536121366C20F1216ADA21AB384
:1010F000920F121641A21A920F12165C900150E044
:10110000FF120703900141E0FF120B8BD20F121662
:10111000C8900151E0FF121126C208C2091211E75E
:06112000120CFE0214F4A3
:10177D00C202C2CCD219B21AA21A920F12165C1260
:05178D0011E7020F2B23
:1013C000D20F1216E3300517900151E0D39400407C
:1013D0000EA20D920F1216FEA20DB3920F8007D22D
:0A13E0000F1216FEC20F1217192299
:0E17C900300608900153E07002FF227F0122DB
:101261003006369000F37464F0900153E0701590ED
:1012710000F3E0D39400400CE014F07F0A7E0012EA
:10128100153680E59000F3E0700F121366C204C2B8
:091291000F12164112181DD21BA8
:01129A002231
:1014AE0068657265005448452076616C7565206FDD
:1014BE0066206E7463365F76616C206973202564D6
:0414CE00200D0A00E3
:1005AA004201540000410156004201570000420135
:0705BA0059000041015B0044
:1011E700301A22300B0FD204D20F121641D205D279
:1011F70008C2098019D209C204C20F121641C205DA
:1012070012181D8009D204D20F121641D20590017F
:0E12170050E0FF1215EE900151E0FF02119918
:10148A0030080D30090AD205900151E0FF12119976
:10149A00300A107BFF7A1479AE120109C2051218BC
:0414AA001DC20A2233
:0B17F000C2A6C2A5C2A4C2C4C2C3228C
:10151500A201E433FF900154E07003A3E06F601073
:101525001211E7A201E4FF33900154CFF0A3EFF0CD
:011535002293
:100CFE00900142E0FEA3E0FF900158E02FF090013A
:100D0E0057E03EF0900156E004F0E0B40A1BFD7C83
:100D1E0000A3E0FEA3E0FF1205DBA3EEF0A3EFF0CD
:100D2E00E4900156F0A3F0A3F07B017A00790090D5
:100D3E000159E0FFA3E09000F9CFF0A3EFF07D7929
:100D4E0012102F90015BEFF07BFF7A1479B39000B5
:100D5E00F8E4F0A3EFF0120109900152E0FF9001C8
:100D6E005BE0C39F400BD20F121677D285A20E9274
:100D7E00CC900152E0FF90015BE0C39F5009C20F7F
:070D8E00121677C285D2CCDA
:010D9500223B
:101594003D3D3D3D3D3D3D3D20636F64652073749D
:0F15A400617274203D3D3D3D3D3D3D3D0D0A00D2
:1007FE0043BA801215751217E41217681217A61253
:10080E0017FB1217B9D288D2A8D2AFC2C2C2A3D2D6
:10081E00CC1214D2C28512181D7BFF7A1579941250
:10082E000109E4FFFE1215D1EF6401605BEF640273
:10083E006056EF64036051EF6404604CEF64056032
:10084E004790014F7401F0900141F0D21A9001517E
:10085E007403F09001507432F09001527464F09071
:10086E000145740FF01214F49000F27401F0900030
:10087E00F2E0FFC39406501090014FEFF0120F2BD1
:10088E009000F2E004F080E67FE87E031215363029
:10089E001B0A1217C9EF24FF921B80F3C2A0121776
:1008AE00F0121734121225D20F1216C8300405D2C8
:1008BE000F121641C202C2CC120C4E1213C01215E8
:1008CE001512148A121261301BEEC202C2CCD2A6CD
:0C08DE00D2A5D2A4D2C4D2C3D2A080AC58
:100DA2000207FEE493A3F8E493A34003F68001F262
:100DB20008DFF48029E493A3F85407240CC8C33352
:100DC200C4540F4420C8834004F456800146F6DF21
:100DD200E4800B0102040810204080900403E47EAA
:100DE200019360BCA3FF543F30E509541FFEE49316
:100DF200A360010ECF54C025E060A840B8E493A3DD
:100E0200FAE493A3F8E493A3C8C582C8CAC583CA07
:100E1200F0A3C8C582C8CAC583CADFE9DEE780BEBF
:0105C1000039
:1005C200BB010689828A83E0225002E722BBFE0237
:0905D200E32289828A83E493226A
:1005DB00BC000BBE0029EF8DF084FFADF022E4CC04
:1005EB00F875F008EF2FFFEE33FEEC33FCEE9DECCD
:1005FB00984005FCEE9DFE0FD5F0E9E4CEFD22ED13
:10060B00F8F5F0EE8420D21CFEADF075F008EF2F5C
:10061B00FFED33FD4007985006D5F0F222C398FD4D
:05062B000FD5F0EA22EA
:10063000A3F8E0C5F025F0F0E5821582700215837D
:06064000E0C838F0E822DA
:10064600BB0110E58229F582E5833AF583E0F5F0F2
:10065600A3E0225009E92582F886F008E622BBFECF
:100666000AE92582F8E2F5F008E222E5832AF58315
:08067600E993F5F0A3E99322DA
:10009E00E50824F8F582E43400F583E005082290A3
:1000AE0000F53016039000F8E475F0011206BD025B
:1000BE0005C2200FE97F2ED20F8018EF540F249027
:1000CE00D43440D4FF30130BEF24BFB41A005003C6
:1000DE002461FFE50960021509050CE50C700205A7
:1000EE000B30160E9000F5E475F0011206BDEF020E
:1000FE0006AB02180D7403D2168003E4C216F5087F
:10010E009000F51206D4E4F509F50BF50CE509603F
:10011E00077F201200E180F5750AFFC210C20FC2E0
:10012E0011C212C214C215C2171200ADFF700D30EB
:10013E0016057F001200F2AF0CAE0B22B4255FC283
:10014E00D5C2131200ADFF24D0B40A00501A75F0B8
:10015E000A780930D50508B6FF0106C6A426F62092
:10016E00D5047002D21280D924CFB41A00EF5004F5
:10017E00C2E5D2130202F3D21080C6D20F80C0D2D3
:10018E001180BCD2D580BAD21480B47F201200E187
:10019E002011077401B5090040F112009EFF1200F4
:1001AE00E102011BD217D215809512009EFB1200A0
:1001BE009EFA12009EF94A4B700679C47A037BFFB1
:1001CE0020112EE509602A7E008E827583001206AC
:1001DE007E60060EEE650A70F0C2D5EBC0E0EAC096
:1001EE00E0E9C0E0EE12033AD0E0F9D0E0FAD0E058
:1001FE00FB1205C2FF60AAEBC0E0EAC0E0E9C0E076
:10020E001200E1D0E02401F9D0E03400FAD0E0FB96
:10021E00E50A0460DCD50AD980877BFF7A0379363C
:10022E00D211809C791080027908C215C2178008FD
:10023E00D2D5790A8004790AC2D5E50A047002F58E
:10024E000AE4FAFDFEFF12009EFC7B08201013123A
:10025E00009EFD7B10300F0A12009EFE12009EFFC4
:10026E007B20EC3382D592D55013C3E4300F069F1A
:10027E00FFE49EFEE42010039DFDE49CFCE4CBF81D
:10028E00C210EC700CCFCECDCCE824F8F870F38011
:10029E0017C3EF33FFEE33FEED33FDEC33FCEB33E0
:1002AE00FB994002FB0FD8E9EB301005F8D0E0C403
:1002BE0048B210C0E00AEC4D4E4F78207B0070C261
:1002CE00EAB50A0040BCC0E012033CD0F0D0E020FA
:1002DE001004C4C0E0C4B210C0F01200CAD0F0D5F1
:1002EE00F0EB02011B1206DD01B8530232580189F0
:1002FE004C01854202364F023E44023E49019E4366
:08030E000244550228460228B2
:100316004502284703E450018D2D01912E01B42B8F
:1003260001952301B22003CD2A014D48000001ACFE
:100336003F3F3F00790AA2D5201214301409B910A4
:10034600020404B9080104A2D520150250010420B4
:1003560011689211B509005034C0E07F203012199F
:100366007F30A21172157214500F120393C211C27C
:1003760015C214C2177F30800F301403E9C0E01293
:1003860000E1301403D0E0F9D0E0B509CC30141701
:100396007F30B9100C1200E17F583013077F788048
:1003A60003B908031200E13011057F2D0200E17F39
:1003B600202017F87F2B2015F322921180CF286E6C
:1003C600756C6C2900D21012009E3010F8C210789D
:1003D6000930D50108F602014D2D50434958120047
:1003E6009E2403B405004001E49003DF931200D27B
:0D03F600743A1200D2D212750904020232CC
:10067E00BB010CE58229F582E5833AF583E0225031
:10068E0006E92582F8E622BBFE06E92582F8E2227B
:0D069E00E58229F582E5833AF583E4932295
:1006AB00BB010689828A83F0225002F722BBFE012E
:0206BB00F32228
:1006BD00F8E0FBA3A3E0F925F0F0E58215827002C6
:0706CD001583E0FA38F0226A
:0906D400EBF0A3EAF0A3E9F02227
:1006DD00D083D082F8E4937012740193700DA3A3AC
:1006ED0093F8740193F5828883E4737402936860C0
:0606FD00EFA3A3A380DFC0
:00000001FF
