:03000000020BED03
:0C0BED00787FE4F6D8FD758123020C34FB
:0C15AA00759D27E4F5BDF5BE75BCA022C0
:10127A00E4FDFCEF1444A842BCE5BC30E4FB53BCDB
:10128A00EFAFBEAD07AFBDEF75F004A4FFE5F0FC0C
:05129A00ED4FAE04FF62
:01129F00222C
:10132800D3EF9400EE9400401600000075080B758A
:0F13380009BED509FDD508FAEF1F70E41E80E14C
:011347002283
:10156600D3EF9400EE9400400A000000EF1F70F0E5
:041576001E80ED22C4
:0D000E00E4F5C7F5C5F5C675C380F5C4223D
:1013A50075C78375C5018FC4EEF5C375C65A75C675
:0D13B500A57F0A7E00121328AFC202000EB1
:1013480075C78375C5028FC4EEF5C3AF058FC27527
:0F135800C65A75C6A57F0A7E0012132802000E22
:1013DF0075C78375C5038FC4EEF5C375C65A75C639
:0B13EF00A57F0A7E0012132802000EEA
:1012E600E49000F5F0A3F0FFFE1213DF9000F5E0A6
:1012F600FEA3E0FF900144E0FD121348C201C2CCF8
:0113060022C4
:100D800090013CE090013FF0A218E433A3F0900101
:100D900046E0900141F0900145E0900142F0900161
:100DA00047E0900143F0900144E075F002A47F0019
:100DB000FE9000F7F0A3EFF01213DFE49000F6F0DE
:100DC0009000F6E0FDC39405502BA3E0FEA3E0FFE6
:100DD000743F2DF582E43401F583E0FD1213489051
:100DE00000F8E004F070069000F7E004F09000F6E0
:090DF000E004F080CBC201C2CC8A
:010DF90022D7
:100FD900E4FFFE1213A5900144EFF0120EE2A20203
:100FE900920D121415D20D12149CA218920D1214FE
:100FF90030900145E0FF1206D390013CE0FF120A50
:0C1009007A900146E0FF120026020F9BC7
:100EE200EF75F002A49000F6F0A3E4F09000F5F0A4
:100EF2009000F6E0FEA3E0FF1213A59000F5E024B7
:100F02003FF582E43401F583EFF09000F7E004F05E
:100F120070069000F6E004F09000F5E004F0E0C303
:100F2200940540CC90013FE090013CF0900140E0FC
:100F320024FF9218A3E0900146F0900142E0900154
:0A0F420045F0900143E0900147F0F4
:010F4C002282
:10136700759420E4F593759280F59175967FF595C0
:0F137700F5B2F5B175B41CF5B375CA10F5C922FE
:1004030060F20000011A0123012C0135013E01476E
:100413000151015A0164016E01770181018B01943D
:10042300019E01A801B201BC01C601CF01D901E3BC
:1004330001ED01F60200020A0213021D0226022F39
:1004430002380242024B0254025C0265026E0276DB
:10045300027F0287028F0297029F02A702AF02B6B2
:1004630002BE02C502CC02D302DA02E102E702EEC7
:1004730002F402FB03010307030D03120318031D18
:1004830003230328032D03320337033C03410345AE
:10049300034A034E03520356035A035E0362036681
:1004A300036A036D037103740378037B037E038183
:1004B30003840387038A038D038F039203950397B2
:1004C3000399039C039E03A003A303A503A703A906
:1004D30003AB03AD03AF03B103B203B403B603B875
:1004E30003B903BB03BC03BE03BF03C103C203C4FD
:0604F30003C503C603C7A8
:0E0CFF009000FAEBF0A3EAF0A3E9F0A3EDF009
:100D0D00E4900101F0900100F09000FDE014FF90DF
:100D1D000100E0FEC39F50559000FAE0FBA3E0FAFE
:100D2D00A3E0F975F002EEA4F58285F083120616A4
:100D3D00FF9000FEE0FCA3E0FDC39FEC95F0402585
:100D4D00A3E02401FFE433FEEF25E0FFEE33FE8F39
:100D5D00828E83120616FFC3ED9FEC95F050069020
:100D6D000100E0A3F0900100E004F0809C900101EF
:020D7D00E0FF95
:010D7F002251
:050E70009000F5EFF019
:100E75009000F7740AF0E4A3F0A3F09000F6F09068
:100E850000F7E0FF9000F6E0C39F501C9000F5E0EE
:100E9500FF12127A9000F9E02FF09000F8E03EF092
:100EA5009000F6E004F080D79000F8E0FEA3E0FFA4
:100EB5009000F7E0FD7C001205ABA3EEF0A3EFF088
:100EC5007B017A0079009000F8E0FFA3E09000FE36
:0C0ED500CFF0A3EFF07D79120CFF7E003F
:010EE10022EE
:1012C40075F10890FFF2740BF090FFF07410F0A326
:1012D400E4F090FF30F0A3F0A3F0A3740AF0A3E4C9
:0212E400F022F6
:1013FA009000F5EEF0A3EFF012001E9000F5E0FF6A
:0B140A00A3E090FF32CFF0A3EFF02230
:04001E0075F58822CA
:0615E300E4F5F5D2A3229D
:100F4D0030034AEFB407005044900F5DF828287322
:100F5D00020F72020F75020F7B020F81020F8702C3
:100F6D000F8D020F930215E37FD07E07801C7F60EB
:100F7D007E0980167FF07E0A80107F807E0C800AAD
:0E0F8D007F107E0E80047FA07E0F1213FA22CA
:1004F900C10BC10CC105C181C18AC104C109C18235
:10050900C183C100C106C107C10841013C014201C3
:100519003DE42041013300410134004101350041EE
:1005290001360041013700410138004101390042DB
:04053900013A000083
:10157A00438E805389F0758CCD758AD4C28DD28CF6
:03158A00D2A922C1
:0A15C100538EBF53890F4389102297
:10158D0053D1FDE4F5D575D4DC43D10843AF20220A
:03000300021120C7
:10112000C0E0C083C082C0D075D000C006D2A2D2B9
:10113000A1D29790013DE0FEA3E0F58BEEF58DD2B4
:1011400005D28ED2ABD006D0D0D082D083D0E032C0
:03000B00020022CE
:0100220032AB
:03001B00020C795B
:100C7900C0E0C0F0C083C082C0D0300564300261DA
:100C890090013CE014B40700504D900CA175F0039D
:100C9900A4C58325F0C58373020CB6020CBE020CF1
:100CA900C2020CC6020CCE020CD2020CDAC297D2D6
:100CB900A1D2A28022D2978006D297800EC297C273
:100CC900A1D2A28012D297800AC297D2A1C2A280D1
:100CD90006C297C2A1C2A2C205758BF7758DFF80A6
:100CE9000AD2A2D2A1D297C28EC2ABD0D0D082D022
:060CF90083D0F0D0E032D0
:03009B0002099BBC
:08099B00C0E0C083C082C0D09F
:1009A30030062A30072790013BE004F070069001DF
:1009B3003AE004F090013AE0B42E12A3E0B4E00D63
:1009C30090013AE4F0A3F0C206C207D208A207825C
:1009D30006400790013AE4F0A3F0900138E004F0F8
:1009E300E0D3940F4004B20BE4F0900139E004F03B
:1009F300E0D394324004B20CE4F0900135E004F00B
:100A0300E0D39405400AE4F0E580540F900148F0E8
:100A1300301710900136E004F0E0D394964004C2FE
:100A230017E4F0301610900137E004F0E0D3949609
:100A33004004C216E4F0200112900133E004F0E018
:100A4300D3940A4006E4F0D201D2CC300A129001CA
:100A530034E004F0E0D3940A4006D204C20AE4F07E
:0E0A6300208704D209D200308704C209C200E5
:090A7100D0D0D082D083D0E03255
:1013C200300204D2AB8002C2ABEF75F040A42420FD
:0D13D200FEE5F034E490013DF0A3CEF022E2
:10153C00759850438E01438E0475D7E875D6FF43DA
:05154C008E10D2AC225C
:0300230002159D26
:0D159D00309904C299C21A309802C29832E7
:0815CB00201AFDD21A8F9922AB
:1010ED00900149EBF0A3EAF0A3E9F0900149E0FB90
:1010FD00A3E0FAA3E0F91205926017900149A3E469
:10110D0075F001120600A9F0FA120592FF1215CB27
:03111D0080D92254
:0815D3008F993099FDC29922A5
:10053D0041012200410123004101240041012F000E
:10054D0041013000410131004101320047011BC31F
:10055D00C6C7CACBCECF4A0125F505D39727B6F628
:03056D0015F7B7C8
:10150800D2B6D2C1D2B7E4FF1211ADD2B67F44121F
:0A15180011ADD2B612117F0215DBEF
:10117F00E49000F5F09000F5E0FFC39407501E7463
:10118F001B2FF582E43401F583E0FF1211ADE4FF6C
:0D119F001211ADD2B69000F5E004F080D83A
:0111AC002220
:0815DB007F931211ADD2B6227C
:0715220090011FE0FFE4FD52
:101529009000F7EDF01211AD9000F7E0FF1211AD48
:03153900D2B62205
:0511AD009000F8EFF0D6
:1011B2007F327E00121566C2B6E4FFC2C19000F80B
:1011C200E0FE1392B7D2C1EEC313F00FEFB408EBF7
:0711D2007F327E000215666A
:0606D3009000F6EFF0F9C3
:1006D900E0FF75F06484FDEF75F00A8475F00A8413
:1006E900AFF0E975F00A84AEF0900130E4F09001C2
:1006F9002FE4F0900124E4F0900123E4F09001301C
:10070900E0FC74252DF582E43401F583E0FBC45443
:100719000FFAEC4A900130F090012FE04BF0900174
:1007290024E0FD74252FF582E43401F583E0FFED23
:100739004F900124F0900123E0FF74252EF582E407
:100749003401F583E0FEEF4E900123F0E9C3940AEA
:10075900501A9000F6E0C39400401112152290013E
:100769001E12152590011DE0FFE480479000F6E078
:10077900FFC39464501AEFC3940A401412152290CF
:10078900011E12152590011DE0FF900124E0802330
:1007990090011FE0FF900130E0FD12152990011E24
:1007A900E0FF90012FE0FD12152990011DE0FF9057
:1007B9000124E0FD12152990011CE0FF900123E0BE
:0407C900FD121529DF
:0107CD002209
:10002600AD07900132E05430F0EFB407005057901E
:10003600003CF828287302005102005802006102B1
:10004600006A02007302007C020085900132E0F033
:100056008034900132E04440F0802B900132E0443D
:10006600C0F08022900132E044C8F080199001323D
:10007600E044CCF08010900132E044CEF08007904E
:100086000132E044CFF0900121E0FF900132E0FD23
:0300960002152927
:100A7A00AD07900131E05480F0900130E4F0ED14BC
:100A8A00B407004003020B23900AA075F003A4C523
:100A9A008325F0C58373020AB5020AC5020AD50284
:100AAA000AE5020AF5020B05020B15900131E04432
:100ABA0004F0900130E04440F0805E900131E0445F
:100ACA0002F0900130E04420F0804E900131E04481
:100ADA0001F0900130E04410F0803E900131E04492
:100AEA0006F0900130E04460F0802E900131E0443D
:100AFA0003F0900130E04430F0801E900131E04470
:100B0A0005F0900130E04450F0800E900131E0444D
:100B1A0007F0900130E04470F0900120E0FF90016E
:100B2A0031E0FD12152990011FE0FF900130E0FD30
:030B3A0002152978
:10141500900131E054F7F0300D04E04408F09001FC
:0B14250020E0FF900131E0FD021529DE
:10143000900122E054EFF0300D04E04410F09001F0
:0B1440001BE0FF900122E0FD021529D7
:10144B00900122E054DFF0300D04E04420F09001D5
:0B145B001BE0FF900122E0FD021529BC
:10146600900122E054BFF0300D04E04440F09001BA
:0B1476001BE0FF900122E0FD021529A1
:10148100900122E0547FF0300D04E04480F090019F
:0B1491001BE0FF900122E0FD02152986
:10149C00900123E054F7F0300D04E04408F0900183
:0B14AC001CE0FF900123E0FD02152969
:1014B700900132E054DFF0300D04E04420F0900159
:0B14C70021E0FF900132E0FD0215293A
:1014D200900131E054EFF0300D04E04410F090013F
:0B14E20020E0FF900131E0FD02152921
:1014ED00900132E054EFF0300D04E04410F0900123
:0B14FD0021E0FF900132E0FD02152904
:10057000C199C118410146004101450041014400B3
:0C0580004101475041014800C117C1165D
:100B3D00200403020BEC900148E024FE601B24FE10
:100B4D00604A14607A24FC607B24FC607C240C6079
:100B5D0003020BE012108580739000F37464F09023
:100B6D000148E0B402159000F3E0D39400400CE08E
:100B7D0014F07F0A7E0012132880E49000F3E070D9
:100B8D00031208B720160312120380409000F4746C
:100B9D0064F0900148E0B404159000F4E0D39400A3
:100BAD00400CE014F07F0A7E0012132880E49000C0
:100BBD00F4E07003121551201703120DFA800D1277
:100BCD0010B9800812122C80031212537F327E004E
:0F0BDD00121328300205D20D121415D20AC204C9
:010BEC0022E6
:10122C00900146E0FFC201C2CC0FD3EF64809486DC
:10123C0040027F06900146EFF0120F4D900146E000
:07124C00FF120026020D80D5
:10125300900146E0FFC201C2CC1FC3EF64809480BB
:101263005002E4FF900146EFF0120F4D900146E06B
:07127300FF120026020D80AE
:10108500900145E0C201C2CC2405FFD3648094E4FD
:1010950040027F64900145EFF01213C2900145E0D4
:1010A500FF1206D390013CE0FF120A7AD20D12140A
:0410B5009C020D800C
:1010B900900145E0C201C2CC24FBFFC36480948047
:1010C9005002E4FF900145EFF01213C2900145E090
:1010D900FF1206D390013CE0FF120A7AD20D1214D6
:0410E9009C020D80D8
:10120300C201C2CC90013CE0B407057401F0800632
:1012130090013CE004F090013CE0FF120A7A3002B6
:0912230005D20D121415020D8014
:1008B700E49000F5F0900147E09000F5F0C201C226
:1008C700CC7FF47E0102096E900148E06402700358
:1008D700020974300C0D900147E0FF1206D3D20DC8
:1008E700121466A20CB3502D90011FE0FFE4FD1215
:1008F700152990011EE0FFE4FD12152990011DE066
:10090700FFE4FD12152990011CE0FFE4FD121529F3
:10091700D20D121466900148E0B40123C201C2CC83
:100927009000F5E02405F0E0D394C8400374C8F0C4
:100937009000F5E0900147F07F647E001213289045
:100947000148E064057081C201C2CC9000F5E02443
:10095700FBF0E0C3943250037432F09000F5E0905E
:100967000147F07F647E001213280208CFD2169049
:100977000145E0FF1206D390013CE0FF120A7AC25C
:100987000D121466D20D12149C300205D20D1214EA
:0409970015020D80B8
:100DFA00C201C2CC900144E004F0E0B406037401DD
:100E0A00F012117FC20D12149CD20D12148190019E
:100E1A0044E0FF1206D3900144E0FF120EE27FF491
:100E2A007E0112132812117FC20D121481A218B367
:100E3A00920D121415A218920D121430900145E069
:100E4A00FF1206D390013CE0FF120A7AD20D121467
:100E5A009C900146E0FF120026C206C207120F9BB1
:060E6A0012104F0212E617
:10155100C201C2CCD217B218A218920D12143012C5
:051561000F9B020D804C
:1011D900D20D1214B7300317900146E0D3940040A2
:1011E9000EA20B920D1214D2A20BB3920D8007D24C
:0A11F9000D1214D2C20D1214ED22E3
:101150009000F37464F0300423900148E07015901F
:1011600000F3E0D39400400CE014F07F0A7E0012FC
:0E117000132880E59000F3E07002FF227F015B
:01117E00224E
:101015003004369000F37496F0900148E070159016
:1010250000F3E0D39400400CE014F07F0A7E001238
:10103500132880E59000F3E0700F12117FC202C201
:091045000D1214151215E3D21965
:01104E00227F
:05000600686572650051
:05058C0042014C0000DB
:100F9B0030182230090FD202D20D121415D203D2FF
:100FAB0006C2078019D207C202C20D121415C20362
:100FBB001215E38009D202D20D121415D20390013F
:0E0FCB0045E0FF1213C2900146E0FF020F4DF9
:1012A00030060D30070AD203900146E0FF120F4DC1
:1012B000300810C2037BFF7A00790612010912156B
:0412C000E3C208225B
:0B15B600C2A6C2A5C2A4C2C4C2C322C8
:10130700A200E433FF90014CE07003A3E06F60108C
:10131700120F9BA200E4FF3390014CCFF0A3EFF034
:0113270022A3
:10104F007F06120E7090014EEFF0900147E0FEEF19
:10105F00C39E400BD20D12144BD285A20C92CC9092
:10106F000147E0FF90014EE0C39F5009C20D1214DB
:05107F004BC285D2CC3C
:011084002249
:101386003D3D3D3D3D3D3D3D20636F6465207374AD
:0F139600617274203D3D3D3D3D3D3D3D0D0A00E2
:1007CE0043BA801213671215AA12153C12157A122B
:1007DE0015C112158DD288D2A8D2AFC2C2C2A3D271
:1007EE00CC1212C4C2851215E37BFF7A13798612DE
:1007FE000109E4FFFE1213A5EF64016055EF6402D8
:10080E006050EF6403604BEF64046046EF64056074
:10081E00419001447401F090013CF0D218900146D1
:10082E007403F09001457432F09001477464F01235
:10083E0012E69000F27401F09000F2E0FFC394060D
:10084E005010900144EFF0120D809000F2E004F091
:10085E0080E67FE87E0312132830190A121150EF3A
:10086E0024FF921980F3C2A01215B6121508120FAA
:10087E00D9D20D12149C300205D20D121415C201DC
:10088E00C2CC120B3D1211D912130712104F1212B5
:10089E00A01210153019EBC201C2CCD2A6D2A5D22D
:0908AE00A4D2C4D2C3D2A080A9D7
:100BF9000207CEE493A3F8E493A34003F68001F23D
:100C090008DFF48029E493A3F85407240CC8C333FC
:100C1900C4540F4420C8834004F456800146F6DFCB
:100C2900E4800B0102040810204080900403E47E54
:100C3900019360BCA3FF543F30E509541FFEE493C0
:100C4900A360010ECF54C025E060A840B8E493A387
:100C5900FAE493A3F8E493A3C8C582C8CAC583CAB2
:100C6900F0A3C8C582C8CAC583CADFE9DEE780BE6A
:010591000069
:10059200BB010689828A83E0225002E722BBFE0267
:0905A200E32289828A83E493229A
:1005AB00BC000BBE0029EF8DF084FFADF022E4CC34
:1005BB00F875F008EF2FFFEE33FEEC33FCEE9DECFD
:1005CB00984005FCEE9DFE0FD5F0E9E4CEFD22ED43
:1005DB00F8F5F0EE8420D21CFEADF075F008EF2F8D
:1005EB00FFED33FD4007985006D5F0F222C398FD7E
:0505FB000FD5F0EA221B
:10060000A3F8E0C5F025F0F0E582158270021583AD
:06061000E0C838F0E8220A
:10061600BB0110E58229F582E5833AF583E0F5F022
:10062600A3E0225009E92582F886F008E622BBFEFF
:100636000AE92582F8E2F5F008E222E5832AF58345
:08064600E993F5F0A3E993220A
:10009E00E50824F6F582E43400F583E005082290A5
:1000AE0000F33014039000F6E475F00112068D0291
:1000BE000592200DE97F2ED20D8018EF540F24905B
:1000CE00D43440D4FF30110BEF24BFB41A005003C8
:1000DE002461FFE50960021509050CE50C700205A7
:1000EE000B30140E9000F3E475F00112068DEF0242
:1000FE00067B0215D37403D2148003E4C214F508F0
:10010E009000F31206A4E4F509F50BF50CE5096071
:10011E00077F201200E180F5750AFFC20EC20DC2E4
:10012E000FC210C212C213C2151200ADFF700D30F5
:10013E0014057F001200F2AF0CAE0B22B4255FC285
:10014E00D5C2111200ADFF24D0B40A00501A75F0BA
:10015E000A780930D50508B6FF0106C6A426F62092
:10016E00D5047002D21080D924CFB41A00EF5004F7
:10017E00C2E5D2110202F3D20E80C6D20D80C0D2D9
:10018E000F80BCD2D580BAD21280B47F201200E18B
:10019E00200F077401B5090040F112009EFF1200F6
:1001AE00E102011BD215D213809512009EFB1200A4
:1001BE009EFA12009EF94A4B700679C47A037BFFB1
:1001CE00200F2EE509602A7E008E827583001206AE
:1001DE004E60060EEE650A70F0C2D5EBC0E0EAC0C6
:1001EE00E0E9C0E0EE12033AD0E0F9D0E0FAD0E058
:1001FE00FB120592FF60AAEBC0E0EAC0E0E9C0E0A6
:10020E001200E1D0E02401F9D0E03400FAD0E0FB96
:10021E00E50A0460DCD50AD980877BFF7A0379363C
:10022E00D20F809C791080027908C213C215800803
:10023E00D2D5790A8004790AC2D5E50A047002F58E
:10024E000AE4FAFDFEFF12009EFC7B08200E13123C
:10025E00009EFD7B10300D0A12009EFE12009EFFC6
:10026E007B20EC3382D592D55013C3E4300D069F1C
:10027E00FFE49EFEE4200E039DFDE49CFCE4CBF81F
:10028E00C20EEC700CCFCECDCCE824F8F870F38013
:10029E0017C3EF33FFEE33FEED33FDEC33FCEB33E0
:1002AE00FB994002FB0FD8E9EB300E05F8D0E0C405
:1002BE0048B20EC0E00AEC4D4E4F78207B0070C263
:1002CE00EAB50A0040BCC0E012033CD0F0D0E020FA
:1002DE000E04C4C0E0C4B20EC0F01200CAD0F0D5F5
:1002EE00F0EB02011B1206AD01B853023258018920
:1002FE004C01854202364F023E44023E49019E4366
:08030E000244550228460228B2
:100316004502284703E450018D2D01912E01B42B8F
:1003260001952301B22003CD2A014D48000001ACFE
:100336003F3F3F00790AA2D5201014301209B910A8
:10034600020404B9080104A2D520130250010420B6
:100356000F68920FB509005034C0E07F20301019A5
:100366007F30A20F72137212500F120393C20FC284
:1003760013C212C2157F30800F301203E9C0E0129B
:1003860000E1301203D0E0F9D0E0B509CC30121705
:100396007F30B9100C1200E17F583011077F78804A
:1003A60003B908031200E1300F057F2D0200E17F3B
:1003B600202015F87F2B2013F322920F80CF286E72
:1003C600756C6C2900D20E12009E300EF8C20E78A3
:1003D6000930D50108F602014D2D50434958120047
:1003E6009E2403B405004001E49003DF931200D27B
:0D03F600743A1200D2D210750904020232CE
:10064E00BB010CE58229F582E5833AF583E0225061
:10065E0006E92582F8E622BBFE06E92582F8E222AB
:0D066E00E58229F582E5833AF583E49322C5
:10067B00BB010689828A83F0225002F722BBFE015E
:02068B00F32258
:10068D00F8E0FBA3A3E0F925F0F0E58215827002F6
:07069D001583E0FA38F0229A
:0906A400EBF0A3EAF0A3E9F02257
:1006AD00D083D082F8E4937012740193700DA3A3DC
:1006BD0093F8740193F5828883E4737402936860F0
:0606CD00EFA3A3A380DFF0
:00000001FF
