:03000000020CCA25
:0C0CCA00787FE4F6D8FD758123020D113F
:0C171400759D60E4F5BDF5BE75BCA0221B
:1012FA00E4FDFC53BCF8EF1444A842BCE5BC30E45E
:10130A00FB53BCEFAFBEAD07AFBDEF75F004A4FF52
:08131A00E5F0FCED4FAE04FF0D
:0113220022A8
:10144600D3EF9400EE9400401600000075080B756B
:0F14560009BED509FDD508FAEF1F70E41E80E12D
:011465002264
:1016C200D3EF9400EE9400400A000000EF1F70F088
:0416D2001E80ED2267
:0D000E00E4F5C7F5C5F5C675C380F5C4223D
:1015010075C78375C5018FC4EEF5C375C65A75C617
:0D151100A57F0A7E00121446AFC202000E34
:1014860075C78375C5028FC4EEF5C3AF058FC275E8
:0F149600C65A75C6A57F0A7E0012144602000EC4
:10153B0075C78375C5038FC4EEF5C375C65A75C6DB
:0B154B00A57F0A7E0012144602000E6D
:10140400E49000F5F0A3F0FFFE12153B9000F5E028
:10141400FEA3E0FF90014FE0FD121486C202C2CC8D
:0114240022A5
:100DD900900141E0900149F0A21AE433A3F0900197
:100DE90051E090014BF0900150E090014CF09001DE
:100DF90052E090014DF0900145E090014EF09001D4
:100E09004FE075F002A47F00FE9000F7F0A3EFF029
:100E190012153BE49000F6F09000F6E0FDC394064D
:100E2900502BA3E0FEA3E0FF74492DF582E43401C1
:100E3900F583E0FD1214869000F8E004F070069046
:100E490000F7E004F09000F6E004F080CBC202C2A3
:010E5900CCCC
:010E5A002275
:10113500E4FFFE12150190014FEFF0120026A20404
:10114500920F121571D20F1215F8A21A920F1215DD
:101155008C900150E0FF120703900141E0FF12104F
:0C11650047900151E0FF120FD40210F778
:10002600EF75F002A49000F6F0A3E4F09000F5F06E
:100036009000F6E0FEA3E0FF1215019000F5E02423
:1000460049F582E43401F583EFF09000F7E004F01F
:1000560070069000F6E004F09000F5E004F0E0C3CE
:10006600940640CC900149E0900141F090014AE0AD
:1000760024FF921AA3E0900151F090014CE0900108
:1000860050F090014DE0900152F090014EE0900149
:0200960045F033
:010098002245
:1014A500759420E4F593759280F59175967FF59581
:0F14B500F5B2F5B175B41CF5B375CA10F5C922BF
:1014E3005448452076616C7565206F66206164639E
:0E14F3005F76616C206973202564200D0A006D
:1004030060F20000011A0123012C0135013E01476E
:100413000151015A0164016E01770181018B01943D
:10042300019E01A801B201BC01C601CF01D901E3BC
:1004330001ED01F60200020A0213021D0226022F39
:1004430002380242024B0254025C0265026E0276DB
:10045300027F0287028F0297029F02A702AF02B6B2
:1004630002BE02C502CC02D302DA02E102E702EEC7
:1004730002F402FB03010307030D03120318031D18
:1004830003230328032D03320337033C03410345AE
:10049300034A034E03520356035A035E0362036681
:1004A300036A036D037103740378037B037E038183
:1004B30003840387038A038D038F039203950397B2
:1004C3000399039C039E03A003A303A503A703A906
:1004D30003AB03AD03AF03B103B203B403B603B875
:1004E30003B903BB03BC03BE03BF03C103C203C4FD
:0604F30003C503C603C7A8
:0E0EDD009000F5EBF0A3EAF0A3E9F0A3EDF02E
:100EEB00E49000FCF09000FBF09000F8E014FF9011
:100EFB0000FBE0FEC39F50559000F5E0FBA3E0FA2A
:100F0B00A3E0F975F002EEA4F58285F08312064694
:100F1B00FF9000F9E0FCA3E0FDC39FEC95F04025AA
:100F2B00A3E02401FFE433FEEF25E0FFEE33FE8F59
:100F3B00828E83120646FFC3ED9FEC95F050069010
:100F4B0000FBE0A3F09000FBE004F0809C9000FC21
:020F5B00E0FFB5
:010F5D002271
:050D560090015CEFF0CC
:100D5B0090015E740AF0E4A3F0A3F090015DF090B3
:100D6B00015EE0FF90015DE0C39F501C90015CE0D1
:100D7B00FF1212FA900160E02FF090015FE03EF05D
:100D8B0090015DE004F080D790015FE0FEA3E0FFEF
:100D9B0090015EE0FD7C001205DBA3EEF0A3EFF00B
:100DAB007BFF7A1479E39000F8EEF0A3EFF01201D9
:100DBB00097B017A00790090015FE0FFA3E09000CE
:0D0DCB00F9CFF0A3EFF07D79120EDD7E0070
:010DD80022F8
:1013E20075F10890FFF2740BF090FFF07410F0A307
:1013F200E4F090FF30F0A3F0A3F0A3740AF0A3E4AA
:02140200F022D6
:101556009000F5EEF0A3EFF01200069000F5E0FF24
:0B156600A3E090FF32CFF0A3EFF022D3
:0400060075F58822E2
:06174D00E4F5F5D2A32231
:1010A90030054AEFB4070050449010B9F828287366
:1010B9000210CE0210D10210D70210DD0210E30295
:1010C90010E90210EF02174D7FD07E07801C7F6068
:1010D9007E0980167FF07E0A80107F807E0C800A50
:0E10E9007F107E0E80047FA07E0F121556220F
:1004F900C10DC10EC107C182C18CC106C10BC18426
:10050900C100C185C101C108C109C10AC1034201B4
:100519003E00004201420000410140004101410109
:10052900420146E42041014400410148014101459D
:1005390005410135004101360041013700410138CB
:10054900004101390041013A0041013B0042013CAF
:020559000000A0
:1016D600538E7F5389F0758A9A758CF7C28DD28C9A
:0316E600D2A92264
:0A172B00538EBF53890F438910222B
:1016E90053D1FDE4F5D575D4DC43D10843AF2022AD
:03000300021246A0
:10124600C0E0C083C082C0D075D000C006D2A2D292
:10125600A1D297900146E0FEA3E0F58BEEF58DD284
:1012660007D28ED2ABD006D0D0D082D083D0E03297
:03000B00020E5B87
:100E5B00C0E0C0F0C083C082C0D075D000C000C05D
:100E6B0001C002C003C004C005C006C0077F071243
:100E7B0012FA90013EEEF0A3EFF07F061212FA90F9
:100E8B000142EEF0A3EFF090013EE0FEA3E0FFC3C2
:100E9B0094F4EE9401500EA3E004F0E0B46406E485
:100EAB00F0C20BC201D3EF9420EE940340099001E2
:100EBB0040E4F0D20BD201D007D006D005D004D03D
:100ECB0003D002D001D000D0D0D082D083D0F0D0CC
:020EDB00E03203
:03001B0002146666
:1014660030071230040FC2A2C2A1C297C207758B01
:10147600F7758DFF32D2A2D2A1D297C28EC2AB32FD
:03009B000208EA6E
:0F08EA00C0E0C0F0C083C082C0D075D000C0078E
:1008F90030083330093090013DE004F07006900172
:100909003CE004F0900145E075F064A4FF90013CDF
:10091900E0B5F012A3E0B5070D90013CE4F0A3F0B7
:10092900C208C209D20AA2098208400790013CE420
:10093900F0A3F090013AE004F0E0D3940F4004B240
:100949000DE4F090013BE004F0E0D394324004B2AE
:100959000EE4F0900137E004F0E0D39403400AE498
:10096900F0E580540F900153F0301910900138E0F0
:1009790004F0E0D394964004C219E4F030181090C2
:100989000139E004F0E0D394964004C218E4F02061
:100999000212900135E004F0E0D3940A4006E4F035
:1009A900D202D2CC300C12900136E004F0E0D3949C
:0909B9000A4006D206C20CE4F06B
:0D09C200D007D0D0D082D083D0F0D0E0326A
:10151E00300404D2AB8002C2ABEF75F040A424209D
:0D152E00FEE5F034E4900146F0A3CEF0227B
:10169800759850438E01438E0475D7E875D6FF437D
:0516A8008E10D2AC22FF
:03002300021707BA
:0D170700309904C299C21C309802C2983279
:08173500201CFDD21C8F99223B
:10121300900161EBF0A3EAF0A3E9F0900161E0FB38
:10122300A3E0FAA3E0F91205C26017900161A3E4F9
:1012330075F001120630A9F0FA1205C2FF12173534
:0312430080D9222D
:08173D008F993099FDC2992239
:10055B0041012400410125004101260041013100E8
:10056B0041013200410133004101340047011DC3F9
:10057B00C6C7CACBCECF4A0127F505D39727B6F608
:03058B0015F7B7AA
:10166400D2B6D2C1D2B7E4FF1212A4D2B67F4412CA
:0A16740012A4D2B612127602174536
:10127600E49000F5F09000F5E0FFC39407501E746B
:101286001D2FF582E43401F583E0FF1212A4E4FF7A
:0D1296001212A4D2B69000F5E004F080D84A
:0112A3002228
:081745007F931212A4D2B62218
:07167E00900121E0FFE4FDF3
:101685009000F7EDF01212A49000F7E0FF1212A4FB
:03169500D2B622A8
:0512A4009000F8EFF0DE
:1012A9007F327E001216C2C2B6E4FFC2C19000F8B6
:1012B900E0FE1392B7D2C1EEC313F00FEFB408EBFF
:0712C9007F327E000216C215
:060703009000F6EFF0F992
:10070900E0FF75F06484FDEF75F00A8475F00A84E2
:10071900AFF0E975F00A84AEF0900132E4F090018F
:1007290031E4F0900126E4F0900125E4F0900132E3
:10073900E0FC74272DF582E43401F583E0FBC45411
:100749000FFAEC4A900132F0900131E04BF0900140
:1007590026E0FD74272FF582E43401F583E0FFEDEF
:100769004F900126F0900125E0FF74272EF582E4D1
:100779003401F583E0FEEF4E900125F0E9C3940AB8
:10078900501A9000F6E0C39400401112167E9001B1
:100799002012168190011FE0FFE480479000F6E0E7
:1007A900FFC39464501AEFC3940A401412167E9042
:1007B900012012168190011FE0FF900126E080239D
:1007C900900121E0FF900132E0FD12168590012091
:1007D900E0FF900131E0FD12168590011FE0FF90C6
:1007E9000126E0FD12168590011EE0FF900125E02B
:0407F900FD12168552
:0107FD0022D9
:100FD400AD07900134E05430F0EFB407005057905F
:100FE4000FEAF8282873020FFF02100602100F02FE
:100FF400101802102102102A021033900134E0F07C
:101004008034900134E04440F0802B900134E0447B
:10101400C0F08022900134E044C8F080199001347B
:10102400E044CCF08010900134E044CEF08007908E
:101034000134E044CFF0900123E0FF900134E0FD5F
:031044000216850C
:10104700AD07900133E05480F0900132E4F0ED14E5
:10105700B40700503390106A75F003A4C58325F0D8
:10106700C583730210810210810210810210810270
:1010770010810210810210818000900133E0440743
:10108700F0900132E04470F0900122E0FF900133CC
:10109700E0FD121685900121E0FF900132E0FD028C
:0210A7001685AC
:10157100900133E054F7F0300F04E04408F090019B
:0B15810022E0FF900133E0FD02168520
:10158C00900124E054EFF0300F04E04410F090018F
:0B159C001DE0FF900124E0FD02168519
:1015A700900124E054DFF0300F04E04420F0900174
:0B15B7001DE0FF900124E0FD021685FE
:1015C200900124E054BFF0300F04E04440F0900159
:0B15D2001DE0FF900124E0FD021685E3
:1015DD00900124E0547FF0300F04E04480F090013E
:0B15ED001DE0FF900124E0FD021685C8
:1015F800900125E054F7F0300F04E04408F0900122
:0B1608001EE0FF900125E0FD021685AA
:10161300900134E054DFF0300F04E04420F09001F7
:0B16230023E0FF900134E0FD0216857B
:10162E00900133E054EFF0300F04E04410F09001DD
:0B163E0022E0FF900133E0FD02168562
:10164900900134E054EFF0300F04E04410F09001C1
:0B16590023E0FF900134E0FD02168545
:10058E00C19BC11A410151004101500041014F0070
:0C059E004101525041015300C119C11825
:100B8B00200603020C31900153E024FE601824FE72
:100B9B00604114607124FC607224FC6073240C703F
:100BAB00791211AB806D9000F37464F0900153E0F7
:100BBB00B402159000F3E0D39400400CE014F07FE6
:100BCB000A7E0012144680E49000F3E07003120AD0
:100BDB00B380409000F47464F0900153E0B40415BA
:100BEB009000F4E0D39400400CE014F07F0A7E00F8
:100BFB0012144680E49000F4E070031216AD201935
:100C0B0003120F5E800D1211DF800812134C80034C
:100C1B001213737F327E00121446300405D20F126A
:060C2B001571D20CC20697
:010C310022A0
:10134C00900151E0FFC202C2CC0FD3EF64809486AF
:10135C0040027F06900151EFF01210A9900151E06C
:07136C00FF120FD4020DD99E
:10137300900151E0FFC202C2CC1FC3EF648094808E
:101383005002E4FF900151EFF01210A9900151E0D7
:07139300FF120FD4020DD977
:1011AB00900150E0C202C2CC2405FFD3648094E4CA
:1011BB0040027F64900150EFF012151E900150E039
:1011CB00FF120703900141E0FF121047D20F1215D7
:0411DB00F8020DD930
:1011DF00900150E0C202C2CC24FBFFC36480948014
:1011EF005002E4FF900150EFF012151E900150E0F5
:1011FF00FF120703900141E0FF121047D20F1215A3
:04120F00F8020DD9FB
:10132300C202C2CC900141E0B407057401F080060B
:10133300900141E004F0900141E0FF1210473004B6
:0913430005D20F121571020DD93B
:100AB300E49000F5F0900145E09000F5F0C202C229
:100AC300CC7FF47E01020B5E900153E0640270035D
:100AD300020B64300E08900145E0FF120703A20EDB
:100AE300B35028900121E0FFE4FD12168590012008
:100AF300E0FFE4FD12168590011FE0FFE4FD1216EE
:100B03008590011EE0FFE4FD121685900153E0B4C9
:100B13000122C202C2CC9000F5E004F0E0D394C8F5
:100B2300400374C8F09000F5E0900145F07F647EC7
:100B330000121446900153E06405708CC202C2CCCB
:100B43009000F5E014F0E0C3940250037401F090B8
:100B530000F5E0900145F07F647E00121446020A1E
:100B6300CBD218900150E0FF120703900141E0FF40
:100B7300121047C20F1215C2D20F1215F830040516
:080B8300D20F121571020DD909
:1009CF00E4900164F0900152E0900164F0C202C221
:1009DF00CC7FF47E01020A86900153E0640270031B
:1009EF00020A8C300E0D900152E0FF120703D20F56
:1009FF001215C2A20EB3502D900121E0FFE4FD129B
:100A0F001685900120E0FFE4FD12168590011FE08E
:100A1F00FFE4FD12168590011EE0FFE4FD1216851E
:100A2F00D20F1215C2900153E0B40123C202C2CCFF
:100A3F00900164E02405F0E0D394C8400374C8F03B
:100A4F00900164E0900152F07F647E001214469092
:100A5F000153E064057081C202C2CC900164E024AE
:100A6F00FBF0E0C3943250037432F0900164E090D5
:100A7F000152F07F647E001214460209E7D21890EB
:100A8F000150E0FF120703900141E0FF121047C22F
:100A9F000F1215C2D20F1215F8300405D20F12150E
:040AAF0071020DD9EA
:100F5E00C202C2CC90014FE004F0E0B4060374016B
:100F6E00F0121276C20F1215F8D20F1215DD900183
:100F7E004FE0FF12070390014FE0FF1200267FF4AF
:100F8E007E01121446121276C20F1215DDA21AB38A
:100F9E00920F121571A21A920F12158C900150E039
:100FAE00FF120703900141E0FF121047D20F1215F6
:100FBE00F8900151E0FF120FD4C208C2091210F7C7
:060FCE00120C32021404B3
:1016AD00C202C2CCD219B21AA21A920F12158C1202
:0516BD0010F7020DD939
:1012D000D20F121613300517900151E0D39400403D
:1012E0000EA20D920F12162EA20DB3920F8007D2EE
:0A12F0000F12162EC20F121649222B
:0E16F900300608900153E07002FF227F0122AC
:101171003006369000F37464F0900153E0701590DE
:1011810000F3E0D39400400CE014F07F0A7E0012DB
:10119100144680E59000F3E0700F121276C204C28B
:0911A1000F12157112174DD21B3B
:0111AA002222
:1013BE0068657265005448452076616C7565206FCE
:1013CE0066206E7463365F76616C206973202564C7
:0413DE00200D0A00D4
:1005AA004201540000410156004201570000420135
:0705BA0059000041015B0044
:1010F700301A22300B0FD204D20F121571D205D23B
:1011070008C2098019D209C204C20F121571C2059B
:1011170012174D8009D204D20F121571D205900112
:0E11270050E0FF12151E900151E0FF0210A9CA
:10139A0030080D30090AD205900151E0FF1210A958
:1013AA00300A107BFF7A1379BE120109C20512179F
:0413BA004DC20A22F4
:0B172000C2A6C2A5C2A4C2C4C2C3225C
:10142500A201E433FF900154E07003A3E06F601064
:101435001210F7A201E4FF33900154CFF0A3EFF0AF
:011445002284
:100C3200900142E0FEA3E0FF900158E02FF0900106
:100C420057E03EF0900156E004F0E0B40A1BFD7C50
:100C520000A3E0FEA3E0FF1205DBA3EEF0A3EFF09A
:100C6200E4900156F0A3F0A3F07B017A00790090A2
:100C72000159E0FFA3E09000F9CFF0A3EFF07D79F6
:100C8200120EDD90015BEFF07BFF7A1379C39000C7
:100C9200F8E4F0A3EFF0120109900152E0FF900195
:100CA2005BE0C39F400BD20F1215A7D285A20E9212
:100CB200CC900152E0FF90015BE0C39F5009C20F4C
:070CC2001215A7C285D2CC78
:010CC9002208
:1014C4003D3D3D3D3D3D3D3D20636F64652073746E
:0F14D400617274203D3D3D3D3D3D3D3D0D0A00A3
:1007FE0043BA801214A51217141216981216D61296
:10080E00172B1216E9D288D2A8D2AFC2C2C2A3D277
:10081E00CC1213E2C28512174D7BFF7A1479C412E3
:10082E000109E4FFFE121501EF6401605BEF640243
:10083E006056EF64036051EF6404604CEF64056032
:10084E004790014F7401F0900141F0D21A9001517E
:10085E007403F09001507432F09001527464F09071
:10086E000145740FF01214049000F27401F0900020
:10087E00F2E0FFC39406501090014FEFF0120DD925
:10088E009000F2E004F080E67FE87E03121446301A
:10089E001B0A1216F9EF24FF921B80F3C2A0121747
:1008AE0020121664121135D20F1215F8300405D22B
:1008BE000F121571C202C2CC120B8B1212D012146F
:1008CE002512139A121171301BEEC202C2CCD2A69F
:0C08DE00D2A5D2A4D2C4D2C3D2A080AC58
:100CD6000207FEE493A3F8E493A34003F68001F22F
:100CE60008DFF48029E493A3F85407240CC8C3331F
:100CF600C4540F4420C8834004F456800146F6DFEE
:100D0600E4800B0102040810204080900403E47E76
:100D1600019360BCA3FF543F30E509541FFEE493E2
:100D2600A360010ECF54C025E060A840B8E493A3A9
:100D3600FAE493A3F8E493A3C8C582C8CAC583CAD4
:100D4600F0A3C8C582C8CAC583CADFE9DEE780BE8C
:0105C1000039
:1005C200BB010689828A83E0225002E722BBFE0237
:0905D200E32289828A83E493226A
:1005DB00BC000BBE0029EF8DF084FFADF022E4CC04
:1005EB00F875F008EF2FFFEE33FEEC33FCEE9DECCD
:1005FB00984005FCEE9DFE0FD5F0E9E4CEFD22ED13
:10060B00F8F5F0EE8420D21CFEADF075F008EF2F5C
:10061B00FFED33FD4007985006D5F0F222C398FD4D
:05062B000FD5F0EA22EA
:10063000A3F8E0C5F025F0F0E5821582700215837D
:06064000E0C838F0E822DA
:10064600BB0110E58229F582E5833AF583E0F5F0F2
:10065600A3E0225009E92582F886F008E622BBFECF
:100666000AE92582F8E2F5F008E222E5832AF58315
:08067600E993F5F0A3E99322DA
:10009E00E50824F8F582E43400F583E005082290A3
:1000AE0000F53016039000F8E475F0011206BD025B
:1000BE0005C2200FE97F2ED20F8018EF540F249027
:1000CE00D43440D4FF30130BEF24BFB41A005003C6
:1000DE002461FFE50960021509050CE50C700205A7
:1000EE000B30160E9000F5E475F0011206BDEF020E
:1000FE0006AB02173D7403D2168003E4C216F50850
:10010E009000F51206D4E4F509F50BF50CE509603F
:10011E00077F201200E180F5750AFFC210C20FC2E0
:10012E0011C212C214C215C2171200ADFF700D30EB
:10013E0016057F001200F2AF0CAE0B22B4255FC283
:10014E00D5C2131200ADFF24D0B40A00501A75F0B8
:10015E000A780930D50508B6FF0106C6A426F62092
:10016E00D5047002D21280D924CFB41A00EF5004F5
:10017E00C2E5D2130202F3D21080C6D20F80C0D2D3
:10018E001180BCD2D580BAD21480B47F201200E187
:10019E002011077401B5090040F112009EFF1200F4
:1001AE00E102011BD217D215809512009EFB1200A0
:1001BE009EFA12009EF94A4B700679C47A037BFFB1
:1001CE0020112EE509602A7E008E827583001206AC
:1001DE007E60060EEE650A70F0C2D5EBC0E0EAC096
:1001EE00E0E9C0E0EE12033AD0E0F9D0E0FAD0E058
:1001FE00FB1205C2FF60AAEBC0E0EAC0E0E9C0E076
:10020E001200E1D0E02401F9D0E03400FAD0E0FB96
:10021E00E50A0460DCD50AD980877BFF7A0379363C
:10022E00D211809C791080027908C215C2178008FD
:10023E00D2D5790A8004790AC2D5E50A047002F58E
:10024E000AE4FAFDFEFF12009EFC7B08201013123A
:10025E00009EFD7B10300F0A12009EFE12009EFFC4
:10026E007B20EC3382D592D55013C3E4300F069F1A
:10027E00FFE49EFEE42010039DFDE49CFCE4CBF81D
:10028E00C210EC700CCFCECDCCE824F8F870F38011
:10029E0017C3EF33FFEE33FEED33FDEC33FCEB33E0
:1002AE00FB994002FB0FD8E9EB301005F8D0E0C403
:1002BE0048B210C0E00AEC4D4E4F78207B0070C261
:1002CE00EAB50A0040BCC0E012033CD0F0D0E020FA
:1002DE001004C4C0E0C4B210C0F01200CAD0F0D5F1
:1002EE00F0EB02011B1206DD01B8530232580189F0
:1002FE004C01854202364F023E44023E49019E4366
:08030E000244550228460228B2
:100316004502284703E450018D2D01912E01B42B8F
:1003260001952301B22003CD2A014D48000001ACFE
:100336003F3F3F00790AA2D5201214301409B910A4
:10034600020404B9080104A2D520150250010420B4
:1003560011689211B509005034C0E07F203012199F
:100366007F30A21172157214500F120393C211C27C
:1003760015C214C2177F30800F301403E9C0E01293
:1003860000E1301403D0E0F9D0E0B509CC30141701
:100396007F30B9100C1200E17F583013077F788048
:1003A60003B908031200E13011057F2D0200E17F39
:1003B600202017F87F2B2015F322921180CF286E6C
:1003C600756C6C2900D21012009E3010F8C210789D
:1003D6000930D50108F602014D2D50434958120047
:1003E6009E2403B405004001E49003DF931200D27B
:0D03F600743A1200D2D212750904020232CC
:10067E00BB010CE58229F582E5833AF583E0225031
:10068E0006E92582F8E622BBFE06E92582F8E2227B
:0D069E00E58229F582E5833AF583E4932295
:1006AB00BB010689828A83F0225002F722BBFE012E
:0206BB00F32228
:1006BD00F8E0FBA3A3E0F925F0F0E58215827002C6
:0706CD001583E0FA38F0226A
:0906D400EBF0A3EAF0A3E9F02227
:1006DD00D083D082F8E4937012740193700DA3A3AC
:1006ED0093F8740193F5828883E4737402936860C0
:0606FD00EFA3A3A380DFC0
:00000001FF
