:03000000020DD41A
:0C0DD400787FE4F6D8FD758123020E1B29
:0C17E700759D60E4F5BDF5BE75BCA02248
:10140300E4FDFC53BCF8EF1444A842BCE5BC30E453
:10141300FB53BCEFAFBEAD07AFBDEF75F004A4FF48
:08142300E5F0FCED4FAE04FF03
:01142B00229E
:10154F00D3EF9400EE9400401600000075080B7561
:0F155F0009BED509FDD508FAEF1F70E41E80E123
:01156E00225A
:1017A300D3EF9400EE9400400A000000EF1F70F0A6
:0417B3001E80ED2285
:0D000E00E4F5C7F5C5F5C675C380F5C4223D
:1015CC0075C78375C5018FC4EEF5C375C65A75C64C
:0D15DC00A57F0A7E0012154FAFC202000E5F
:10156F0075C78375C5028FC4EEF5C3AF058FC275FE
:0F157F00C65A75C6A57F0A7E0012154F02000ED0
:1016060075C78375C5038FC4EEF5C375C65A75C60F
:0B161600A57F0A7E0012154F02000E97
:10150D00E49000F8F0A3F0FFFE1216069000F8E04C
:10151D00FEA3E0FF90015AE0FD12156FC203C2CC8D
:01152D00229B
:100E6000900149E0900154F0A21BE433A3F09001FB
:100E70005CE0900156F090015BE0900157F090012A
:100E80005DE0900158F090014DE0900159F0900123
:100E90005AE075F002A47F00FE9000FAF0A3EFF094
:100EA000121606E49000F9F09000F9E0FDC39406F4
:100EB000502BA3E0FEA3E0FF74542DF582E434012F
:100EC000F583E0FD12156F9000FBE004F0700690D2
:100ED00000FAE004F09000F9E004F080CBC203C215
:010EE000CC45
:010EE10022EE
:10124000E4FFFE1215CC90015AEFF0120026A20521
:10125000921012163CD2101216C3A21B9210121634
:101260005790015BE0FF120B51900149E0FF121013
:0C127000B690015CE0FF120FD9021202E0
:10002600EF75F002A49000F9F0A3E4F09000F8F068
:100036009000F9E0FEA3E0FF1215CC9000F8E02452
:1000460054F582E43401F583EFF09000FAE004F011
:1000560070069000F9E004F09000F8E004F0E0C3C8
:10006600940640CC900154E0900149F0900155E08F
:1000760024FF921BA3E090015CF0900157E09001F1
:100086005BF0900158E090015DF0900159E090011D
:020096004DF02B
:010098002245
:10158E00759420E4F593759280F59175967FF59597
:0F159E00F5B2F5B175B41CF5B375CA10F5C922D5
:1004030060F20000011A0123012C0135013E01476E
:100413000151015A0164016E01770181018B01943D
:10042300019E01A801B201BC01C601CF01D901E3BC
:1004330001ED01F60200020A0213021D0226022F39
:1004430002380242024B0254025C0265026E0276DB
:10045300027F0287028F0297029F02A702AF02B6B2
:1004630002BE02C502CC02D302DA02E102E702EEC7
:1004730002F402FB03010307030D03120318031D18
:1004830003230328032D03320337033C03410345AE
:10049300034A034E03520356035A035E0362036681
:1004A300036A036D037103740378037B037E038183
:1004B30003840387038A038D038F039203950397B2
:1004C3000399039C039E03A003A303A503A703A906
:1004D30003AB03AD03AF03B103B203B403B603B875
:1004E30003B903BB03BC03BE03BF03C103C203C4FD
:0B04F30003C503C603C74200F200006F
:0E0EE2009000F9EBF0A3EAF0A3E9F0A3EDF025
:100EF000E4900100F09000FFF09000FCE014FF90FF
:100F000000FFE0FEC39F50559000F9E0FBA3E0FA1C
:100F1000A3E0F975F002EEA4F58285F0831206488D
:100F2000FF9000FDE0FCA3E0FDC39FEC95F04025A1
:100F3000A3E02401FFE433FEEF25E0FFEE33FE8F54
:100F4000828E83120648FFC3ED9FEC95F050069009
:100F500000FFE0A3F09000FFE004F0809C9001000F
:020F6000E0FFB0
:010F6200226C
:05111800900121EFF041
:10111D00900123740AF0E4900122F0900123E0FF86
:10112D00900122E0C39F501C900121E0FF12140397
:10113D009000F3E02FF09000F2E03EF0900122E0FD
:10114D0004F080D79000F2E0FEA3E0FF900123E0D1
:0E115D00FD7C001205DD9000F2EEF0A3EFF035
:01116B002261
:1014EB0075F10890FFF2740BF090FFF07410F0A3FD
:1014FB00E4F090FF30F0A3F0A3F0A3740AF0A3E4A0
:02150B00F022CC
:101621009000F8EEF0A3EFF01200069000F8E0FF52
:0B163100A3E090FF32CFF0A3EFF02207
:0400060075F58822E2
:06182000E4F5F5D2A3225D
:10116C0030064AEFB40700504490117CF8282873DD
:10117C0002119102119402119A0211A00211A602FD
:10118C0011AC0211B20218207FD07E07801C7F6048
:10119C007E0980167FF07E0A80107F807E0C800A8C
:0E11AC007F107E0E80047FA07E0F121621227F
:1004FE00C10EC10FC108C183C18DC107C10CC18519
:10050E00C100C186C101C109C10AC10BC104C1022A
:10051E0042014E0000420146000042014A000041E5
:10052E0001480041014901420150E42041014C00C3
:10053E004101520141014D0541013C0041013D0087
:10054E0041013E0041013F00410140004101410097
:0D055E004101420041014300420144000000
:1017B700538E7F5389F0758A9A758CF7C28DD28CB8
:0317C700D2A92282
:0A17FE00538EBF53890F4389102258
:1017CA0053D1FDE4F5D575D4DC43D10843AF2022CB
:0300030002135194
:10135100C0E0C083C082C0D075D000C006D2A1D287
:1013610097900150E0FEA3E0F58BEEF58DD208D207
:0E1371008ED2ABD006D0D0D082D083D0E03266
:03000B00020D2CB7
:100D2C00C0E0C0F0C083C082C0D075D000C000C08D
:0D0D3C0001C002C003C004C005C006C0070E
:100D490090013CE0703D7F07121403900146EEF0DC
:100D5900A3EFF0C394F4EE9401500EA3E004F0E085
:100D6900B46406E4F0C20CC201D3900147E09420B8
:100D7900900146E09403402E900148E4F0D20CD251
:100D8900018023200420900152E004F0E0D3941460
:100D990040147F0612111890014AEEF0A3EFF0D229
:100DA90004900152E4F090013CE0FFC374019FF00C
:100DB900D007D006D005D004D003D002D001D0008E
:0B0DC900D0D0D082D083D0F0D0E03238
:03001B000211BA15
:1011BA00C0E0C083C082C0D030082C30052990011D
:1011CA0049E024FE600D14601024027010C297D208
:1011DA00A1800AD297C2A18004C297C2A1C208758F
:1011EA008BF7758DFF8008D2A1D297C28EC2ABD081
:0811FA00D0D082D083D0E03296
:03009B0002093F18
:0F093F00C0E0C0F0C083C082C0D075D000C00738
:10094E00300933300A30900145E004F07006900112
:10095E0044E004F090014DE075F064A4FF90014472
:10096E00E0B5F012A3E0B5070D900144E4F0A3F05A
:10097E00C209C20AD20BA20A82094007900144E4BE
:10098E00F0A3F0900142E004F0E0D3940F4004B2E3
:10099E000EE4F0900143E004F0E0D394324004B250
:1009AE000FE4F090013FE004F0E0D39405400AE438
:1009BE00F0E580540F90015EF0301A10900140E087
:1009CE0004F0E0D394964004C21AE4F0301910906B
:1009DE000141E004F0E0D394964004C219E4F02003
:1009EE00031290013DE004F0E0D3940A4006E4F0D7
:1009FE00D203D2CC300D1290013EE004F0E0D3943D
:100A0E000A4006D207C20DE4F030022D90014FE0ED
:100A1E0004F0700690014EE004F090014EE0B40533
:100A2E0018A3E0B4DC13C20290014EE4F0A3F0D29E
:090A3E00A6D2A5D2A4D2C4D2C3F1
:0D0A4700D007D0D0D082D083D0F0D0E032E4
:1015E900300504D2AB8002C2ABEF75F040A42420D1
:0D15F900FEE5F034E4900150F0A3CEF022A6
:10177900759850438E01438E0475D7E875D6FF439B
:051789008E10D2AC221D
:030023000217DAE7
:0D17DA00309904C299C21D309802C29832A5
:08180800201DFDD21D8F992265
:10131E0090015FEBF0A3EAF0A3E9F090015FE0FB30
:10132E00A3E0FAA3E0F91205C4601790015FA3E4ED
:10133E0075F001120632A9F0FA1205C4FF12180850
:03134E0080D92221
:081810008F993099FDC2992265
:10056B0041012B0041012C0041012D0041013800BC
:10057B004101390041013A0041013B00470124C3CD
:10058B00C6C7CACBCECF4A012EF505D39727B6F6F1
:03059B0015F7B79A
:10172F00D2B6D2C1D2B7E4FF1213ADD2B67F4412F4
:0A173F0013ADD2B612137F02181882
:10137F00E49000F8F09000F8E0FFC39407501E745B
:10138F00242FF582E43401F583E0FF1213ADE4FF5F
:0D139F001213ADD2B69000F8E004F080D833
:0113AC00221E
:081818007F931213ADD2B6223A
:07174900900128E0FFE4FD20
:101750009000FAEDF01213AD9000FAE0FF1213AD15
:03176000D2B622DC
:0513AD009000FBEFF0D1
:1013B2007F327E001217A3C2B6E4FFC2C19000FBC7
:1013C200E0FE1392B7D2C1EEC313F00FEFB408EBF5
:0713D2007F327E000217A329
:060B51009000F9EFF0F93D
:100B5700E0FF75F06484FDEF75F00A8475F00A8490
:100B6700AFF0E975F00A84AEF0900139E4F0900136
:100B770038E4F090012DE4F090012CE4F090013975
:100B8700E0FC742E2DF582E43401F583E0FBC454B8
:100B97000FFAEC4A900139F0900138E04BF09001E0
:100BA7002DE0FD742E2FF582E43401F583E0FFED8F
:100BB7004F90012DF090012CE0FF742E2EF582E46A
:100BC7003401F583E0FEEF4E90012CF0E9C3940A5F
:100BD700501A9000F9E0C394004011121749900190
:100BE7002712174C900126E0FFE480479000F9E0B8
:100BF700FFC39464501AEFC3940A40141217499024
:100C0700012712174C900126E0FF90012DE0802369
:100C1700900128E0FF900139E0FD1217509001275D
:100C2700E0FF900138E0FD121750900126E0FF9099
:100C3700012DE0FD121750900125E0FF90012CE0F7
:040C4700FD12175033
:010C4B002286
:100FD900AD0790013BE05430F0EFB4070050579053
:100FE9000FEFF828287302100402100B02101402E4
:100FF900101D02102602102F02103890013BE0F05C
:10100900803490013BE04440F0802B90013BE04468
:10101900C0F0802290013BE044C8F0801990013B68
:10102900E044CCF0801090013BE044CEF080079082
:10103900013BE044CFF090012AE0FF90013BE0FD45
:031049000217503B
:1010B600AD0790013AE05480F0900139E4F0ED2458
:1010C600FE60171460242402702E90013AE0440456
:1010D600F0900139E04440F0801E90013AE044026D
:1010E600F0900139E04420F0800E90013AE0440689
:1010F600F0900139E04460F0900129E0FF90013A58
:10110600E0FD121750900128E0FF900139E0FD0242
:02111600175070
:10163C0090013AE054F7F0301004E04408F09001C7
:0B164C0029E0FF90013AE0FD0217507A
:1016570090012BE054EFF0301004E04410F09001BB
:0B16670024E0FF90012BE0FD02175073
:1016720090012BE054DFF0301004E04420F09001A0
:0B16820024E0FF90012BE0FD02175058
:10168D0090012BE054BFF0301004E04440F0900185
:0B169D0024E0FF90012BE0FD0217503D
:1016A80090012BE0547FF0301004E04480F090016A
:0B16B80024E0FF90012BE0FD02175022
:1016C30090012CE054F7F0301004E04408F090014E
:0B16D30025E0FF90012CE0FD02175005
:1016DE0090013BE054DFF0301004E04420F0900124
:0B16EE002AE0FF90013BE0FD021750D6
:1016F90090013AE054EFF0301004E04410F090010A
:0B17090029E0FF90013AE0FD021750BC
:1017140090013BE054EFF0301004E04410F09001ED
:0B1724002AE0FF90013BE0FD0217509F
:10059E00C19CC11B41015C0041015B0041015A003D
:1005AE0041015D2D41015E0041015300C11AC11987
:100A5400200703020B5090015EE024FE602A14601C
:100A64005A147003020AF5147003020B2824FC7054
:100A740003020B2D24FC7003020B32240C600302CE
:100A84000B441212B6020B359000F57464F0900119
:100A94005EE0B402159000F5E0D39400400CE0143D
:100AA400F07F0A7E0012154F80E49000F5E0700399
:100AB400120C4C20190312142C80769000F77464E5
:100AC400F090015EE0B403159000F7E0D394004089
:100AD4000CE014F07F0A7E0012154F80E49000F7BA
:100AE400E07003120705D202E490014EF0A3F080F7
:100AF4004F9000F67464F090015EE0B40415900029
:100B0400F6E0D39400400CE014F07F0A7E00121546
:100B14004F80E49000F6E0700312178E201A03123F
:100B24000F63800D1212EA80081214558003121408
:100B34007CD202E490014EF0A3F07F32FE12154FF6
:0C0B4400300505D21012163CD20DC2077D
:010B50002282
:1014550090015CE0FFC203C2CC0FD3EF6480948699
:1014650040027F0690015CEFF012116C90015CE088
:07147500FF120FD9020E6007
:10147C0090015CE0FFC203C2CC1FC3EF6480948078
:10148C005002E4FF90015CEFF012116C90015CE0F3
:07149C00FF120FD9020E60E0
:1012B60090015BE0C203C2CC2405FFD3648094E4B2
:1012C60040027F6490015BEFF01215E990015BE04C
:1012D600FF120B51900149E0FF1210B6D210121600
:0412E600C3020E60D1
:1012EA0090015BE0C203C2CC24FBFFC364809480FC
:1012FA005002E4FF90015BEFF01215E990015BE008
:10130A00FF120B51900149E0FF1210B6D2101216CB
:04131A00C3020E609C
:10142C00C203C2CC900149E0B403057401F08006FC
:10143C00900149E004F0900149E0FF1210B630052C
:09144C0005D21012163C020E60DC
:100C4C00E49000F8F090014DE09000F8F0C203C27F
:100C5C00CC7FF47E0112154F90015EE064027003AC
:100C6C00020D05300F0890014DE0FF120B51A20F41
:100C7C00B35028900128E0FFE4FD12175090012793
:100C8C00E0FFE4FD121750900126E0FFE4FD12177F
:100C9C0050900125E0FFE4FD12175090015EE0B486
:100CAC000122C203C2CC9000F8E004F0E0D394C857
:100CBC00400374C8F09000F8E090014DF07F647E22
:100CCC000012154F90015EE0B40522C203C2CC9015
:100CDC0000F8E014F0E0C3940250037401F09000AB
:100CEC00F8E090014DF07F647E0012154FD202E4C3
:100CFC0090014EF0A3F0020C64D21990015BE0FF5E
:100D0C00120B51900149E0FF1210B6C21012168D51
:100D1C00D2101216C3300505D21012163C020E600A
:10070500E49000F8F090015DE09000F8F0C203C2BB
:10071500CC900153E024FF92101216727FF47E01F3
:1007250012154F90015EE0640370030207F6300F67
:100735000D90015DE0FF120B51D21012168DA20F24
:10074500B3502D900128E0FFE4FD121750900127CA
:10075500E0FFE4FD121750900126E0FFE4FD1217BB
:1007650050900125E0FFE4FD121750D21012168DAE
:1007750090015EE0B40122C203C2CC9000F8E0040F
:10078500F0E0D3947840037478F09000F8E090019D
:100795005DF07F647E0012154F90015EE0B4052286
:1007A500C203C2CC9000F8E014F0E0C394145003E7
:1007B5007414F09000F8E090015DF07F647E001203
:1007C500154F90015EE0B4041CC203C2CC900153E6
:1007D500E0FFC374019FF024FF92101216727F642C
:1007E5007E0012154FD202E490014EF0A3F00207ED
:1007F50028D21990015BE0FF120B51900149E0FFEF
:100805001210B6C21012168DD2101216C3C21012D3
:0D0815001672300505D21012163C020E605E
:100F6300C203C2CC90015AE004F0E0B4060374015A
:100F7300F012137FC2101216C3D2101216A89001DA
:100F83005AE0FF120B5190015AE0FF1200267FF442
:100F93007E0112154F12137FC2101216A8A21BB3A3
:100FA300921012163CA21B921012165790015BE08E
:100FB300FF120B51900149E0FF1210B6D210121626
:100FC300C390015CE0FF120FD9C209C20A121202D8
:060FD30012104C02150D86
:10178E00C203C2CCD21AB21BA21B9210121657124F
:05179E001202020E60C2
:1013D900D2101216DE30061790015CE0D39400405B
:1013E9000EA20E92101216F9A20EB392108007D215
:0A13F900101216F9C2101217142288
:1017630030071090015EE0700AD20290014EF0A3A0
:06177300F0FF227F0122BD
:10127C003007369000F57464F090015EE0701590C4
:10128C0000F5E0D39400400CE014F07F0A7E0012CD
:10129C00154F80E59000F5E0700F12137FC205C268
:0912AC001012163C121820D21C8D
:0112B5002216
:1014C70068657265005448452076616C7565206FC4
:1014D70066206E7463365F76616C206973202564BD
:0414E700200D0A00CA
:0505BE00420162000093
:10120200301B22300C0FD205D21012163CD206D25D
:1012120009C20A8019D20AC205C21012163CC206BD
:101222001218208009D205D21012163CD206900163
:0E1232005BE0FF1215E990015CE0FF02116C19
:1014A30030090D300A0AD20690015CE0FF12116C7C
:1014B300300B107BFF7A1479C7120109C206121888
:0414C30020C20B2216
:0B17F300C2A6C2A5C2A4C2C4C2C32289
:10152E00A201E433FF900162E07003A3E06F60104C
:10153E00121202A201E4FF33900162CFF0A3EFF08A
:01154E00227A
:10104C003004667B017A00790090014AE0FFA3E04E
:10105C009000FDCFF0A3EFF07D79120EE29000F836
:10106C00EFF07BFF7A1479CC9000FCE4F0A3EFF066
:10107C0012010990015DE0FF9000F8E0FEC39F4073
:10108C0008900153E07002D2A2EF14FFEEC39F5000
:10109C0016900153E0FF7002C2A2EFB401093005B3
:0910AC0004C2A28002D2A2C20417
:0110B5002218
:1015AD003D3D3D3D3D3D3D3D20636F646520737484
:0F15BD00617274203D3D3D3D3D3D3D3D0D0A00B9
:1008220043BA8012158E1217E71217791217B712F0
:1008320017FE1217CAD288D2A8D2AFC2C2C2A3D29E
:10084200CC1214EBC2851218207BFF7A1579AD12F7
:100852000109E4FFFE1215CCEF6401605BEF640254
:100862006056EF64036051EF6404604CEF6405600E
:100872004790015A7401F0900149F0D21B90015C3B
:100882007403F090015B7432F090015D742DF0906E
:10089200014D740FF012150D9000F47401F09000E8
:1008A200F4E0FFC39406501090015AEFF0120E606C
:1008B2009000F4E004F080E67FE87E0312154F30EA
:1008C2001C0A121763EF24FF921C80F3C2A01217B6
:1008D200F312172F121240D2101216C3300505D28E
:1008E2001012163CC203C2CC90015EE0700CC2032F
:1008F200C2CCD20290014EF0A3F030020D120A5483
:10090200C2A6C2A5C2A4C2C4C2C31213D912152E52
:1009120012104C1214A312127C301C18C203C2CC47
:10092200D2A6D2A5D2A4D2C4D2C3D2A0D2A2D2A1DC
:0D093200D29780847F057E0012154F80ABA8
:100DE000020822E493A3F8E493A34003F68001F2FF
:100DF00008DFF48029E493A3F85407240CC8C33314
:100E0000C4540F4420C8834004F456800146F6DFE2
:100E1000E4800B0102040810204080900403E47E6B
:100E2000019360BCA3FF543F30E509541FFEE493D7
:100E3000A360010ECF54C025E060A840B8E493A39E
:100E4000FAE493A3F8E493A3C8C582C8CAC583CAC9
:100E5000F0A3C8C582C8CAC583CADFE9DEE780BE81
:0105C3000037
:1005C400BB010689828A83E0225002E722BBFE0235
:0905D400E32289828A83E4932268
:1005DD00BC000BBE0029EF8DF084FFADF022E4CC02
:1005ED00F875F008EF2FFFEE33FEEC33FCEE9DECCB
:1005FD00984005FCEE9DFE0FD5F0E9E4CEFD22ED11
:10060D00F8F5F0EE8420D21CFEADF075F008EF2F5A
:10061D00FFED33FD4007985006D5F0F222C398FD4B
:05062D000FD5F0EA22E8
:10063200A3F8E0C5F025F0F0E5821582700215837B
:06064200E0C838F0E822D8
:10064800BB0110E58229F582E5833AF583E0F5F0F0
:10065800A3E0225009E92582F886F008E622BBFECD
:100668000AE92582F8E2F5F008E222E5832AF58313
:08067800E993F5F0A3E99322D8
:10009E00E50824FCF582E43400F583E0050822909F
:1000AE0000F93017039000FCE475F0011206BF0250
:1000BE0005C42010E97F2ED2108018EF540F249023
:1000CE00D43440D4FF30140BEF24BFB41A005003C5
:1000DE002461FFE50960021509050CE50C700205A7
:1000EE000B30170E9000F9E475F0011206BFEF0207
:1000FE0006AD0218107403D2178003E4C217F50878
:10010E009000F91206D6E4F509F50BF50CE5096039
:10011E00077F201200E180F5750AFFC211C210C2DE
:10012E0012C213C215C216C2181200ADFF700D30E6
:10013E0017057F001200F2AF0CAE0B22B4255FC282
:10014E00D5C2141200ADFF24D0B40A00501A75F0B7
:10015E000A780930D50508B6FF0106C6A426F62092
:10016E00D5047002D21380D924CFB41A00EF5004F4
:10017E00C2E5D2140202F3D21180C6D21080C0D2D0
:10018E001280BCD2D580BAD21580B47F201200E185
:10019E002012077401B5090040F112009EFF1200F3
:1001AE00E102011BD218D216809512009EFB12009E
:1001BE009EFA12009EF94A4B700679C47A037BFFB1
:1001CE0020122EE509602A7E008E827583001206AB
:1001DE008060060EEE650A70F0C2D5EBC0E0EAC094
:1001EE00E0E9C0E0EE12033AD0E0F9D0E0FAD0E058
:1001FE00FB1205C4FF60AAEBC0E0EAC0E0E9C0E074
:10020E001200E1D0E02401F9D0E03400FAD0E0FB96
:10021E00E50A0460DCD50AD980877BFF7A0379363C
:10022E00D212809C791080027908C216C2188008FA
:10023E00D2D5790A8004790AC2D5E50A047002F58E
:10024E000AE4FAFDFEFF12009EFC7B082011131239
:10025E00009EFD7B1030100A12009EFE12009EFFC3
:10026E007B20EC3382D592D55013C3E43010069F19
:10027E00FFE49EFEE42011039DFDE49CFCE4CBF81C
:10028E00C211EC700CCFCECDCCE824F8F870F38010
:10029E0017C3EF33FFEE33FEED33FDEC33FCEB33E0
:1002AE00FB994002FB0FD8E9EB301105F8D0E0C402
:1002BE0048B211C0E00AEC4D4E4F78207B0070C260
:1002CE00EAB50A0040BCC0E012033CD0F0D0E020FA
:1002DE001104C4C0E0C4B211C0F01200CAD0F0D5EF
:1002EE00F0EB02011B1206DF01B8530232580189EE
:1002FE004C01854202364F023E44023E49019E4366
:08030E000244550228460228B2
:100316004502284703E450018D2D01912E01B42B8F
:1003260001952301B22003CD2A014D48000001ACFE
:100336003F3F3F00790AA2D5201314301509B910A2
:10034600020404B9080104A2D520160250010420B3
:1003560012689212B509005034C0E07F203013199C
:100366007F30A21272167215500F120393C212C278
:1003760016C215C2187F30800F301503E9C0E0128F
:1003860000E1301503D0E0F9D0E0B509CC301517FF
:100396007F30B9100C1200E17F583014077F788047
:1003A60003B908031200E13012057F2D0200E17F38
:1003B600202018F87F2B2016F322921280CF286E69
:1003C600756C6C2900D21112009E3011F8C211789A
:1003D6000930D50108F602014D2D50434958120047
:1003E6009E2403B405004001E49003DF931200D27B
:0D03F600743A1200D2D213750904020232CB
:10068000BB010CE58229F582E5833AF583E022502F
:1006900006E92582F8E622BBFE06E92582F8E22279
:0D06A000E58229F582E5833AF583E4932293
:1006AD00BB010689828A83F0225002F722BBFE012C
:0206BD00F32226
:1006BF00F8E0FBA3A3E0F925F0F0E58215827002C4
:0706CF001583E0FA38F02268
:0906D600EBF0A3EAF0A3E9F02225
:1006DF00D083D082F8E4937012740193700DA3A3AA
:1006EF0093F8740193F5828883E4737402936860BE
:0606FF00EFA3A3A380DFBE
:00000001FF
