:03000000020CD21D
:0C0CD200787FE4F6D8FD758123020D192F
:0C175500759D60E4F5BDF5BE75BCA022DA
:10137A00E4FDFC53BCF8EF1444A842BCE5BC30E4DD
:10138A00FB53BCEFAFBEAD07AFBDEF75F004A4FFD2
:08139A00E5F0FCED4FAE04FF8D
:0113A2002228
:1014C600D3EF9400EE9400401600000075080B75EB
:0F14D60009BED509FDD508FAEF1F70E41E80E1AD
:0114E50022E4
:10170300D3EF9400EE9400400A000000EF1F70F046
:041713001E80ED2225
:0D000E00E4F5C7F5C5F5C675C380F5C4223D
:1015420075C78375C5018FC4EEF5C375C65A75C6D6
:0D155200A57F0A7E001214C6AFC202000E73
:1014E60075C78375C5028FC4EEF5C3AF058FC27588
:0F14F600C65A75C6A57F0A7E001214C602000EE4
:10157C0075C78375C5038FC4EEF5C375C65A75C69A
:0B158C00A57F0A7E001214C602000EAC
:10148400E49000F5F0A3F0FFFE12157C9000F5E067
:10149400FEA3E0FF90014DE0FD1214E6C202C2CCAF
:0114A4002225
:100F6A00900141E0900148F0A21AE433A3F0900105
:100F7A004FE090014AF090014EE090014BF0900151
:100F8A0050E090014CF090014DE075F002A47F0012
:100F9A00FE9000F7F0A3EFF012157CE49000F6F053
:100FAA009000F6E0FDC39405502BA3E0FEA3E0FFFA
:100FBA0074482DF582E43401F583E0FD1214E690BD
:100FCA0000F8E004F070069000F7E004F09000F6F4
:090FDA00E004F080CBC202C2CC9D
:010FE30022EB
:1011B500E4FFFE12154290014DEFF012105AA20401
:1011C500920F1215B2D20F121639A21A920F1215DA
:1011D500CD90014EE0FF120819900141E0FF120A7F
:0C11E500C790014FE0FF120026021177B6
:10105A00EF75F002A49000F6F0A3E4F09000F5F02A
:10106A009000F6E0FEA3E0FF1215429000F5E0249E
:10107A0048F582E43401F583EFF09000F7E004F0DC
:10108A0070069000F6E004F09000F5E004F0E0C38A
:10109A00940540CC900148E0900141F0900149E06C
:1010AA0024FF921AA3E090014FF090014BE09001C7
:0A10BA004EF090014CE0900150F060
:0110C4002209
:10150500759420E4F593759280F59175967FF59520
:0F151500F5B2F5B175B41CF5B375CA10F5C9225E
:101524005448452076616C7565206F66206164635C
:0E1534005F76616C206973202564200D0A002B
:1004030060F20000011A0123012C0135013E01476E
:100413000151015A0164016E01770181018B01943D
:10042300019E01A801B201BC01C601CF01D901E3BC
:1004330001ED01F60200020A0213021D0226022F39
:1004430002380242024B0254025C0265026E0276DB
:10045300027F0287028F0297029F02A702AF02B6B2
:1004630002BE02C502CC02D302DA02E102E702EEC7
:1004730002F402FB03010307030D03120318031D18
:1004830003230328032D03320337033C03410345AE
:10049300034A034E03520356035A035E0362036681
:1004A300036A036D037103740378037B037E038183
:1004B30003840387038A038D038F039203950397B2
:1004C3000399039C039E03A003A303A503A703A906
:1004D30003AB03AD03AF03B103B203B403B603B875
:1004E30003B903BB03BC03BE03BF03C103C203C4FD
:0604F30003C503C603C7A8
:0E0EE9009000F5EBF0A3EAF0A3E9F0A3EDF022
:100EF700E49000FCF09000FBF09000F8E014FF9005
:100F070000FBE0FEC39F50559000F5E0FBA3E0FA1D
:100F1700A3E0F975F002EEA4F58285F0831206428C
:100F2700FF9000F9E0FCA3E0FDC39FEC95F040259E
:100F3700A3E02401FFE433FEEF25E0FFEE33FE8F4D
:100F4700828E83120642FFC3ED9FEC95F050069008
:100F570000FBE0A3F09000FBE004F0809C9000FC15
:020F6700E0FFA9
:010F69002265
:050DE40090015AEFF040
:100DE90090015C740AF0E4A3F0A3F090015BF09029
:100DF900015CE0FF90015BE0C39F501C90015AE049
:100E0900FF12137A90015EE02FF090015DE03EF051
:100E190090015BE004F080D790015DE0FEA3E0FF64
:100E290090015CE0FD7C001205D7A3EEF0A3EFF082
:100E39007BFF7A1579249000F8EEF0A3EFF0120108
:100E4900097B017A00790090015DE0FFA3E0900041
:0D0E5900F9CFF0A3EFF07D79120EE97E00D5
:010E66002269
:1014620075F10890FFF2740BF090FFF07410F0A386
:10147200E4F090FF30F0A3F0A3F0A3740AF0A3E429
:02148200F02256
:101597009000F5EEF0A3EFF01200069000F5E0FFE3
:0B15A700A3E090FF32CFF0A3EFF02292
:0400060075F58822E2
:06178E00E4F5F5D2A322F0
:1011290030054AEFB407005044901139F828287364
:1011390002114E02115102115702115D021163028F
:10114900116902116F02178E7FD07E07801C7F60A4
:101159007E0980167FF07E0A80107F807E0C800ACF
:0E1169007F107E0E80047FA07E0F121597224D
:1004F900C10DC10EC107C182C18CC106C10BC18426
:10050900C100C185C101C108C109C10AC1034201B4
:100519003E00004201420000410140004101410109
:10052900420145E4204101440041014701410135AF
:1005390000410136004101370041013800410139CC
:0E0549000041013A0041013B0042013C00002C
:10171700538E7F5389F0758A9A758CF7C28DD28C58
:03172700D2A92222
:0A176C00538EBF53890F43891022EA
:10172A0053D1FDE4F5D575D4DC43D10843AF20226B
:030003000212C620
:1012C600C0E0C083C082C0D075D000C006D2A2D212
:1012D600A1D297900145E0FEA3E0F58BEEF58DD205
:1012E60007D28ED2ABD006D0D0D082D083D0E03217
:03000B00020E677B
:100E6700C0E0C0F0C083C082C0D075D000C000C051
:100E770001C002C003C004C005C006C0077F071237
:100E8700137A90013EEEF0A3EFF07F0612137A90EB
:100E97000142EEF0A3EFF090013EE0FEA3E0FFC3B6
:100EA70094F4EE9401500EA3E004F0E0B46406E479
:100EB700F0C20BC201D3EF9420EE940340099001D6
:100EC70040E4F0D20BD201D007D006D005D004D031
:100ED70003D002D001D000D0D0D082D083D0F0D0C0
:020EE700E032F7
:03001B00020D5E75
:100D5E00C0E0C0F0C083C082C0D0300764300461F0
:100D6E00900141E014B40700504D900D8675F003CC
:100D7E00A4C58325F0C58373020D9B020DA3020D3E
:100D8E00A7020DAB020DB3020DB7020DBFC297D273
:100D9E00A1D2A28022D2978006D297800EC297C28D
:100DAE00A1D2A28012D297800AC297D2A1C2A280EB
:100DBE0006C297C2A1C2A2C207758BF7758DFF80BE
:100DCE000AD2A2D2A1D297C28EC2ABD0D0D082D03C
:060DDE0083D0F0D0E032EA
:03009B000209F85F
:0809F800C0E0C083C082C0D042
:100A000030082A30092790013DE004F0700690017B
:100A10003CE004F090013CE0B40112A3E0B4F40D1A
:100A200090013CE4F0A3F0C208C209D20AA20982F4
:100A300008400790013CE4F0A3F090013AE004F094
:100A4000E0D3940F4004B20DE4F090013BE004F0D9
:100A5000E0D394324004B20EE4F0900137E004F0A9
:100A6000E0D39405400AE4F0E580540F900151F082
:100A7000301910900138E004F0E0D394964004C29D
:100A800019E4F030180E900139E004F0E0D39496A8
:100A90004002E4F0200212900135E004F0E0D3942B
:100AA0000A4006E4F0D202D2CC300C12900136E0BB
:0E0AB00004F0E0D3940A4006D206C20CE4F033
:090ABE00D0D0D082D083D0E03208
:10155F00300404D2AB8002C2ABEF75F040A424205C
:0D156F00FEE5F034E4900145F0A3CEF0223B
:1016D900759850438E01438E0475D7E875D6FF433C
:0516E9008E10D2AC22BE
:0300230002174879
:0D174800309904C299C21C309802C2983238
:08177600201CFDD21C8F9922FA
:1012930090015FEBF0A3EAF0A3E9F090015FE0FBBC
:1012A300A3E0FAA3E0F91205BE601790015FA3E47F
:1012B30075F00112062CA9F0FA1205BEFF1217767B
:0312C30080D922AD
:08177E008F993099FDC29922F8
:1005570041012400410125004101260041013100EC
:1005670041013200410133004101340047011DC3FD
:10057700C6C7CACBCECF4A0127F505D39727B6F60C
:0305870015F7B7AE
:1016A500D2B6D2C1D2B7E4FF121324D2B67F441208
:0A16B5001324D2B61212F6021786B3
:1012F600E49000F5F09000F5E0FFC39407501E74EB
:101306001D2FF582E43401F583E0FF121324E4FF78
:0D131600121324D2B69000F5E004F080D848
:0113230022A7
:081786007F93121324D2B62256
:0716BF00900121E0FFE4FDB2
:1016C6009000F7EDF01213249000F7E0FF121324B8
:0316D600D2B62267
:051324009000F8EFF05D
:101329007F327E00121703C2B6E4FFC2C19000F8F3
:10133900E0FE1392B7D2C1EEC313F00FEFB408EB7E
:071349007F327E0002170352
:060819009000F6EFF0F97B
:10081F00E0FF75F06484FDEF75F00A8475F00A84CB
:10082F00AFF0E975F00A84AEF0900132E4F0900178
:10083F0031E4F0900126E4F0900125E4F0900132CC
:10084F00E0FC74272DF582E43401F583E0FBC454FA
:10085F000FFAEC4A900132F0900131E04BF0900129
:10086F0026E0FD74272FF582E43401F583E0FFEDD8
:10087F004F900126F0900125E0FF74272EF582E4BA
:10088F003401F583E0FEEF4E900125F0E9C3940AA1
:10089F00501A9000F6E0C3940040111216BF900159
:1008AF00201216C290011FE0FFE480479000F6E08F
:1008BF00FFC39464501AEFC3940A40141216BF90EA
:1008CF0001201216C290011FE0FF900126E0802345
:1008DF00900121E0FF900132E0FD1216C690012039
:1008EF00E0FF900131E0FD1216C690011FE0FF906E
:1008FF000126E0FD1216C690011EE0FF900125E0D3
:04090F00FD1216C6F9
:0109130022C1
:10002600AD07900134E05430F0EFB407005057901C
:10003600003CF828287302005102005802006102B1
:10004600006A02007302007C020085900134E0F031
:100056008034900134E04440F0802B900134E04439
:10006600C0F08022900134E044C8F0801990013439
:10007600E044CCF08010900134E044CEF08007904C
:100086000134E044CFF0900123E0FF900134E0FD1D
:030096000216C689
:100AC700AD07900133E05480F0900132E4F0ED146B
:100AD700B407004003020B70900AED75F003A4C53C
:100AE7008325F0C58373020B02020B12020B22024D
:100AF7000B32020B42020B52020B62900133E044AD
:100B070004F0900132E04440F0805E900133E0440D
:100B170002F0900132E04420F0804E900133E0442F
:100B270001F0900132E04410F0803E900133E04440
:100B370006F0900132E04460F0802E900133E044EB
:100B470003F0900132E04430F0801E900133E0441E
:100B570005F0900132E04450F0800E900133E044FC
:100B670007F0900132E04470F0900122E0FF90011D
:100B770033E0FD1216C6900121E0FF900132E0FD3F
:030B87000216C68D
:1015B200900133E054F7F0300F04E04408F090015A
:0B15C20022E0FF900133E0FD0216C69E
:1015CD00900124E054EFF0300F04E04410F090014E
:0B15DD001DE0FF900124E0FD0216C697
:1015E800900124E054DFF0300F04E04420F0900133
:0B15F8001DE0FF900124E0FD0216C67C
:10160300900124E054BFF0300F04E04440F0900117
:0B1613001DE0FF900124E0FD0216C660
:10161E00900124E0547FF0300F04E04480F09001FC
:0B162E001DE0FF900124E0FD0216C645
:10163900900125E054F7F0300F04E04408F09001E0
:0B1649001EE0FF900125E0FD0216C628
:10165400900134E054DFF0300F04E04420F09001B6
:0B16640023E0FF900134E0FD0216C6F9
:10166F00900133E054EFF0300F04E04410F090019C
:0B167F0022E0FF900133E0FD0216C6E0
:10168A00900134E054EFF0300F04E04410F0900180
:0B169A0023E0FF900134E0FD0216C6C3
:10058A00C19BC11A41014F0041014E0041014D007A
:0C059A004101505041015100C119C1182D
:100B8A00200603020C39900151E024FE601B24FE6A
:100B9A00604A14607A24FC607B24FC607C240C602C
:100BAA0003020C2D12122B80739000F37464F090E0
:100BBA000151E0B402159000F3E0D39400400CE038
:100BCA0014F07F0A7E001214C680E49000F3E070ED
:100BDA00031209142018031213A380409000F4741E
:100BEA0064F0900151E0B404159000F4E0D394004D
:100BFA00400CE014F07F0A7E001214C680E49000D4
:100C0A00F4E070031216EE201903120FE4800D129D
:100C1A00125F80081213CC80031213F37F327E0016
:0F0C2A001214C6300405D20F1215B2D20CC20636
:010C39002298
:1013CC0090014FE0FFC202C2CC0FD3EF6480948631
:1013DC0040027F0690014FEFF012112990014FE06F
:0713EC00FF120026020F6A48
:1013F30090014FE0FFC202C2CC1FC3EF6480948010
:101403005002E4FF90014FEFF012112990014FE0D9
:07141300FF120026020F6A20
:10122B0090014EE0C202C2CC2405FFD3648094E44B
:10123B0040027F6490014EEFF012155F90014EE07B
:10124B00FF120819900141E0FF120AC7D20F1216C4
:04125B0039020F6ADB
:10125F0090014EE0C202C2CC24FBFFC36480948095
:10126F005002E4FF90014EEFF012155F90014EE037
:10127F00FF120819900141E0FF120AC7D20F121690
:04128F0039020F6AA7
:1013A300C202C2CC900141E0B407057401F080068B
:1013B300900141E004F0900141E0FF120AC73004BC
:0913C30005D20F1215B2020F6AE7
:10091400E49000F5F0900150E09000F5F0C202C2BE
:10092400CC7FF47E010209CB900151E06402700394
:100934000209D1300E0D900150E0FF120819D20FB8
:10094400121603A20EB3502D900121E0FFE4FD1214
:1009540016C6900120E0FFE4FD1216C690011FE0C8
:10096400FFE4FD1216C690011EE0FFE4FD1216C658
:10097400D20F121603900151E0B40123C202C2CC7B
:100984009000F5E02405F0E0D394C8400374C8F067
:100994009000F5E0900150F07F647E001214C69040
:1009A4000151E064057081C202C2CC9000F5E024DC
:1009B400FBF0E0C3943250037432F09000F5E09001
:1009C4000150F07F647E001214C602092CD21890E4
:1009D400014EE0FF120819900141E0FF120AC7C25C
:1009E4000F121603D20F121639300405D20F121546
:0409F400B2020F6AD2
:100FE400C202C2CC90014DE004F0E0B406037401E7
:100FF400F01212F6C20F121639D20F12161E9001F9
:101004004DE0FF12081990014DE0FF12105A7FF4D1
:101014007E011214C61212F6C20F12161EA21AB3C1
:10102400920F1215B2A21A920F1215CD90014EE032
:10103400FF120819900141E0FF120AC7D20F1216DD
:101044003990014FE0FF120026C208C2091211773D
:06105400120C3A021484A4
:1016EE00C202C2CCD219B21AA21A920F1215CD1280
:0516FE001177020F6AE4
:10135000D20F12165430051790014FE0D39400407D
:101360000EA20D920F12166FA20DB3920F8007D22C
:0A1370000F12166FC20F12168A2228
:0E173A00300608900151E07002FF227F01226C
:1011F1003006369000F37464F0900151E070159060
:1012010000F3E0D39400400CE014F07F0A7E00125A
:1012110014C680E59000F3E0700F1212F6C204C20A
:091221000F1215B212178ED21B38
:01122A0022A1
:10143E0068657265005448452076616C7565206F4D
:10144E0066206E7463365F76616C20697320256446
:04145E00200D0A0053
:1005A600420152000041015400420155000042013F
:0705B600570000410159004C
:10117700301A22300B0FD204D20F1215B2D205D279
:1011870008C2098019D209C204C20F1215B2C205DA
:1011970012178E8009D204D20F1215B2D205900110
:0E11A7004EE0FF12155F90014FE0FF0211298C
:10141A0030080D30090AD20590014FE0FF12112958
:10142A00300A107BFF7A14793E120109C20512179D
:04143A008EC20A2232
:0B176100C2A6C2A5C2A4C2C4C2C3221B
:1014A500A201E433FF900152E07003A3E06F6010E6
:1014B500121177A201E4FF33900152CFF0A3EFF0B0
:0114C5002204
:100C3A00900142E0FEA3E0FF900156E02FF0900100
:100C4A0055E03EF0900154E004F0E0B40A1BFD7C4C
:100C5A0000A3E0FEA3E0FF1205D7A3EEF0A3EFF096
:100C6A00E4900154F0A3F0A3F07B017A007900909C
:100C7A000157E0FFA3E09000F9CFF0A3EFF07D79F0
:100C8A00120EE9900159EFF07BFF7A147943900034
:100C9A00F8E4F0A3EFF0120109900150E0FF90018F
:100CAA0059E0C39F400BD20F1215E8D285A20E92CB
:100CBA00CC900150E0FF900159E0C39F5009C20F48
:070CCA001215E8C285D2CC2F
:010CD1002200
:1010C5003D3D3D3D3D3D3D3D20636F646520737471
:1010D500617274203D3D3D3D3D3D3D3D0D0A005451
:1010E50068652076616C7565206F662070776D5F29
:1010F5006164635F76616C206973202564200D0A45
:10110500005468652076616C7565206F66206E7485
:1011150063365F6164635F76616C20697320256463
:04112500200D0A008F
:1006FF0043BA801215051217551216D91217171271
:10070F00176C12172AD288D2A8D2AFC2C2C2A3D2F4
:10071F00CC121462C28512178E7BFF7A1079C51224
:10072F000109E4FFFE121542EF64016055EF640208
:10073F006050EF6403604BEF64046046EF64056044
:10074F004190014D7401F0900141F0D21A90014F88
:10075F007403F090014E7432F09001507464F012F3
:10076F0014849000F27401F09000F2E0FFC394063D
:10077F00501090014DEFF0120F6A9000F2E004F06C
:10078F0080E67FE87E031214C6301B0A12173AEF79
:10079F0024FF921B80F3C2A01217611216A512112B
:1007AF00B5D20F121639300405D20F1215B2C2028C
:1007BF00C2CC120B8A1213501214A5120C3A7BFFE3
:1007CF007A1079E490013EE0FFA3E09000F8CFF0BB
:1007DF00A3EFF01201097BFF7A117906900142E035
:1007EF00FFA3E09000F8CFF0A3EFF012010912146D
:1007FF001A1211F1301BBBC202C2CCD2A6D2A5D2A3
:0A080F00A4D2C4D2C3D2A002079104
:100CDE000206FFE493A3F8E493A34003F68001F227
:100CEE0008DFF48029E493A3F85407240CC8C33317
:100CFE00C4540F4420C8834004F456800146F6DFE6
:100D0E00E4800B0102040810204080900403E47E6E
:100D1E00019360BCA3FF543F30E509541FFEE493DA
:100D2E00A360010ECF54C025E060A840B8E493A3A1
:100D3E00FAE493A3F8E493A3C8C582C8CAC583CACC
:100D4E00F0A3C8C582C8CAC583CADFE9DEE780BE84
:0105BD00003D
:1005BE00BB010689828A83E0225002E722BBFE023B
:0905CE00E32289828A83E493226E
:1005D700BC000BBE0029EF8DF084FFADF022E4CC08
:1005E700F875F008EF2FFFEE33FEEC33FCEE9DECD1
:1005F700984005FCEE9DFE0FD5F0E9E4CEFD22ED17
:10060700F8F5F0EE8420D21CFEADF075F008EF2F60
:10061700FFED33FD4007985006D5F0F222C398FD51
:050627000FD5F0EA22EE
:10062C00A3F8E0C5F025F0F0E58215827002158381
:06063C00E0C838F0E822DE
:10064200BB0110E58229F582E5833AF583E0F5F0F6
:10065200A3E0225009E92582F886F008E622BBFED3
:100662000AE92582F8E2F5F008E222E5832AF58319
:08067200E993F5F0A3E99322DE
:10009E00E50824F8F582E43400F583E005082290A3
:1000AE0000F53016039000F8E475F0011206B9025F
:1000BE0005BE200FE97F2ED20F8018EF540F24902B
:1000CE00D43440D4FF30130BEF24BFB41A005003C6
:1000DE002461FFE50960021509050CE50C700205A7
:1000EE000B30160E9000F5E475F0011206B9EF0212
:1000FE0006A702177E7403D2168003E4C216F50813
:10010E009000F51206D0E4F509F50BF50CE5096043
:10011E00077F201200E180F5750AFFC210C20FC2E0
:10012E0011C212C214C215C2171200ADFF700D30EB
:10013E0016057F001200F2AF0CAE0B22B4255FC283
:10014E00D5C2131200ADFF24D0B40A00501A75F0B8
:10015E000A780930D50508B6FF0106C6A426F62092
:10016E00D5047002D21280D924CFB41A00EF5004F5
:10017E00C2E5D2130202F3D21080C6D20F80C0D2D3
:10018E001180BCD2D580BAD21480B47F201200E187
:10019E002011077401B5090040F112009EFF1200F4
:1001AE00E102011BD217D215809512009EFB1200A0
:1001BE009EFA12009EF94A4B700679C47A037BFFB1
:1001CE0020112EE509602A7E008E827583001206AC
:1001DE007A60060EEE650A70F0C2D5EBC0E0EAC09A
:1001EE00E0E9C0E0EE12033AD0E0F9D0E0FAD0E058
:1001FE00FB1205BEFF60AAEBC0E0EAC0E0E9C0E07A
:10020E001200E1D0E02401F9D0E03400FAD0E0FB96
:10021E00E50A0460DCD50AD980877BFF7A0379363C
:10022E00D211809C791080027908C215C2178008FD
:10023E00D2D5790A8004790AC2D5E50A047002F58E
:10024E000AE4FAFDFEFF12009EFC7B08201013123A
:10025E00009EFD7B10300F0A12009EFE12009EFFC4
:10026E007B20EC3382D592D55013C3E4300F069F1A
:10027E00FFE49EFEE42010039DFDE49CFCE4CBF81D
:10028E00C210EC700CCFCECDCCE824F8F870F38011
:10029E0017C3EF33FFEE33FEED33FDEC33FCEB33E0
:1002AE00FB994002FB0FD8E9EB301005F8D0E0C403
:1002BE0048B210C0E00AEC4D4E4F78207B0070C261
:1002CE00EAB50A0040BCC0E012033CD0F0D0E020FA
:1002DE001004C4C0E0C4B210C0F01200CAD0F0D5F1
:1002EE00F0EB02011B1206D901B8530232580189F4
:1002FE004C01854202364F023E44023E49019E4366
:08030E000244550228460228B2
:100316004502284703E450018D2D01912E01B42B8F
:1003260001952301B22003CD2A014D48000001ACFE
:100336003F3F3F00790AA2D5201214301409B910A4
:10034600020404B9080104A2D520150250010420B4
:1003560011689211B509005034C0E07F203012199F
:100366007F30A21172157214500F120393C211C27C
:1003760015C214C2177F30800F301403E9C0E01293
:1003860000E1301403D0E0F9D0E0B509CC30141701
:100396007F30B9100C1200E17F583013077F788048
:1003A60003B908031200E13011057F2D0200E17F39
:1003B600202017F87F2B2015F322921180CF286E6C
:1003C600756C6C2900D21012009E3010F8C210789D
:1003D6000930D50108F602014D2D50434958120047
:1003E6009E2403B405004001E49003DF931200D27B
:0D03F600743A1200D2D212750904020232CC
:10067A00BB010CE58229F582E5833AF583E0225035
:10068A0006E92582F8E622BBFE06E92582F8E2227F
:0D069A00E58229F582E5833AF583E4932299
:1006A700BB010689828A83F0225002F722BBFE0132
:0206B700F3222C
:1006B900F8E0FBA3A3E0F925F0F0E58215827002CA
:0706C9001583E0FA38F0226E
:0906D000EBF0A3EAF0A3E9F0222B
:1006D900D083D082F8E4937012740193700DA3A3B0
:1006E90093F8740193F5828883E4737402936860C4
:0606F900EFA3A3A380DFC4
:00000001FF
