:03000000020C37B8
:0C0C3700787FE4F6D8FD758123020C7E66
:0C15F800759D27E4F5BDF5BE75BCA02272
:1012DB00E4FDFCEF1444A842BCE5BC30E4FB53BC7A
:1012EB00EFAFBEAD07AFBDEF75F004A4FFE5F0FCAB
:0512FB00ED4FAE04FF01
:0113000022CA
:10136800D3EF9400EE9400401600000075080B754A
:0F13780009BED509FDD508FAEF1F70E41E80E10C
:011387002243
:1015A600D3EF9400EE9400400A000000EF1F70F0A5
:0415B6001E80ED2284
:0D000E00E4F5C7F5C5F5C675C380F5C4223D
:1013E50075C78375C5018FC4EEF5C375C65A75C635
:0D13F500A57F0A7E00121368AFC202000E31
:1013880075C78375C5028FC4EEF5C3AF058FC275E7
:0F139800C65A75C6A57F0A7E0012136802000EA2
:10141F0075C78375C5038FC4EEF5C375C65A75C6F8
:0B142F00A57F0A7E0012136802000E69
:1010A700E49000F6F0A3F0A3F0A37402F0E4FFFECF
:1010B70012141F9000F6E0FEA3E0FF900146E0FD4A
:1010C7001213889000F8E0FEA3E0FF900145E0FDD1
:0710D700121388C201C2CC14
:0110DE0022EF
:100E470090013DE0900140F0A218E433A3F0900137
:100E570048E0900142F0900147E0900143F0900193
:100E670049E0900144F0900146E075F002A47F004C
:100E7700FE9000F8F0A3EFF012141FE49000F7F0D3
:100E87009000F7E0FDC39405502BA3E0FEA3E0FF1D
:100E970074402DF582E43401F583E0FD1213889048
:100EA70000F9E004F070069000F8E004F09000F715
:090EB700E004F080CBC201C2CCC2
:010EC000220F
:10106B00E4FFFE1213E5900146EFF0120F33A202DC
:10107B00920D121455D20D1214DCA218920D1214EB
:10108B0070900147E0FF12080690013DE0FF120A45
:0C109B00C4900148E0FF12002602102D56
:100F3300EF75F002A49000F7F0A3E4F09000F6F050
:100F43009000F7E0FEA3E0FF1213E59000F6E02423
:100F530040F582E43401F583EFF09000F8E004F00B
:100F630070069000F7E004F09000F6E004F0E0C3B0
:100F7300940540CC900140E090013DF0900141E0A8
:100F830024FF9218A3E0900148F0900143E0900100
:0A0F930047F0900144E0900149F09E
:010F9D002231
:1013A700759420E4F593759280F59175967FF59580
:0F13B700F5B2F5B175B41CF5B375CA10F5C922BE
:1004030060F20000011A0123012C0135013E01476E
:100413000151015A0164016E01770181018B01943D
:10042300019E01A801B201BC01C601CF01D901E3BC
:1004330001ED01F60200020A0213021D0226022F39
:1004430002380242024B0254025C0265026E0276DB
:10045300027F0287028F0297029F02A702AF02B6B2
:1004630002BE02C502CC02D302DA02E102E702EEC7
:1004730002F402FB03010307030D03120318031D18
:1004830003230328032D03320337033C03410345AE
:10049300034A034E03520356035A035E0362036681
:1004A300036A036D037103740378037B037E038183
:1004B30003840387038A038D038F039203950397B2
:1004C3000399039C039E03A003A303A503A703A906
:1004D30003AB03AD03AF03B103B203B403B603B875
:1004E30003B903BB03BC03BE03BF03C103C203C4FD
:0604F30003C503C603C7A8
:0E0D49009000FBEBF0A3EAF0A3E9F0A3EDF0BD
:100D5700E4900102F0900101F09000FEE014FF9092
:100D67000101E0FEC39F50559000FBE0FBA3E0FAB2
:100D7700A3E0F975F002EEA4F58285F08312061A56
:100D8700FF9000FFE0FCA3E0FDC39FEC95F040253A
:100D9700A3E02401FFE433FEEF25E0FFEE33FE8FEF
:100DA700828E8312061AFFC3ED9FEC95F0500690D2
:100DB7000101E0A3F0900101E004F0809C900102A2
:020DC700E0FF4B
:010DC9002207
:050EC1009000F6EFF0C7
:100EC6009000F8740AF0E4A3F0A3F09000F7F09015
:100ED60000F8E0FF9000F7E0C39F501C9000F6E09A
:100EE600FF1212DB9000FAE02FF09000F9E03EF0DE
:100EF6009000F7E004F080D79000F9E0FEA3E0FF51
:100F06009000F8E0FD7C001205AFA3EEF0A3EFF031
:100F16007B017A0079009000F9E0FFA3E09000FFE2
:0C0F2600CFF0A3EFF07D79120D497E00A2
:010F3200229C
:1013250075F10890FFF2740BF090FFF07410F0A3C4
:10133500E4F090FF30F0A3F0A3F0A3740AF0A3E467
:02134500F02294
:10143A009000F6EEF0A3EFF012001E9000F6E0FF27
:0B144A00A3E090FF32CFF0A3EFF022F0
:04001E0075F58822CA
:06163100E4F5F5D2A3224E
:100F9E0030034AEFB407005044900FAEF828287380
:100FAE00020FC3020FC6020FCC020FD2020FD802DD
:100FBE000FDE020FE40216317FD07E07801C7F60A9
:100FCE007E0980167FF07E0A80107F807E0C800A5C
:0E0FDE007F107E0E80047FA07E0F12143A2238
:1004F900C10BC10CC105C181C18AC104C109C18235
:10050900C183C100C106C107C10841013D014201C2
:100519003EE42041013400410135004101360041EA
:10052900013700410138004101390041013A0042D7
:04053900013B000082
:1015BA00438E805389F0758CCD758AD4C28DD28CB6
:0315CA00D2A92281
:0A160F00538EBF53890F4389102248
:1015CD0053D1FDE4F5D575D4DC43D10843AF2022CA
:030003000211B037
:1011B000C0E0C083C082C0D075D000C006D2A2D229
:1011C000A1D29790013EE0FEA3E0F58BEEF58DD223
:1011D00005D28ED2ABD006D0D0D082D083D0E03230
:03000B00020022CE
:0100220032AB
:03001B00020CC311
:100CC300C0E0C0F0C083C082C0D030056430026190
:100CD30090013DE014B40700504D900CEB75F00308
:100CE300A4C58325F0C58373020D00020D08020D10
:100CF3000C020D10020D18020D1C020D24C297D216
:100D0300A1D2A28022D2978006D297800EC297C228
:100D1300A1D2A28012D297800AC297D2A1C2A28086
:100D230006C297C2A1C2A2C205758BF7758DFF805B
:100D33000AD2A2D2A1D297C28EC2ABD0D0D082D0D7
:060D430083D0F0D0E03285
:03009B000209E572
:0809E500C0E0C083C082C0D055
:1009ED0030062A30072790013CE004F07006900194
:1009FD003BE004F090013BE0B40512A3E0B4DC0D44
:100A0D0090013BE4F0A3F0C206C207D208A2078210
:100A1D0006400790013BE4F0A3F0900139E004F0AB
:100A2D00E0D3940F4004B20BE4F090013AE004F0EF
:100A3D00E0D394324004B20CE4F0900136E004F0BF
:100A4D00E0D39405400AE4F0E580540F90014AF09C
:100A5D00301710900137E004F0E0D394964004C2B3
:100A6D0017E4F0301610900138E004F0E0D39496BE
:100A7D004004C216E4F0200112900134E004F0E0CD
:100A8D00D3940A4006E4F0D201D2CC300A12900180
:100A9D0035E004F0E0D3940A4006D204C20AE4F033
:0E0AAD00208704D209D200308704C209C2009B
:090ABB00D0D0D082D083D0E0320B
:10140200300204D2AB8002C2ABEF75F040A42420BC
:0D141200FEE5F034E490013EF0A3CEF022A0
:10157C00759850438E01438E0475D7E875D6FF439A
:05158C008E10D2AC221C
:030023000215EBD8
:0D15EB00309904C299C21A309802C2983299
:08161900201AFDD21A8F99225C
:10117D0090014BEBF0A3EAF0A3E9F090014BE0FBFB
:10118D00A3E0FAA3E0F9120596601790014BA3E4D2
:10119D0075F001120604A9F0FA120596FF12161940
:0311AD0080D922C4
:081621008F993099FDC2992256
:10053D00410123004101240041012500410130000A
:10054D0041013100410132004101330047011CC31B
:10055D00C6C7CACBCECF4A0126F505D39727B6F627
:03056D0015F7B7C8
:10154800D2B6D2C1D2B7E4FF12120ED2B67F44127D
:0A155800120ED2B61211E00216299D
:1011E000E49000F6F09000F6E0FFC39407501E7400
:1011F0001C2FF582E43401F583E0FF12120EE4FFA8
:0D12000012120ED2B69000F6E004F080D875
:01120D0022BE
:081629007F9312120ED2B622CB
:07156200900120E0FFE4FD11
:101569009000F8EDF012120E9000F8E0FF12120E42
:03157900D2B622C5
:05120E009000F9EFF073
:101213007F327E001215A6C2B6E4FFC2C19000F968
:10122300E0FE1392B7D2C1EEC313F00FEFB408EB95
:071233007F327E000215A6C8
:060806009000F7EFF0F98D
:10080C00E0FF75F06484FDEF75F00A8475F00A84DE
:10081C00AFF0E975F00A84AEF0900131E4F090018C
:10082C0030E4F0900125E4F0900124E4F0900131E3
:10083C00E0FC74262DF582E43401F583E0FBC4540E
:10084C000FFAEC4A900131F0900130E04BF090013E
:10085C0025E0FD74262FF582E43401F583E0FFEDED
:10086C004F900125F0900124E0FF74262EF582E4D0
:10087C003401F583E0FEEF4E900124F0E9C3940AB5
:10088C00501A9000F7E0C3940040111215629001C9
:10089C001F12156590011EE0FFE480479000F7E001
:1008AC00FFC39464501AEFC3940A4014121562905B
:1008BC00011F12156590011EE0FF900125E08023B9
:1008CC00900120E0FF900131E0FD12156990011FAD
:1008DC00E0FF900130E0FD12156990011EE0FF90E1
:1008EC000125E0FD12156990011DE0FF900124E047
:0408FC00FD1215696B
:0109000022D4
:10002600AD07900133E05430F0EFB407005057901D
:10003600003CF828287302005102005802006102B1
:10004600006A02007302007C020085900133E0F032
:100056008034900133E04440F0802B900133E0443B
:10006600C0F08022900133E044C8F080199001333B
:10007600E044CCF08010900133E044CEF08007904D
:100086000133E044CFF0900122E0FF900133E0FD20
:03009600021569E7
:100AC400AD07900132E05480F0900131E4F0ED1470
:100AD400B407004003020B6D900AEA75F003A4C545
:100AE4008325F0C58373020AFF020B0F020B1F025A
:100AF4000B2F020B3F020B4F020B5F900132E044BD
:100B040004F0900131E04440F0805E900132E04412
:100B140002F0900131E04420F0804E900132E04434
:100B240001F0900131E04410F0803E900132E04445
:100B340006F0900131E04460F0802E900132E044F0
:100B440003F0900131E04430F0801E900132E04423
:100B540005F0900131E04450F0800E900132E04401
:100B640007F0900131E04470F0900121E0FF900122
:100B740032E0FD121569900120E0FF900131E0FDA3
:030B8400021569EE
:10145500900132E054F7F0300D04E04408F09001BB
:0B14650021E0FF900132E0FD0215695C
:10147000900123E054EFF0300D04E04410F09001AF
:0B1480001CE0FF900123E0FD02156955
:10148B00900123E054DFF0300D04E04420F0900194
:0B149B001CE0FF900123E0FD0215693A
:1014A600900123E054BFF0300D04E04440F0900179
:0B14B6001CE0FF900123E0FD0215691F
:1014C100900123E0547FF0300D04E04480F090015E
:0B14D1001CE0FF900123E0FD02156904
:1014DC00900124E054F7F0300D04E04408F0900142
:0B14EC001DE0FF900124E0FD021569E7
:1014F700900133E054DFF0300D04E04420F0900118
:0B15070022E0FF900133E0FD021569B7
:10151200900132E054EFF0300D04E04410F09001FD
:0B15220021E0FF900132E0FD0215699E
:10152D00900133E054EFF0300D04E04410F09001E1
:0B153D0022E0FF900133E0FD02156981
:10057000C199C118410148004101470041014600AD
:10058000410145004101495041014A00C117C116CE
:100B8700200403020C3690014AE024FE601B24FE79
:100B9700604A14607A24FC607B24FC607C240C602F
:100BA70003020C2A12111580739000F47464F090FC
:100BB700014AE0B402159000F4E0D39400400CE041
:100BC70014F07F0A7E0012136880E49000F4E0704E
:100BD7000312090120160312126480409000F57475
:100BE70064F090014AE0B404159000F5E0D3940056
:100BF700400CE014F07F0A7E0012136880E4900036
:100C0700F5E07003121591201703120DCA800D121B
:100C17001149800812128D80031212B47F327E00B0
:0F0C2700121368300205D20D121455D20AC204FE
:010C3600229B
:10128D00900148E0FFC201C2CC0FD3EF6480948679
:10129D0040027F06900148EFF0120F9E900148E04A
:0712AD00FF120026020E47AC
:1012B400900148E0FFC201C2CC1FC3EF6480948058
:1012C4005002E4FF900148EFF0120F9E900148E0B5
:0712D400FF120026020E4785
:10111500900147E0C201C2CC2405FFD3648094E46A
:1011250040027F64900147EFF0121402900147E0FE
:10113500FF12080690013DE0FF120AC4D20D1214F9
:04114500DC020E4773
:10114900900147E0C201C2CC24FBFFC364809480B4
:101159005002E4FF900147EFF0121402900147E0BA
:10116900FF12080690013DE0FF120AC4D20D1214C5
:04117900DC020E473F
:10126400C201C2CC90013DE0B407057401F08006D0
:1012740090013DE004F090013DE0FF120AC4300209
:0912840005D20D121455020E47AB
:10090100E49000F6F0900149E09000F6F0C201C2D7
:10091100CC7FF47E010209B890014AE064027003C1
:100921000209BE300C0D900149E0FF120806D20DFC
:100931001214A6A20CB3502D900120E0FFE4FD1289
:10094100156990011FE0FFE4FD12156990011EE099
:10095100FFE4FD12156990011DE0FFE4FD12156928
:10096100D20D1214A690014AE0B40123C201C2CCF7
:100971009000F6E02405F0E0D394C8400374C8F079
:100981009000F6E0900149F07F647E0012136890B8
:10099100014AE064057081C201C2CC9000F6E024F6
:1009A100FBF0E0C3943250037432F09000F6E09013
:1009B1000149F07F647E00121368020919D2169072
:1009C1000147E0FF12080690013DE0FF120AC4C290
:1009D1000D1214A6D20D1214DC300205D20D121420
:0409E10055020E4766
:100DCA00C201C2CC900146E004F0E0B4060374010B
:100DDA00F01211E0C20D1214DCD20D1214C19001EE
:100DEA0046E0FF120806900146E0FF120F337FF437
:100DFA007E011213681211E07F1E7E00121368C270
:100E0A000D1214C1A218B3920D121455A218920D04
:100E1A00121470900147E0FF12080690013DE0FFAE
:100E2A00120AC4D20D1214DC900148E0FF12002607
:0D0E3A00C206C20712102D1210DF0210A711
:10159100C201C2CCD217B218A218920D1214701245
:0515A100102D020E47B1
:10123A00D20D1214F7300317900148E0D3940040FE
:10124A000EA20B920D121512A20BB3920D8007D2A9
:0A125A000D121512C20D12152D22FF
:0E15DD0030040890014AE07002FF227F0122D4
:100FEC0030043D9000F47464F090014AE070159068
:100FFC0000F4E0D39400400CE014F07F0A7E001261
:10100C00136880E59000F4E07016900145F0121022
:10101C00A71211E0C202C20D121455121631D219C8
:01102C0022A1
:05000600686572650051
:0505900042014E0000D5
:10102D0030182230090FD202D20D121455D203D22C
:10103D0006C2078019D207C202C20D121455C2038F
:10104D001216318009D202D20D121455D20390011D
:0E105D0047E0FF121402900148E0FF020F9ED0
:1013010030060D30070AD203900148E0FF120F9E0C
:101311003008107BFF7A007906120109C203121608
:0413210031C20822AB
:0B160400C2A6C2A5C2A4C2C4C2C32279
:10134700A200E433FF90014EE07003A3E06F60104A
:1013570012102DA200E4FF3390014ECFF0A3EFF05F
:011367002263
:1010DF007F06120EC1900150EFF0900149E0FEEF34
:1010EF00C39E400BD20D12148BD285A20C92CC90C2
:1010FF000149E0FF900150E0C39F5009C20D121447
:05110F008BC285D2CC6B
:0111140022B8
:1013C6003D3D3D3D3D3D3D3D20636F64652073746D
:0F13D600617274203D3D3D3D3D3D3D3D0D0A00A2
:1006D70043BA801213A71215F812157C1215BA1215
:1006E700160F1215CDD2A2D2A1D297D288D2AFC2FD
:1006F700C2C2A3D2CC121325C2851216317BFF7A50
:100707001379C6120109121548E4FFFE1213E5908A
:1007170000F2EFF07F027E001213E5900145EFF043
:100727009000F2E0FF6401605BEF64026056EF64E3
:10073700036051EF6404604CEF6405604790014625
:100747007401F0E4900145F090013D04F0D2189057
:1007570001487403F09001477432F09001497464C2
:10076700F01210A79000F37401F09000F3E0FFC3BC
:1007770094065018900146EFF0120E479000F3E0F0
:1007870004F080E69000F2E0900146F07FE87E03F7
:10079700121368900145E0B40104C2198002D2190E
:1007A70030190A1215DDEF24FF921980F3D2A890B1
:1007B70001457401F01210A7C2A07F0A7E00121330
:1007C7006812160412106BD20D1214DC300205D217
:1007D7000D121455C201C2CC120B8712123A121312
:1007E700471210DF121301120FEC3019EBC201C2CE
:0F07F700CCD2A6D2A5D2A4D2C4D2C3D2A0808D18
:100C43000206D7E493A3F8E493A34003F68001F2EA
:100C530008DFF48029E493A3F85407240CC8C333B2
:100C6300C4540F4420C8834004F456800146F6DF81
:100C7300E4800B0102040810204080900403E47E0A
:100C8300019360BCA3FF543F30E509541FFEE49376
:100C9300A360010ECF54C025E060A840B8E493A33D
:100CA300FAE493A3F8E493A3C8C582C8CAC583CA68
:100CB300F0A3C8C582C8CAC583CADFE9DEE780BE20
:010595000065
:10059600BB010689828A83E0225002E722BBFE0263
:0905A600E32289828A83E4932296
:1005AF00BC000BBE0029EF8DF084FFADF022E4CC30
:1005BF00F875F008EF2FFFEE33FEEC33FCEE9DECF9
:1005CF00984005FCEE9DFE0FD5F0E9E4CEFD22ED3F
:1005DF00F8F5F0EE8420D21CFEADF075F008EF2F89
:1005EF00FFED33FD4007985006D5F0F222C398FD7A
:0505FF000FD5F0EA2217
:10060400A3F8E0C5F025F0F0E582158270021583A9
:06061400E0C838F0E82206
:10061A00BB0110E58229F582E5833AF583E0F5F01E
:10062A00A3E0225009E92582F886F008E622BBFEFB
:10063A000AE92582F8E2F5F008E222E5832AF58341
:08064A00E993F5F0A3E9932206
:10009E00E50824F7F582E43400F583E005082290A4
:1000AE0000F43014039000F7E475F001120691028B
:1000BE000596200DE97F2ED20D8018EF540F249057
:1000CE00D43440D4FF30110BEF24BFB41A005003C8
:1000DE002461FFE50960021509050CE50C700205A7
:1000EE000B30140E9000F4E475F001120691EF023D
:1000FE00067F0216217403D2148003E4C214F5089D
:10010E009000F41206A8E4F509F50BF50CE509606C
:10011E00077F201200E180F5750AFFC20EC20DC2E4
:10012E000FC210C212C213C2151200ADFF700D30F5
:10013E0014057F001200F2AF0CAE0B22B4255FC285
:10014E00D5C2111200ADFF24D0B40A00501A75F0BA
:10015E000A780930D50508B6FF0106C6A426F62092
:10016E00D5047002D21080D924CFB41A00EF5004F7
:10017E00C2E5D2110202F3D20E80C6D20D80C0D2D9
:10018E000F80BCD2D580BAD21280B47F201200E18B
:10019E00200F077401B5090040F112009EFF1200F6
:1001AE00E102011BD215D213809512009EFB1200A4
:1001BE009EFA12009EF94A4B700679C47A037BFFB1
:1001CE00200F2EE509602A7E008E827583001206AE
:1001DE005260060EEE650A70F0C2D5EBC0E0EAC0C2
:1001EE00E0E9C0E0EE12033AD0E0F9D0E0FAD0E058
:1001FE00FB120596FF60AAEBC0E0EAC0E0E9C0E0A2
:10020E001200E1D0E02401F9D0E03400FAD0E0FB96
:10021E00E50A0460DCD50AD980877BFF7A0379363C
:10022E00D20F809C791080027908C213C215800803
:10023E00D2D5790A8004790AC2D5E50A047002F58E
:10024E000AE4FAFDFEFF12009EFC7B08200E13123C
:10025E00009EFD7B10300D0A12009EFE12009EFFC6
:10026E007B20EC3382D592D55013C3E4300D069F1C
:10027E00FFE49EFEE4200E039DFDE49CFCE4CBF81F
:10028E00C20EEC700CCFCECDCCE824F8F870F38013
:10029E0017C3EF33FFEE33FEED33FDEC33FCEB33E0
:1002AE00FB994002FB0FD8E9EB300E05F8D0E0C405
:1002BE0048B20EC0E00AEC4D4E4F78207B0070C263
:1002CE00EAB50A0040BCC0E012033CD0F0D0E020FA
:1002DE000E04C4C0E0C4B20EC0F01200CAD0F0D5F5
:1002EE00F0EB02011B1206B101B85302325801891C
:1002FE004C01854202364F023E44023E49019E4366
:08030E000244550228460228B2
:100316004502284703E450018D2D01912E01B42B8F
:1003260001952301B22003CD2A014D48000001ACFE
:100336003F3F3F00790AA2D5201014301209B910A8
:10034600020404B9080104A2D520130250010420B6
:100356000F68920FB509005034C0E07F20301019A5
:100366007F30A20F72137212500F120393C20FC284
:1003760013C212C2157F30800F301203E9C0E0129B
:1003860000E1301203D0E0F9D0E0B509CC30121705
:100396007F30B9100C1200E17F583011077F78804A
:1003A60003B908031200E1300F057F2D0200E17F3B
:1003B600202015F87F2B2013F322920F80CF286E72
:1003C600756C6C2900D20E12009E300EF8C20E78A3
:1003D6000930D50108F602014D2D50434958120047
:1003E6009E2403B405004001E49003DF931200D27B
:0D03F600743A1200D2D210750904020232CE
:10065200BB010CE58229F582E5833AF583E022505D
:1006620006E92582F8E622BBFE06E92582F8E222A7
:0D067200E58229F582E5833AF583E49322C1
:10067F00BB010689828A83F0225002F722BBFE015A
:02068F00F32254
:10069100F8E0FBA3A3E0F925F0F0E58215827002F2
:0706A1001583E0FA38F02296
:0906A800EBF0A3EAF0A3E9F02253
:1006B100D083D082F8E4937012740193700DA3A3D8
:1006C10093F8740193F5828883E4737402936860EC
:0606D100EFA3A3A380DFEC
:00000001FF
