:03000000020BFDF3
:0C0BFD00787FE4F6D8FD758123020C44DB
:0C15A200759D27E4F5BDF5BE75BCA022C8
:10125B00E4FDFCEF1444A842BCE5BC30E4FB53BCFA
:10126B00EFAFBEAD07AFBDEF75F004A4FFE5F0FC2B
:05127B00ED4FAE04FF81
:01128000224B
:10132F00D3EF9400EE9400401600000075080B7583
:0F133F0009BED509FDD508FAEF1F70E41E80E145
:01134E00227C
:10155000D3EF9400EE9400400A000000EF1F70F0FB
:041560001E80ED22DA
:0D000E00E4F5C7F5C5F5C675C380F5C4223D
:1013AC0075C78375C5018FC4EEF5C375C65A75C66E
:0D13BC00A57F0A7E0012132FAFC202000EA3
:10134F0075C78375C5028FC4EEF5C3AF058FC27520
:0F135F00C65A75C6A57F0A7E0012132F02000E14
:1013C90075C78375C5038FC4EEF5C375C65A75C64F
:0B13D900A57F0A7E0012132F02000EF9
:1012ED00E49000F5F0A3F0FFFE1213C99000F5E0B5
:1012FD00FEA3E0FF900144E0FD12134FC201C2CCEA
:01130D0022BD
:100D900090013CE090013FF0A218E433A3F09001F1
:100DA00046E0900141F0900145E0900142F0900151
:100DB00047E0900143F0900144E075F002A47F0009
:100DC000FE9000F7F0A3EFF01213C9E49000F6F0E4
:100DD0009000F6E0FDC39405502BA3E0FEA3E0FFD6
:100DE000743F2DF582E43401F583E0FD12134F903A
:100DF00000F8E004F070069000F7E004F09000F6D0
:090E0000E004F080CBC201C2CC79
:010E090022C6
:100FE900E4FFFE1213AC900144EFF0120EF2A202DC
:100FF900920D1213FFD20D121486A218920D12141B
:101009001A900145E0FF1206D390013CE0FF120A55
:0C1019008A900146E0FF120026020FAB97
:100EF200EF75F002A49000F6F0A3E4F09000F5F094
:100F02009000F6E0FEA3E0FF1213AC9000F5E0249F
:100F12003FF582E43401F583EFF09000F7E004F04E
:100F220070069000F6E004F09000F5E004F0E0C3F3
:100F3200940540CC90013FE090013CF0900140E0EC
:100F420024FF9218A3E0900146F0900142E0900144
:0A0F520045F0900143E0900147F0E4
:010F5C002272
:10136E00759420E4F593759280F59175967FF595B9
:0F137E00F5B2F5B175B41CF5B375CA10F5C922F7
:1004030060F20000011A0123012C0135013E01476E
:100413000151015A0164016E01770181018B01943D
:10042300019E01A801B201BC01C601CF01D901E3BC
:1004330001ED01F60200020A0213021D0226022F39
:1004430002380242024B0254025C0265026E0276DB
:10045300027F0287028F0297029F02A702AF02B6B2
:1004630002BE02C502CC02D302DA02E102E702EEC7
:1004730002F402FB03010307030D03120318031D18
:1004830003230328032D03320337033C03410345AE
:10049300034A034E03520356035A035E0362036681
:1004A300036A036D037103740378037B037E038183
:1004B30003840387038A038D038F039203950397B2
:1004C3000399039C039E03A003A303A503A703A906
:1004D30003AB03AD03AF03B103B203B403B603B875
:1004E30003B903BB03BC03BE03BF03C103C203C4FD
:0604F30003C503C603C7A8
:0E0D0F009000FAEBF0A3EAF0A3E9F0A3EDF0F8
:100D1D00E4900101F0900100F09000FDE014FF90CF
:100D2D000100E0FEC39F50559000FAE0FBA3E0FAEE
:100D3D00A3E0F975F002EEA4F58285F08312061694
:100D4D00FF9000FEE0FCA3E0FDC39FEC95F0402575
:100D5D00A3E02401FFE433FEEF25E0FFEE33FE8F29
:100D6D00828E83120616FFC3ED9FEC95F050069010
:100D7D000100E0A3F0900100E004F0809C900101DF
:020D8D00E0FF85
:010D8F002241
:050E80009000F5EFF009
:100E85009000F7740AF0E4A3F0A3F09000F6F09058
:100E950000F7E0FF9000F6E0C39F501C9000F5E0DE
:100EA500FF12125B9000F9E02FF09000F8E03EF0A1
:100EB5009000F6E004F080D79000F8E0FEA3E0FF94
:100EC5009000F7E0FD7C001205ABA3EEF0A3EFF078
:100ED5007B017A0079009000F8E0FFA3E09000FE26
:0C0EE500CFF0A3EFF07D79120D0F7E001E
:010EF10022DE
:1012CB0075F10890FFF2740BF090FFF07410F0A31F
:1012DB00E4F090FF30F0A3F0A3F0A3740AF0A3E4C2
:0212EB00F022EF
:1013E4009000F5EEF0A3EFF012001E9000F5E0FF80
:0B13F400A3E090FF32CFF0A3EFF02247
:04001E0075F58822CA
:0615DB00E4F5F5D2A322A5
:100F5D0030034AEFB407005044900F6DF828287302
:100F6D00020F82020F85020F8B020F91020F970263
:100F7D000F9D020FA30215DB7FD07E07801C7F60C3
:100F8D007E0980167FF07E0A80107F807E0C800A9D
:0E0F9D007F107E0E80047FA07E0F1213E422D0
:1004F900C10BC10CC105C181C18AC104C109C18235
:10050900C183C100C106C107C10841013C014201C3
:100519003DE9E84101330041013400410135004121
:1005290001360041013700410138004101390042DB
:04053900013A000083
:10156400438E805389F0758CCD758AD4C28DD28C0C
:03157400D2A922D7
:0A15B900538EBF53890F438910229F
:1015770053D1FDE4F5D575D4DC43D10843AF202220
:03000300021130B7
:10113000C0E0C083C082C0D075D000C006D2A2D2A9
:10114000A1D29790013DE0FEA3E0F58BEEF58DD2A4
:1011500005D28ED2ABD006D0D0D082D083D0E032B0
:03000B00020022CE
:0100220032AB
:03001B00020C894B
:100C8900C0E0C0F0C083C082C0D0300564300261CA
:100C990090013CE014B40700504D900CB175F0037D
:100CA900A4C58325F0C58373020CC6020CCE020CC1
:100CB900D2020CD6020CDE020CE2020CEAC297D276
:100CC900A1D2A28022D2978006D297800EC297C263
:100CD900A1D2A28012D297800AC297D2A1C2A280C1
:100CE90006C297C2A1C2A2C205758BF7758DFF8096
:100CF9000AD2A2D2A1D297C28EC2ABD0D0D082D012
:060D090083D0F0D0E032BF
:03009B000209ABAC
:0809AB00C0E0C083C082C0D08F
:1009B30030062A30072790013BE004F070069001CF
:1009C3003AE004F090013AE0B40512A3E0B4DC0D80
:1009D30090013AE4F0A3F0C206C207D208A207824C
:1009E30006400790013AE4F0A3F0900138E004F0E8
:1009F300E0D3940F4004B20BE4F0900139E004F02B
:100A0300E0D394324004B20CE4F0900135E004F0FA
:100A1300E0D39405400AE4F0E580540F900148F0D8
:100A2300301710900136E004F0E0D394964004C2EE
:100A330017E4F0301610900137E004F0E0D39496F9
:100A43004004C216E4F0200112900133E004F0E008
:100A5300D3940A4006E4F0D201D2CC300A129001BA
:100A630034E004F0E0D3940A4006D204C20AE4F06E
:0E0A7300208704D209D200308704C209C200D5
:090A8100D0D0D082D083D0E03245
:10128100300204D2AB8002C2ABEF7004C2A880026C
:10129100D2A8EF75F027A424E8FEE5F034E9900127
:0612A1003DF0A3CEF02297
:10152600759850438E01438E0475D7E875D6FF43F0
:051536008E10D2AC2272
:030023000215952E
:0D159500309904C299C21A309802C29832EF
:0815C300201AFDD21A8F9922B3
:1010FD00900149EBF0A3EAF0A3E9F0900149E0FB80
:10110D00A3E0FAA3E0F91205926017900149A3E458
:10111D0075F001120600A9F0FA120592FF1215C31F
:03112D0080D92244
:0815CB008F993099FDC29922AD
:10053D0041012200410123004101240041012F000E
:10054D0041013000410131004101320047011BC31F
:10055D00C6C7CACBCECF4A0125F505D39727B6F628
:03056D0015F7B7C8
:1014F200D2B6D2C1D2B7E4FF12118ED2B67F441255
:0A150200118ED2B61211600215D34B
:10116000E49000F5F09000F5E0FFC39407501E7482
:101170001B2FF582E43401F583E0FF12118EE4FFAA
:0D11800012118ED2B69000F5E004F080D878
:01118D00223F
:0815D3007F9312118ED2B622A3
:07150C0090011FE0FFE4FD68
:101513009000F7EDF012118E9000F7E0FF12118E9C
:03152300D2B6221B
:05118E009000F8EFF0F5
:101193007F327E00121550C2B6E4FFC2C19000F840
:1011A300E0FE1392B7D2C1EEC313F00FEFB408EB16
:0711B3007F327E000215509F
:0606D3009000F6EFF0F9C3
:1006D900E0FF75F06484FDEF75F00A8475F00A8413
:1006E900AFF0E975F00A84AEF0900130E4F09001C2
:1006F9002FE4F0900124E4F0900123E4F09001301C
:10070900E0FC74252DF582E43401F583E0FBC45443
:100719000FFAEC4A900130F090012FE04BF0900174
:1007290024E0FD74252FF582E43401F583E0FFED23
:100739004F900124F0900123E0FF74252EF582E407
:100749003401F583E0FEEF4E900123F0E9C3940AEA
:10075900501A9000F6E0C39400401112150C900154
:100769001E12150F90011DE0FFE480479000F6E08E
:10077900FFC39464501AEFC3940A401412150C90E5
:10078900011E12150F90011DE0FF900124E0802346
:1007990090011FE0FF900130E0FD12151390011E3A
:1007A900E0FF90012FE0FD12151390011DE0FF906D
:1007B9000124E0FD12151390011CE0FF900123E0D4
:0407C900FD121513F5
:0107CD002209
:10002600AD07900132E05430F0EFB407005057901E
:10003600003CF828287302005102005802006102B1
:10004600006A02007302007C020085900132E0F033
:100056008034900132E04440F0802B900132E0443D
:10006600C0F08022900132E044C8F080199001323D
:10007600E044CCF08010900132E044CEF08007904E
:100086000132E044CFF0900121E0FF900132E0FD23
:030096000215133D
:100A8A00AD07900131E05480F0900130E4F0ED14AC
:100A9A00B407004003020B33900AB075F003A4C5F3
:100AAA008325F0C58373020AC5020AD5020AE50244
:100ABA000AF5020B05020B15020B25900131E044E1
:100ACA0004F0900130E04440F0805E900131E0444F
:100ADA0002F0900130E04420F0804E900131E04471
:100AEA0001F0900130E04410F0803E900131E04482
:100AFA0006F0900130E04460F0802E900131E0442D
:100B0A0003F0900130E04430F0801E900131E0445F
:100B1A0005F0900130E04450F0800E900131E0443D
:100B2A0007F0900130E04470F0900120E0FF90015E
:100B3A0031E0FD12151390011FE0FF900130E0FD36
:030B4A000215137E
:1013FF00900131E054F7F0300D04E04408F0900113
:0B140F0020E0FF900131E0FD0215130A
:10141A00900122E054EFF0300D04E04410F0900106
:0B142A001BE0FF900122E0FD02151303
:10143500900122E054DFF0300D04E04420F09001EB
:0B1445001BE0FF900122E0FD021513E8
:10145000900122E054BFF0300D04E04440F09001D0
:0B1460001BE0FF900122E0FD021513CD
:10146B00900122E0547FF0300D04E04480F09001B5
:0B147B001BE0FF900122E0FD021513B2
:10148600900123E054F7F0300D04E04408F0900199
:0B1496001CE0FF900123E0FD02151395
:1014A100900132E054DFF0300D04E04420F090016F
:0B14B10021E0FF900132E0FD02151366
:1014BC00900131E054EFF0300D04E04410F0900155
:0B14CC0020E0FF900131E0FD0215134D
:1014D700900132E054EFF0300D04E04410F0900139
:0B14E70021E0FF900132E0FD02151330
:10057000C199C118410146004101450041014400B3
:0C0580004101475041014800C117C1165D
:100B4D00200403020BFC900148E024FE601B24FEF0
:100B5D00604A14607A24FC607B24FC607C240C6069
:100B6D0003020BF012109580739000F37464F090F3
:100B7D000148E0B402159000F3E0D39400400CE07E
:100B8D0014F07F0A7E0012132F80E49000F3E070C2
:100B9D00031208C72016031211E480409000F4746C
:100BAD0064F0900148E0B404159000F4E0D3940093
:100BBD00400CE014F07F0A7E0012132F80E49000A9
:100BCD00F4E0700312153B201703120E0A800D126C
:100BDD0010C9800812120D80031212347F327E006C
:0F0BED0012132F300205D20D1213FFD20AC204C9
:010BFC0022D6
:10120D00900146E0FFC201C2CC0FD3EF64809486FB
:10121D0040027F06900146EFF0120F5D900146E00F
:07122D00FF120026020D90E4
:10123400900146E0FFC201C2CC1FC3EF64809480DA
:101244005002E4FF900146EFF0120F5D900146E07A
:07125400FF120026020D90BD
:10109500900145E0C201C2CC2405FFD3648094E4ED
:1010A50040027F64900145EFF0121281900145E006
:1010B500FF1206D390013CE0FF120A8AD20D1214EA
:0410C50086020D9002
:1010C900900145E0C201C2CC24FBFFC36480948037
:1010D9005002E4FF900145EFF0121281900145E0C2
:1010E900FF1206D390013CE0FF120A8AD20D1214B6
:0410F90086020D90CE
:1011E400C201C2CC90013CE0B407057401F0800652
:1011F40090013CE004F090013CE0FF120A8A3002C6
:0912040005D20D1213FF020D903A
:1008C700E49000F5F0900147E09000F5F0C201C216
:1008D700CC7FF47E0102097E900148E06402700338
:1008E700020984300C0D900147E0FF1206D3D20DA8
:1008F700121450A20CB3502D90011FE0FFE4FD121B
:10090700151390011EE0FFE4FD12151390011DE081
:10091700FFE4FD12151390011CE0FFE4FD1215130F
:10092700D20D121450900148E0B40123C201C2CC89
:100937009000F5E02405F0E0D394C8400374C8F0B4
:100947009000F5E0900147F07F647E0012132F902E
:100957000148E064057081C201C2CC9000F5E02433
:10096700FBF0E0C3943250037432F09000F5E0904E
:100977000147F07F647E0012132F0208DFD2169022
:100987000145E0FF1206D390013CE0FF120A8AC23C
:100997000D121450D20D121486300205D20D121307
:0409A700FF020D90AE
:100E0A00C201C2CC900144E004F0E0B406037401CC
:100E1A00F0121160C20D121486D20D12146B9001D9
:100E2A0044E0FF1206D3900144E0FF120EF27FF471
:100E3A007E0112132F121160C20D12146BA218B385
:100E4A00920D1213FFA218920D12141A900145E086
:100E5A00FF1206D390013CE0FF120A8AD20D121447
:100E6A0086900146E0FF120026C206C207120FABA7
:060E7A0012105F0212EDF0
:10153B00C201C2CCD217B218A218920D12141A12F1
:05154B000FAB020D9042
:1011BA00D20D1214A1300317900146E0D3940040D7
:1011CA000EA20B920D1214BCA20BB3920D8007D281
:0A11DA000D1214BCC20D1214D7222E
:0E158700300408900148E07002FF227F01222C
:101025003004369000F37464F0900148E070159038
:1010350000F3E0D39400400CE014F07F0A7E001228
:10104500132F80E59000F3E0700F121160C202C209
:091055000D1213FF1215DBD21974
:01105E00226F
:05000600686572650051
:05058C0042014C0000DB
:100FAB0030182230090FD202D20D1213FFD203D206
:100FBB0006C2078019D207C202C20D1213FFC20369
:100FCB001215DB8009D202D20D1213FFD20390014E
:0E0FDB0045E0FF121281900146E0FF020F5D1B
:1012A70030060D30070AD203900146E0FF120F5DAA
:1012B7003008107BFF7A007906120109C203121564
:0412C700DBC208225C
:0B15AE00C2A6C2A5C2A4C2C4C2C322D0
:10130E00A200E433FF90014CE07003A3E06F601085
:10131E00120FABA200E4FF3390014CCFF0A3EFF01D
:01132E00229C
:10105F007F06120E8090014EEFF0900147E0FEEFF9
:10106F00C39E400BD20D121435D285A20C92CC9098
:10107F000147E0FF90014EE0C39F5009C20D1214CB
:05108F0035C285D2CC42
:011094002239
:10138D003D3D3D3D3D3D3D3D20636F6465207374A6
:0F139D00617274203D3D3D3D3D3D3D3D0D0A00DB
:1007CE0043BA8012136E1215A21215261215641258
:1007DE0015B9121577D2A2D2A1D297D288D2AFC2B2
:1007EE00C2C2A3D2CC1212CBC2851215DB7BFF7A0A
:1007FE0013798D1201091214F2E4FFFE1213ACEFFD
:10080E0064016055EF64026050EF6403604BEF6467
:10081E00046046EF640560419001447401F090015C
:10082E003CF0D2189001467403F09001457432F0FA
:10083E009001477464F01212ED9000F27401F09082
:10084E0000F2E0FFC394065010900144EFF0120D39
:10085E00909000F2E004F080E67FE87E0312132F02
:10086E0030190A121587EF24FF921980F390014573
:10087E00E07004C2A88002D2A8C2A01215AE120F58
:10088E00E9D20D121486300205D20D1213FFC201E9
:10089E00C2CC120B4D1211BA12130E12105F12129D
:1008AE00A71210253019EBC201C2CCD2A6D2A5D206
:0908BE00A4D2C4D2C3D2A080A0D0
:100C09000207CEE493A3F8E493A34003F68001F22C
:100C190008DFF48029E493A3F85407240CC8C333EC
:100C2900C4540F4420C8834004F456800146F6DFBB
:100C3900E4800B0102040810204080900403E47E44
:100C4900019360BCA3FF543F30E509541FFEE493B0
:100C5900A360010ECF54C025E060A840B8E493A377
:100C6900FAE493A3F8E493A3C8C582C8CAC583CAA2
:100C7900F0A3C8C582C8CAC583CADFE9DEE780BE5A
:010591000069
:10059200BB010689828A83E0225002E722BBFE0267
:0905A200E32289828A83E493229A
:1005AB00BC000BBE0029EF8DF084FFADF022E4CC34
:1005BB00F875F008EF2FFFEE33FEEC33FCEE9DECFD
:1005CB00984005FCEE9DFE0FD5F0E9E4CEFD22ED43
:1005DB00F8F5F0EE8420D21CFEADF075F008EF2F8D
:1005EB00FFED33FD4007985006D5F0F222C398FD7E
:0505FB000FD5F0EA221B
:10060000A3F8E0C5F025F0F0E582158270021583AD
:06061000E0C838F0E8220A
:10061600BB0110E58229F582E5833AF583E0F5F022
:10062600A3E0225009E92582F886F008E622BBFEFF
:100636000AE92582F8E2F5F008E222E5832AF58345
:08064600E993F5F0A3E993220A
:10009E00E50824F6F582E43400F583E005082290A5
:1000AE0000F33014039000F6E475F00112068D0291
:1000BE000592200DE97F2ED20D8018EF540F24905B
:1000CE00D43440D4FF30110BEF24BFB41A005003C8
:1000DE002461FFE50960021509050CE50C700205A7
:1000EE000B30140E9000F3E475F00112068DEF0242
:1000FE00067B0215CB7403D2148003E4C214F508F8
:10010E009000F31206A4E4F509F50BF50CE5096071
:10011E00077F201200E180F5750AFFC20EC20DC2E4
:10012E000FC210C212C213C2151200ADFF700D30F5
:10013E0014057F001200F2AF0CAE0B22B4255FC285
:10014E00D5C2111200ADFF24D0B40A00501A75F0BA
:10015E000A780930D50508B6FF0106C6A426F62092
:10016E00D5047002D21080D924CFB41A00EF5004F7
:10017E00C2E5D2110202F3D20E80C6D20D80C0D2D9
:10018E000F80BCD2D580BAD21280B47F201200E18B
:10019E00200F077401B5090040F112009EFF1200F6
:1001AE00E102011BD215D213809512009EFB1200A4
:1001BE009EFA12009EF94A4B700679C47A037BFFB1
:1001CE00200F2EE509602A7E008E827583001206AE
:1001DE004E60060EEE650A70F0C2D5EBC0E0EAC0C6
:1001EE00E0E9C0E0EE12033AD0E0F9D0E0FAD0E058
:1001FE00FB120592FF60AAEBC0E0EAC0E0E9C0E0A6
:10020E001200E1D0E02401F9D0E03400FAD0E0FB96
:10021E00E50A0460DCD50AD980877BFF7A0379363C
:10022E00D20F809C791080027908C213C215800803
:10023E00D2D5790A8004790AC2D5E50A047002F58E
:10024E000AE4FAFDFEFF12009EFC7B08200E13123C
:10025E00009EFD7B10300D0A12009EFE12009EFFC6
:10026E007B20EC3382D592D55013C3E4300D069F1C
:10027E00FFE49EFEE4200E039DFDE49CFCE4CBF81F
:10028E00C20EEC700CCFCECDCCE824F8F870F38013
:10029E0017C3EF33FFEE33FEED33FDEC33FCEB33E0
:1002AE00FB994002FB0FD8E9EB300E05F8D0E0C405
:1002BE0048B20EC0E00AEC4D4E4F78207B0070C263
:1002CE00EAB50A0040BCC0E012033CD0F0D0E020FA
:1002DE000E04C4C0E0C4B20EC0F01200CAD0F0D5F5
:1002EE00F0EB02011B1206AD01B853023258018920
:1002FE004C01854202364F023E44023E49019E4366
:08030E000244550228460228B2
:100316004502284703E450018D2D01912E01B42B8F
:1003260001952301B22003CD2A014D48000001ACFE
:100336003F3F3F00790AA2D5201014301209B910A8
:10034600020404B9080104A2D520130250010420B6
:100356000F68920FB509005034C0E07F20301019A5
:100366007F30A20F72137212500F120393C20FC284
:1003760013C212C2157F30800F301203E9C0E0129B
:1003860000E1301203D0E0F9D0E0B509CC30121705
:100396007F30B9100C1200E17F583011077F78804A
:1003A60003B908031200E1300F057F2D0200E17F3B
:1003B600202015F87F2B2013F322920F80CF286E72
:1003C600756C6C2900D20E12009E300EF8C20E78A3
:1003D6000930D50108F602014D2D50434958120047
:1003E6009E2403B405004001E49003DF931200D27B
:0D03F600743A1200D2D210750904020232CE
:10064E00BB010CE58229F582E5833AF583E0225061
:10065E0006E92582F8E622BBFE06E92582F8E222AB
:0D066E00E58229F582E5833AF583E49322C5
:10067B00BB010689828A83F0225002F722BBFE015E
:02068B00F32258
:10068D00F8E0FBA3A3E0F925F0F0E58215827002F6
:07069D001583E0FA38F0229A
:0906A400EBF0A3EAF0A3E9F02257
:1006AD00D083D082F8E4937012740193700DA3A3DC
:1006BD0093F8740193F5828883E4737402936860F0
:0606CD00EFA3A3A380DFF0
:00000001FF
